:020000040800F2
:1000000000040020B9020008BB020008BB0200087F
:10001000BB020008BB020008BB020008BB020008CC
:10002000BB020008BB020008BB020008712B0008DD
:10003000BB020008BB020008BB020008BB020008AC
:10004000BB020008BB020008BB020008BB0200089C
:10005000BB020008BB020008B13100087131000882
:1000600031310008F1300008B1300008E12E0008FD
:10007000B12E0008812E0008512E0008212E000804
:10008000F12D0008C12D0008BB020008BB020008CA
:10009000BB020008BB020008BB020008F12F0008E9
:1000A000BB020008BB020008BB020008BB0200083C
:1000B000012C0008BB020008BB020008BB020008BC
:1000C000BB020008BB020008BB020008BB0200081C
:1000D000BB020008BB020008E12B0008BB020008BD
:1000E000112F0008BB020008BB020008BB02000879
:1000F000BB020008BB020008BB020008912D0008EB
:10010000BB020008BB020008BB020008BB020008DB
:10011000BB020008BB020008BB020008BB020008CB
:10012000612D0008312D0008012D0008D12C000898
:10013000A12C0008BB020008BB020008BB0200089B
:10014000BB020008BB020008BB020008BB0200089B
:10015000712C0008412C0008112C0008BB0200087B
:10016000BB020008BB020008BB020008BB0200087B
:10017000BB020008BB020008BB020008BB0200086B
:10018000BB020008BB020008BB020008BB0200085B
:10019000BB020008BB020008BB020008BB0200084B
:1001A000BB020008BB020008BB020008BB0200083B
:1001B000BB020008BB020008BB020008BB0200082B
:1001C000BB020008BB020008BB020008BB0200081B
:1001D000BB020008BB020008BB020008BB0200080B
:1001E00072B6274880F30888264880F30988264895
:1001F0004EF60851CEF200010860022080F3148808
:10020000BFF36F8F03F024F802F0E2FC4FF055309B
:100210001E491B4A91423CBF41F8040BFAE71C49B6
:10022000184A91423CBF41F8040BFAE719491A4AAF
:100230001A4B9A423EBF51F8040B42F8040BF8E700
:1002400000201749174A91423CBF41F8040BFAE7D6
:1002500002F0CEFF02F0F4FF134C144DAC4203DA6F
:1002600054F8041B8847F9E702F072FC104C114D5A
:10027000AC4203DA54F8041B8847F9E702F0D8BF10
:1002800000040020000800200000000800000020FA
:10029000000400208435000800080020FC0B00202A
:1002A000000C002010120020E0010008E00100080E
:1002B000E0010008E001000892E700F000F8FEE726
:1002C0002DE9F04FC1F80CD0C3689D46BDE8F08F12
:1002D000002383F311882846A047002002F058FC31
:1002E000FEE702F05DFC00DFFEE70000844641EA25
:1002F000000313F003036DD1403A41D351F8043B9E
:1003000040F8043B51F8043B40F8043B51F8043BEF
:1003100040F8043B51F8043B40F8043B51F8043BDF
:1003200040F8043B51F8043B40F8043B51F8043BCF
:1003300040F8043B51F8043B40F8043B51F8043BBF
:1003400040F8043B51F8043B40F8043B51F8043BAF
:1003500040F8043B51F8043B40F8043B51F8043B9F
:1003600040F8043B51F8043B40F8043B51F8043B8F
:1003700040F8043B51F8043B40F8043B403ABDD2FE
:10038000303211D351F8043B40F8043B51F8043BA0
:1003900040F8043B51F8043B40F8043B51F8043B5F
:1003A00040F8043B103AEDD20C3205D351F8043B2F
:1003B00040F8043B043AF9D2043208D0D2071CBFFB
:1003C00011F8013B00F8013B01D30B880380604624
:1003D000704700BF082A13D38B078DD010F003039A
:1003E0008AD0C3F10403D21ADB071CBF11F8013B0A
:1003F00000F8013B80D331F8023B20F8023B7BE759
:10040000043AD9D3013A11F8013B00F8013BF9D283
:100410000B7803704B7843708B788370604670471D
:10042000F0B40C461E4603B90E4600F10B052B46F0
:1004300006E003F8014DB7FBF2F4B6FBF2F65EB14D
:100440002746B4FBF2F102FB114101F13004392CD3
:10045000EFDD01F13704ECE7EC1A19780133017094
:100460000130013CF9D1F0BC704700BF0000000032
:1004700008B50023FFF7D4FF08BD00BF000000004F
:100480002DE9F04F87B0064689460192002705E026
:100490003368DB68304698470137A9464D4615F862
:1004A000011B00297BD02529F2D12B782D2B43D09D
:1004B0004FF0000A2B782B2B43D0002295F80080B8
:1004C000B8F1300F40D04FF020082A293ED1019BCF
:1004D000181D01901C682E2946D000236C2964D079
:1004E0004C2962D0A1F14100C0B219288CBF002074
:1004F0000120A946A1F14405342D00F2C880DFE8AF
:1005000005F07FC6C6C6C67FC6C6C6C6C65BC6C61B
:10051000C6C6C69FC6C6BFC6C6C6C6C6C6C6C6C6A9
:10052000C65D7FC6C6C6C67FC6C6C6C6C65BC6C6CD
:10053000C669C69FC6C6BF0009F102054FF0010A91
:10054000B8E701350122B9E70135BEE7002415F807
:10055000011B21B3A1F13003DBB2092BBBD804EBA3
:10056000840403EB4404F2E7284610F8011BB1B100
:100570002A2906D1019B191D01911B686978023552
:10058000ACE70023A1F13005EDB2092D0BD803EB48
:10059000830305EB430310F8011B0029F2D1384611
:1005A00007B0BDE8F08F054698E7A94619F8011B8A
:1005B0000029F4D001209DE7082242E0019B1A1D8A
:1005C00001921B688DF80C304FF0200803AD0DF13F
:1005D0000D003FE0019A111D0191156815B163B13D
:1005E000284602E0404DFAE701300278002A54D054
:1005F000013BF9D54FF020082CE047F6FF73EFE7F9
:1006000060B1019B191D0191196800290BDBAAB18A
:100610002B238DF80C300DF10D000AE0019B191D04
:1006200001911968F1E72D238DF80C3049420DF145
:100630000D000A22FFF71CFF03AD0BE003A8F8E74B
:100640000A22F8B1019B191D0191196803A8FFF74F
:100650000FFF03ADA0EB050BB4EB0B0420D4BAF1F4
:10066000000F00D16442002C1CDBBBF1010B38D41D
:100670003368DB6815F8011B304698470137F4E70B
:100680001022DEE7019B191D01911968DEE78DF844
:100690000C1003AD0DF10D00DCE74FF02008D9E799
:1006A0000024DCE729782D2908D03368DB6841462F
:1006B0003046984701370134F7D1D6E7B8F1300F0B
:1006C000F3D101353368DB683046984701370BF1C9
:1006D000FF3BEAE73368DB6841463046984701371D
:1006E000013C002CF6D1D9E6583200080000000089
:1006F000024B03600023836003717047803500085C
:1007000070B48368DD68002305EBC30615F8334039
:10071000C82C06D08C4201D00133F5E7726000206E
:1007200003E0112380F80A31184670BC704700BFFF
:1007300030B48368DC68002304EBC30514F833206D
:10074000C82A05D08A4201D00133F5E7686803E082
:10075000112380F80A31002030BC704700000000EF
:10076000002383F3118862B60C4BD96821F4E06151
:100770000904090C0A4A0A43DA600A49CA6842F0C5
:100780008072CA6008490A6842F001020A601022B9
:10079000DA77202283F82220704700BF00ED00E0C6
:1007A0000003FA05F0ED00E0001000E0000000009A
:1007B00010B40024046041608260C36010BC7047C4
:1007C00010B4094B5C68201A49420840821A1B6821
:1007D000934205D8944205D3034B5A6010BC70472E
:1007E0000020FBE70020F9E70011002000000000D6
:1007F00008B50022FFF7E4FF08BD00BF00000000BD
:1008000008B5202383F31188FFF7DAFF002383F371
:10081000118808BD0000000000000000000000007A
:10082000024B034A1A60034A5A60704700110020C5
:100830001012002000000220000000000000000054
:100840000160C160816001EB8201416000230361AE
:10085000037500F118038361C36100F12003036293
:10086000436270470000000000000000000000002C
:100870000060406000238360704700BF00000000FC
:1008800038B5124C2046FFF7F3FF04F11003236143
:100890000F4D2B46042214216018FFF789FF04F145
:1008A0002403636204F12803A3622B4604221C2163
:1008B00004F12C00FFF77CFF04F13C03E36304F137
:1008C0004003236404F14403636438BDE00F002057
:1008D000F107000800000000000000000000000018
:1008E00008B50548054B03600023436083600C3066
:1008F000FFF7BEFF08BD00BF081100200108000877
:1009000030B40E4B5B680E4A516FC2680132C26050
:1009100082689B1A5B1A8360D0E90445E41845F1AC
:100920000005C0E904454268934200D9436002686B
:10093000934200D2036030BC704700BF001000E05B
:10094000680F002000000000000000000000000010
:10095000014B5B6883607047001000E000000000FE
:100960004FF0FF330360002343608360C3600022C5
:100970000023C0E9042370470000000000000000CD
:1009800010B586B0074C002363676846FFF7E8FFA1
:100990006846FFF7DDFF6846FFF7B2FF029B63671B
:1009A00006B010BD680F002000000000000000002D
:1009B00010B48260022480F82040002480F8214096
:1009C000C26384634463012280F822208161074A64
:1009D0000261516941610861506100F1280282623F
:1009E00000F12C02C262026310BC7047680F002045
:1009F00008B58368426843F82C2CA3F16C0243F8D5
:100A00003C2C016943F86C1C416943F8681C05499A
:100A100043F84C1CC2680168A3F14800FFF7C8FF07
:100A200008BD00BFD1020008000000000000000067
:100A3000044B1A6890689B699B68984294BF002099
:100A400001207047680F0020000000000000000037
:100A5000202383F311880D4B5B6813F4006F03D1DF
:100A6000002383F31188704710B5EFF30984203C0D
:100A70004FF08073E36184F30988FFF7D9FF10B169
:100A8000034BA36110BD034BA361FBE700ED00E046
:100A9000E3020008E6020008000000000000000079
:100AA000002380F82030064B1B68996882689142C9
:100AB000FAD803605A68426010605860704700BFFF
:100AC000680F00200000000000000000000000008F
:100AD000002380F82030064B1B6899688268914299
:100AE000FAD203605A68426010605860704700BFD5
:100AF000680F00200000000000000000000000005F
:100B000008B5436B1943416390F820300A2B02D09B
:100B10000B2B08D008BD426A1142F9D00023436272
:100B2000FFF7D6FFF6E7436A8B43F3D1F6E700BF42
:100B300070B506460D46046804E0A1686068FFF7DA
:100B4000DFFF2468B44208D0E3682B43E360002D44
:100B5000F3D023692B42F4D0EFE770BD0000000012
:100B600038B504460D462068844206D003682360E9
:100B70005C604562FFF7ACFFF5E738BD00000000A0
:100B800008B503460068834205D002681A605360C6
:100B90004162FFF79DFF08BD00000000000000005B
:100BA00008B50346006820B100221A604162FFF7D1
:100BB0008FFF08BD000000000000000000000000E2
:100BC00008B5202383F3118890F82030072B16D81E
:100BD000DFE803F004151508100C1510002383F34B
:100BE000118814E0436A00221A6008E0426A9368A0
:100BF0000133936042680368136042685A604FF0A3
:100C0000FF334362FFF764FF002383F3118808BDBD
:100C1000034B1B605B6000229A601B615B61704745
:100C2000680F00200000000000000000000000002D
:100C3000054B03F11C02DA611A624FF0FF325A626F
:100C400000229A62704700BF680F00200000000079
:100C500072B6014AD062FEE7680F00200000000073
:100C6000FEE700BF000000000000000000000000E0
:100C70004B6843608B688360CB68C3600B694361DA
:100C80004B6903628B6943620B680360704700BF66
:100C900010B51E4B1A6942F0FF021A611A6922F060
:100CA000FF021A611A691A6B42F0FF021A631A6D89
:100CB00042F0FF021A651B6D154C21461548FFF7DF
:100CC000D7FF04F11C011448FFF7D2FF04F13801EB
:100CD0001248FFF7CDFF04F154011148FFF7C8FF98
:100CE00004F170010F48FFF7C3FF04F18C010E48B7
:100CF000FFF7BEFF04F1A8010C48FFF7B9FF04F1AC
:100D0000C4010B48FFF7B4FF10BD00BF003802401C
:100D1000B83300080000024000040240000802400E
:100D2000000C024000100240001402400018024073
:100D3000001C024000000000000000000000000055
:100D4000024AD36843F0C003D360704700440040B8
:100D500008B50B4611F0080F13D1002113F0010F55
:100D600001D041F0200113F0020F01D041F0400109
:100D700013F0040F01D041F480710430FFF7D8FE66
:100D800008BD8021EAE700BF00000000000000006D
:100D900010B4436F1E4A934208D002F5806293421A
:100DA00004D00C681B4AB2FBF4F203E00C681A4A48
:100DB000B2FBF4F2B1F90440002C1DDB9A60CA8842
:100DC00042F040021A610A8942F001025A618A889F
:100DD00042F4045242F02C02DA6000221A601A68CF
:100DE0005B688B8803F4A053B3F5806F0BD0FF23AF
:100DF00080F8783010BC704722F0070402F0070238
:100E000042EA4402DAE77F2380F87830F2E700BF55
:100E10000010014040A5AE02804A5D0500000000C0
:100E200010B4046A2468E360036A1B685960036AAB
:100E30001C68836A43F480632360436A1B68DA603A
:100E4000436A1B685960436A1A68C36A43F4806343
:100E50001360036A1A68136843F001031360436A5E
:100E60001A68136843F00103136010BC704700BF99
:100E700038B511F00C0F1CD104460D4643681A78A2
:100E8000D2B111F0100F02D05B6803B1984715F092
:100E9000200F49D063685A68002A45D00422227086
:100EA0005B68204698472378042B3DD103232370A9
:100EB0003AE02148FFF7CCFE436A1A68136823F032
:100EC0001F031360636A1A68126812F0010FF9D1E8
:100ED0005A68597A3D238B401360236A1A68136855
:100EE00023F01F031360236A1A68126812F0010FBF
:100EF000F9D15A68597A3D238B40136063685A6868
:100F0000B2B1042222705B68204698472378042BF4
:100F10000BD0202383F31188002104F10800FFF790
:100F20003FFE002383F3118838BD02232370F0E7CE
:100F300002232370EDE700BF6032000800000000CC
:100F400011F00C0F00D1704708B50148FFF780FE83
:100F500060320008000000000000000000000000F7
:100F6000F0B401238B408D0801F0030189000F24A8
:100F700004FA01F6C0F38320174F023557F82540D5
:100F800024EA060400FA01F1214347F8251012F083
:100F9000010F14D0114881681943816012F0020FCB
:100FA00013D00E49CA681A43CA600C4A1168194323
:100FB0001160516821EA03035360F0BC7047074891
:100FC000816821EA03018160E8E70449CA6822EAEE
:100FD0000302CA60E9E700BF00380140003C01405D
:100FE00000230F2B07D8044901EBC30241F833203B
:100FF00052600133F5E77047DC0C00200000000070
:1010000000230D4A13600F2B0CD803EB43018A0019
:101010000A498A5800211160074A02EBC302516055
:101020000133F0E7064A4FF0FF339360D36002F5D7
:1010300080629360D360704724110020D43200088E
:1010400000600240000000000000000000000000FE
:10105000564B4FF080521A64554A4FF4404111608C
:101060001A6842F001021A60504B1B6813F0020F1D
:10107000FAD04E4A936823F0030393604B4B9B686E
:1010800013F00C0FFAD1494B1A6802F0F9021A60FA
:1010900000229A601A6842F4A0221A60434B1B682F
:1010A00013F4003FFAD0414A536F43F001035367F2
:1010B0003E4B5B6F13F0020FFAD03C4B3D4A5A6037
:1010C0001A6842F080721A60394B5B6813F4804FE3
:1010D000FAD0374A136843F480331360344B5B68AB
:1010E00013F4803FFAD0324A136843F4003313609C
:1010F0002F4B5B6813F4003FFAD02C4B1B6813F0A6
:10110000007FFAD0294B2C4AC3F884201A6842F099
:1011100080621A60254B1B6813F0006FFAD0234BD6
:10112000264AC3F888201A6842F080521A601F4B82
:101130001B6813F0005FFAD01C4B214A9A60214AC9
:10114000C3F88C204FF00062C3F894201E4B1A683D
:101150001E4B9A421FD01E4B40F205721A601C4B68
:101160001B6803F00F03052BF9D1104A936843F075
:10117000020393600D4B9B6803F00C03082BF9D11D
:101180000A4B5A6C42F480425A645A6E42F48042CE
:101190005A665B6E70470F4B1A680F4B9A42DAD152
:1011A0000B4B40F205121A60D9E700BF003802402D
:1011B00000700040085A40070430414404300344A2
:1011C0000094084003008000002004E01164002027
:1011D000003C024000ED00E041C20F410000000071
:1011E0000B4A136843F4807313600A4B1B6F03F4BC
:1011F0004073B3F5007F05D0064B4FF480321A6779
:1012000000221A67024A536823F400735360704740
:1012100000700040003802400000000000000000A4
:101220000901C9B2074A131883F8001300F01F011F
:10123000400901238B4000F1600142F8213042F85F
:101240002030704700E100E00000000000000000D6
:1012500038B504460D4639B1237A012B06D029460C
:101260002046FFF795FD38BD094DF5E7094B9C4237
:10127000F5D1094B1A6C42F400321A641A6E42F42A
:1012800000321A661B6E0C212620FFF7C9FFE6E725
:10129000AC330008000C00200038024000000000C1
:1012A00008B5124B1A6C42F001021A641A6E42F031
:1012B00001021A661B6E0E4A936843F001039360A5
:1012C0004FF0804342F227329A624FF0FF32DA62E7
:1012D00000229A615A63DA605A6001225A611A60E8
:1012E00008211C20FFF79CFF08BD00BF003802400A
:1012F000002004E0000000000000000000000000EA
:10130000F8B50F2805D80446A04204D20027384675
:10131000F8BD0027FBE70125A540284E36682E4280
:1013200001D00134F0E726480C2707FB04072348C7
:1013300000EBC40CCCF80420CCF808302E43066037
:1013400015F0FF0F09D01F4B186B40F40010186305
:10135000186D40F4001018651B6D15F47F4F09D00F
:10136000184B186B40F480001863186D40F480002F
:1013700018651B6D0C2303FB04F31148C058036868
:1013800023F01F030360036813F0010FFBD10C4D22
:101390000C2303FB04535E7A5D683D23B3402B604E
:1013A0000023036021234361002AB0D0044A0C23A8
:1013B00003FB0424E07AFFF733FFA8E724110020A1
:1013C000D432000800380240000000000000000095
:1013D00010B504460378012B2ED063681A8A12F4E4
:1013E000006F6CD1A26A22F4F042A262E26A22F497
:1013F000F042E2621B78002B6ED0A36A43F4847340
:10140000A362E36A43F48473E362E269136823F03E
:101410004003136063681B8AE26943F441731360FD
:1014200063685B8AE26943F007035360E26913680B
:1014300043F04003136010BD2C4B98420DD02C4B51
:101440009C4223D0236A1A68E3690C339360636A71
:101450001A68E3690C339360BFE70346254A0A2103
:101460000820FFF74DFF20622346234A0A210B2064
:10147000FFF746FF6062214B5A6C42F480525A6477
:101480005A6E42F480525A665B6ED8E72346194A78
:101490000A210320FFF734FF20622346164A0A215F
:1014A0000420FFF72DFF6062144B1A6C42F4804257
:1014B0001A641A6E42F480421A661B6EC2E7A26A70
:1014C00022F4F04242F42052A262E26A22F4F04294
:1014D00042F42052E2628DE7A36A23F48473A3628C
:1014E000E36A23F48473E3628FE700BF7C0C00207F
:1014F000AC0C0020710E0008410F000800380240BB
:1015000008B506210846FFF78BFE06210720FFF7E6
:1015100087FE06210820FFF783FE06210920FFF73A
:101520007FFE06210A20FFF77BFE06211720FFF72A
:1015300077FE06212820FFF773FE08BD000000009B
:1015400008B5174B1A6962F0FF021A611A69D2B224
:101550001A611A695A694FF0FF3058615A690021BF
:1015600059615A691A6A62F080521A621A6A02F064
:1015700080521A621A6A5A6A58625A6A59625A6AD8
:101580001A6C42F080521A641A6E42F080521A6647
:101590001B6EFFF725FEFFF733FDFFF7B1FF08BD18
:1015A00000380240000000000000000000000000C1
:1015B00038B5202585F3118803250570FFF730FC29
:1015C000002383F3118838BD0000000000000000F4
:1015D000202383F3118843689A68D96801238B40DC
:1015E0009BB21383002383F311887047000000002F
:1015F000202383F3118843689A68D96801238B40BC
:101600009BB25383002383F31188704700000000CE
:1016100030B583B004461D46194B5B888DF8063003
:101620006F2914D88DF804108DF80520FFF7E0FF1E
:101630002B4601AA02212046FFF7BAFF2278022A90
:10164000FCD12046FFF7C4FF687803B030BD0B0A19
:1016500043F070038DF804308DF805108DF80620E6
:10166000FFF7C6FF2B4601AA03212046FFF7A0FF84
:101670002278022AFCD12046FFF7AAFFA878E4E7E7
:1016800054320008000000000000000000000000CC
:101690002DE9F04383B004461C4B1B68ADF80430C1
:1016A0001B0C8DF806308368D3F800900421FFF7F7
:1016B0003FF80546C7B203212046FFF739F8064632
:1016C0005FFA80F805212046FFF732F815F0800F09
:1016D0000BD101AB00224FF4C0714846FFF798FFD1
:1016E0000746384603B0BDE8F083C3B216F0F00FEA
:1016F000F7D103F00F0308F00F001B1A57FA83F01D
:1017000000F03F0040F08007EBE700BF54320008D4
:10171000F0B583B007460E460C4B1B68ADF804309D
:101720001B0C8DF806300024531EDDB252B101AB04
:10173000002229213846FFF76BFF30550134E4B20F
:101740002A46F1E7204603B0F0BD00BF543200083E
:101750002DE9F04782B006468946784B1B68ADF804
:1017600004301B0C8DF8063083681F6801AB002223
:101770000F213846FFF74CFF062333714FF0000866
:1017800094E001AB002229213846FFF741FF824651
:10179000A2E0BAF1000F00F0878001AB00222921FE
:1017A0003846FFF735FF0AF1FF32D2B249463846D4
:1017B000FFF7AEFF804677E0BAF1030F0FD0544534
:1017C00072D201AB002229213846FFF721FF3319DD
:1017D00018740C2386F80A310134E4B2EFE701AB48
:1017E000002229213846FFF713FFB07301AB002216
:1017F00029213846FFF70CFF707301AB0022292125
:101800003846FFF705FF30734EE0BAF1020F0FD0F4
:10181000544549D201AB002229213846FFF7F8FE92
:10182000331918740C2386F80A310134E4B2EFE757
:101830000024B47301AB224629213846FFF7E8FEA5
:10184000707301AB224629213846FFF7E1FE307361
:101850002AE0BAF1010F0FD0544525D201AB002286
:1018600029213846FFF7D4FE331918740C2386F863
:101870000A310134E4B2EFE701AB002229213846F6
:10188000FFF7C6FEF0730FE00D2386F80A3109E07A
:1018900001AB002229213846FFF7BAFE331918742C
:1018A0000134E4B25445F3D30523337101AB002274
:1018B00028213846FFF7ACFE10F001043AD101AB05
:1018C000002229213846FFF7A3FE0546C0F3471A38
:1018D000BAF1070F3FF455AF05F01F05013D122D7A
:1018E000D2D801A353F825F09317000889180008EF
:1018F0008918000889180008891800088918000844
:101900008918000889180008891800088918000833
:101910008918000889180008891800088918000823
:101920008918000889180008531800080B180008C7
:10193000B9170008404602B0BDE8F08754320008ED
:1019400030B583B004461D461A4B5B888DF80630CF
:101950006F2916D861F07F018DF804108DF80520ED
:10196000FFF746FE2B4601AA02212046FFF720FE84
:101970002278022AFCD12046FFF72AFE287803B0FD
:1019800030BD0B0A63F00F038DF804308DF805109D
:101990008DF80620FFF72CFE2B4601AA03212046D6
:1019A000FFF706FE2278022AFCD12046FFF710FE40
:1019B000E4E700BF5432000800000000000000000F
:1019C00070B582B004461D4B1B68ADF804301B0C8B
:1019D0008DF8063083681D680521FEF7A9FEC6B2A2
:1019E00010F0200F02D0122384F80B3101AB00223B
:1019F00030212846FFF70CFE10F0800F0ED101AB0E
:101A000006F00F0233212846FFF79AFF2046FFF722
:101A10003FFE10F0800F09D102B070BD01AB06F09F
:101A20000F023B212846FFF78BFFEFE701AB024691
:101A30004FF4C0712846FFF783FFEDE754320008EA
:101A40002DE9F04182B080460F46134B1B68ADF87C
:101A500004301B0C8DF8063083689D68002407E075
:101A6000D8F8086001AB92783068FFF769FF01345D
:101A700005EB840235F8241040F6FF73994203D039
:101A8000D378BB42F3D1EBE79DF8040088F80B0153
:101A900002B0BDE8F08100BF543200080000000031
:101AA00070B582B004460D460E4B1B68ADF804308D
:101AB0001B0C8DF8063083681E6801AB00220221E2
:101AC0003046FFF7A5FD00F0F00201AB2A430221EA
:101AD0003046FFF735FF9DF8040084F80B0102B093
:101AE00070BD00BF5432000800000000000000007C
:101AF00030B583B00546324B1B68ADF804301B0C83
:101B00008DF8063083681C6801AB002240F2611139
:101B10002046FFF715FF01AB00224FF4B1712046BC
:101B2000FFF70EFF01AB002240F263112046FFF7E2
:101B300007FF01AB002240F265112046FFF700FFCE
:101B400001AB00224FF4B3712046FFF7F9FE01AB61
:101B5000012240F267112046FFF7F2FE0D212846D0
:101B6000FFF79EFF01AB032228212046FFF7E8FE86
:101B700001AB622229212046FFF7E2FE01AB3822A9
:101B800029212046FFF7DCFE01ABFF222921204658
:101B9000FFF7D6FE01AB552229212046FFF7D0FEE4
:101BA00001AB042228212046FFF7CAFE0521284662
:101BB000FFF776FF0D232B71002003B030BD00BF6F
:101BC0005432000800000000000000000000000087
:101BD00030B583B00446244B1B68ADF804301B0CB1
:101BE0008DF8063083681D680221FFF729FF204623
:101BF000FFF7E6FE0A212046FEF79AFD01ABC2B2CE
:101C00004FF40B712846FFF79BFE03212046FFF798
:101C100017FF01AB032228212846FFF791FE092177
:101C20002046FFF73DFF01AB00222E212846FFF79B
:101C300087FE01AB80222F212846FFF781FE01ABF2
:101C4000012207212846FFF77BFE01AB0022062177
:101C50002846FFF775FE9DF8043084F80B31052304
:101C6000237103B030BD00BF5432000800000000F3
:101C700010B50446202383F311884160FFF7A8FBC9
:101C800002232370002383F3118810BD000000009D
:101C900008B5012303700023436083600C30FEF716
:101CA000E7FD08BD0000000000000000000000008B
:101CB00038B50D4C2046FFF7EBFF0C4BE3610025D8
:101CC000256265620A4BA3623033E362094C204609
:101CD000FFF7DEFF084BE36125626562074BA362F5
:101CE0003033E36238BD00BF7C0C0020003001407F
:101CF00016000106AC0C0020003800401600010060
:101D000008B5FFF7D5FF08BD000000000000000087
:101D100010B50446202383F31188FFF799FA0223B4
:101D20002372002383F3118810BD00BF0000000060
:101D300000207047000000000000000000000000CC
:101D4000836942699A4212D00022AAB910B582680A
:101D5000013282605A1C82611C7803699A4201D365
:101D6000C36883610021FEF70BFF204610BD826827
:101D7000002AEAD00122E8E74FF0FF30704700BFA9
:101D8000006040608260C160816141611144016115
:101D9000C361009B03627047000000000000000068
:101DA00008B543698269934212D00022AAB98268B9
:101DB000013282605A1C42611970426903699A4279
:101DC00001D3C36843610021FEF7DAFE002008BD9D
:101DD0008268002AEAD00122E8E74FF0FF30F6E7F8
:101DE00038B504460D4643693BB1294604F10C0061
:101DF000FFF7D6FF002805DB38BD04210844FEF7B5
:101E000097FEF2E74FF48061201DFEF791FEF3E7A5
:101E1000F8B50646456FEF682B689CB213F4807FD7
:101E200003D1202383F3118818E0202383F3118842
:101E30004FF400710430FEF77BFE6FF480732B606B
:101E4000002383F31188ECE721463046FEF780FF3C
:101E50000AE03046FFF7C4FF2C68A4B214F02F0F3D
:101E60000AD014F00F0FEFD1696896F87830194056
:101E700014F0200FF0D0ECE7002383F3118817F063
:101E8000800F02D014F0800F12D117F0400F0ED047
:101E900014F0400F0BD0202383F31188726CB36CC5
:101EA0009A421CD00023FBB9002383F31188F8BDAC
:101EB000202383F3118806F13000FFF741FF00284B
:101EC00004DB6860002383F31188DEE70821301DFE
:101ED000FEF72EFE4FF67F733B40EB60F2E7B36BED
:101EE000002BE0D00123DEE71021301DFEF720FE9D
:101EF00027F040073F043F0CEF60D5E700000000EB
:101F000010B40060406000248460C1608161416160
:101F100011440161C361019B036210BC704700BFA3
:101F200030B583B004460B46154602460B4942F8CD
:101F3000041B4260012202720090102200F1540141
:101F40000C30FFF7DDFF00942B46102204F16401F2
:101F500004F13000FFF714FF03B030BD583500081E
:101F600010B5044C044A00212046FFF7D9FF034B6B
:101F7000636710BD000C0020410D000800440040C4
:101F800008B5FFF7EDFF08BD0000000000000000ED
:101F90004FF08043586A70470000000000000000C6
:101FA0004FF08043586370470000000000000000BD
:101FB0004FF080430022DA60704700BF000000004D
:101FC00038B51E4BDB69834210D0436802681A6043
:101FD000036842685A600023C3600368184A93424A
:101FE00003D081689A680A449A6038BD0168134A30
:101FF000134643F81C1F4B600021C160D2699A420E
:1020000016D0816893680B4493600C4DAC6AFFF75F
:10201000BFFF021BEB699B689342E6D9241A1C445C
:10202000012C08D9054A906A1844FFF7B9FFDCE78C
:10203000FFF7BEFFD9E7931CF4E700BF680F00204D
:10204000840F0020000000000000000000000000DD
:1020500070B5224BDC69FFF79BFF204B9B6AC51ACA
:10206000A268954223D21D4A52F81C1F91420ED0FD
:102070001A4DA8621B1A8A6813448B60A268AB6A67
:102080001B1A1344012B26D91844FFF789FF70BD92
:10209000FFF78EFF002383F311882069B0472023C8
:1020A00083F311880D4BDC69A3689D42D3D3A168EB
:1020B0000A4B9A6A0A449A62A268AD1A216803F12F
:1020C0001C024A602168D961E6680021E160DB6991
:1020D0009342DFD1DCE70223D6E700BF680F002080
:1020E00008B54FF080421369D168C9B20B40D9439B
:1020F000116113F0020F00D108BD202383F3118872
:10210000FFF7A6FF002383F31188F5E70000000026
:102110004FF08043586300221A610222DA60704750
:10212000F8B506460F460361C260FFF731FF04466B
:10213000012F0DD91B4B53F81C5F9D420AD0194B40
:10214000986A241A3C1913D3AB68E41A2D6818E076
:102150000227EFE7134B9C62DE611E6203F11C0253
:1021600032607260B760986A3844FFF7D1FF18E0B8
:10217000AB68A34205D92044FFF712FF01E0E41A3F
:102180002D68AB68A342FAD335606B6873601E603C
:102190006E60B460AB681C1BAC60024B4FF0FF324A
:1021A0005A62F8BD680F0020000000000000000027
:1021B00008B5FFF775F808BD00000000000000003A
:1021C00008B5FFF7BDF9FEF70BFFFFF7D9FEFFF7E4
:1021D00097FDFFF7EDFF08BD0000000000000000C4
:1021E0000EB400B582B003AA52F8041B0192FEF7A8
:1021F00047F902B05DF804EB03B07047000000003F
:1022000010B504460B4B98696162A26883689A42D4
:1022100003D82046FEF75CFC10BDFEF741FC0146EA
:10222000044B9C61012384F820302046FEF748F8D7
:10223000F2E700BF680F002000000000000000006F
:1022400010B5202383F31188FEF7D2FB044600214A
:10225000FFF7D6FF002383F31188204610BD00BF8F
:1022600010B5FEF7D5FCFEF7E3FCFEF7D9FAFEF752
:1022700037FBFEF705FBFEF783FB0B4C80220B4977
:1022800004F13000FEF794FBA0610024C461012337
:1022900080F82030FEF764FA84F3118862B60448AF
:1022A000FFF7CEFF10BD00BF680F00209433000879
:1022B000983400080000000000000000000000004A
:1022C00008B5074B996981F82000186802681A6000
:1022D00053609861012380F82030FDF7F1FF08BDBD
:1022E000680F002000000000000000000000000057
:1022F00010B50F4B9C69606204F12803A06A834209
:1023000004D00368A362FEF7E3FBF5E794F82230FC
:102310004BB994F8213013F0030F04D1626923699B
:10232000136162695A610F20FFF7CAFF10BD00BF39
:10233000680F002000000000000000000000000006
:1023400010B586B00446B1F1FF3F12D00A4B9B692D
:102350000A4A01A8FFF7E4FE2046FFF7B1FF049BFD
:1023600013B101A8FFF72CFE034B9B69586A06B016
:1023700010BDFFF7A5FFF7E7680F0020C10B0008AD
:1023800059B110B5064B9B69186042685A601360DA
:1023900043600420FFF7D4FF10BD4FF0FF307047BB
:1023A000680F002000000000000000000000000096
:1023B00008B500F00F00034B03EBC000FFF7E0FF90
:1023C00008BD00BFDC0C0020000000000000000081
:1023D00008B5202383F31188FFF7EAFF002383F376
:1023E000118808BD0000000000000000000000008F
:1023F00070B504460E461546202383F31188A36862
:102400004BB929462046FFF7BBFF0028F7DA002327
:1024100083F3118813E0A368013BA36063695A1C2E
:1024200062611E70626923699A4201D3E368636145
:10243000E3690BB120469847002080F3118870BDF6
:1024400008B53030FFF7D4FF08BD00BF0000000022
:1024500008B54FF0FF323030FFF7CAFF08BD00BFAC
:1024600038B505460C46202383F31188AB684BB979
:1024700021462846FFF784FF0028F7DA002383F37C
:10248000118813E0AB68013BAB60AA69531CAB61D8
:1024900014782A69934201D3EB68AB61EB690BB105
:1024A00028469847002383F31188204638BD00BF93
:1024B00008B50C30FFF7D4FF08BD00BF00000000D6
:1024C00008B54FF0FF310C30FFF7CAFF08BD00BF61
:1024D00008B50146202383F311880820FFF730FF59
:1024E000002383F3118808BD0000000000000000F5
:1024F00008B541F28830FFF7EBFF202383F3118802
:10250000012200211248FEF72BFD002383F31188DE
:1025100008E010491048FFF763FE10491048FFF724
:1025200017F970B90A4C4CF250312046FFF750FFB2
:10253000236913F0010FECD10A490748FFF750FE59
:10254000EBE7064BDA7808490348FFF749FEE9E76D
:10255000000802406C320008000C0020680E0020C9
:102560005C0D002090320008B0320008000000002E
:1025700030B583B00546224B1B68ADF804301B0C08
:102580008DF8063083681C680521FFF789FA07215A
:102590002846FFF785FA01212846FFF751FA284619
:1025A000FFF70EFA01AB00222E212046FFF7C8F9F3
:1025B00001AB80222F212046FFF7C2F901AB002298
:1025C00007212046FFF7BCF901AB01220621204676
:1025D000FFF7B6F901AB00221D212046FFF718F8DE
:1025E00010F0010F03D10A20FFF772FFF2E79DF808
:1025F000043085F80B3107232B7103B030BD00BFC9
:10260000543200080000000000000000000000003C
:1026100070B582B005462B4B1B68ADF804301B0C1F
:102620008DF8063083681C682046FEF7E1FF012024
:10263000FFF74EFF2046FEF7CBFF0120FFF748FFD4
:102640002046FEF7D5FF0120FFF742FF01AB8022B5
:1026500002212046FFF774F90A20FFF739FF1A4ECE
:1026600001AB002202213046FEF7D2FF01AB60220F
:1026700002212046FFF764F901ABAA22012120467E
:10268000FFF75EF901AB002201213046FEF7C0FFE3
:10269000AA2802D00F2385F80A3101AB5522012167
:1026A0002046FFF74DF901AB002201212046FEF73D
:1026B000AFFF552802D00F2385F80A319DF804009A
:1026C00002B070BD54320008AC0C002000000000C5
:1026D00070B582B0054683681C68694B1B68ADF80D
:1026E00004301B0C8DF80630FFF792FF00212846BE
:1026F000FFF7A6F901212846FFF7A2F901AB09224D
:1027000030212046FFF71CF901AB08223121204679
:10271000FFF716F905212846FFF7C2F901AB082299
:1027200010212046FFF70CF901AB002240F26111A5
:102730002046FFF705F901AB00224FF4B1712046A6
:10274000FFF7FEF801AB002240F263112046FFF7CD
:10275000F7F801AB00221D212046FEF759FF10F0CB
:10276000010F03D10A20FFF7B3FEF2E7022128464A
:10277000FDF7DEFF064601ABC2B237212046FFF768
:10278000DFF801ABC6F3072236212046FFF7D8F861
:1027900001ABC6F3074235212046FFF7D1F801AB64
:1027A000320E34212046FFF7CBF803212846FDF7EF
:1027B000BFFFC2B210F0F00F0AD142F0100201AB1D
:1027C00033212046FFF7BCF80A20FFF781FE04E022
:1027D0001822F4E70A20FFF77BFE01AB0022332129
:1027E0002046FEF715FF10F0100FF3D101AB0022C9
:1027F00033212046FEF70CFF42B205212846FDF7A3
:102800007FFF08232B7100212846FFF749F900219B
:102810002846FFF715F902212846FFF711F905218F
:102820002846FDF785FF01AB00F00F02332120465B
:10283000FEF7EEFE02212846FDF77AFF064601ABC1
:10284000C2B237212046FFF77BF801ABC6F307225F
:1028500036212046FFF774F801ABC6F30742352155
:102860002046FFF76DF801AB320E34212046FFF70A
:1028700067F804212846FFF7E3F802B070BD00BFF7
:1028800054320008000000000000000000000000BA
:1028900038B504460D468160002383734373037388
:1028A000C37380F80A3180F80B31FFF711FF2B7CDE
:1028B000032B14D8DFE803F002060A0E2046FFF7C8
:1028C00087F938BD2046FFF753FEFAE72046FFF7A9
:1028D0000FF9F6E700212046FFF7E2F8F1E720467E
:1028E000FFF776F9EDE700BF0000000000000000F0
:1028F00010B50D490D48FFF70BFA0D490D48FFF7CC
:10290000B7F90D490D48FFF7B3F910220C490D48EE
:10291000FDF796FF0C4C2046FDF7EAFE0B492046DA
:10292000FFF7B6FF10BD00BFF00B0020000C002029
:10293000303500087C0C002044350008AC0C002029
:10294000D0110020A81100205C0D002000080020FC
:102950002DE9F04104460F4615468368934200D2A4
:10296000856826696069361AB54215D3B5421BD908
:1029700032463946FDF7BAFCA5EB06084246B919BE
:10298000E068FDF7B3FCE26842446261A3685B1B48
:10299000A3602846BDE8F0812A463946FDF7A6FC2B
:1029A00063692B446361F1E72A463946FDF79EFCD3
:1029B000E3686361EAE700BF000000000000000078
:1029C0002DE9F04707460D4692469946D0F81C80FF
:1029D000202383F31188144613E049463846FFF755
:1029E000CFFC70B1002383F31188AAEB0400BDE88B
:1029F000F087002383F31188A41B3544202383F33D
:102A00001188002CEED0224629463846FFF7A0FF59
:102A100006460028E1D0B8F1000FEAD03846C0479A
:102A2000E7E700BF00000000000000000000000019
:102A300008B53030FFF7C4FF08BD00BF000000003C
:102A400008B54FF0FF333030FFF7BAFF08BD00BFC5
:102A50002DE9F04104460F4615468368934200D2A3
:102A600085682669A169761AB54215D3B5421BD986
:102A700032463846FDF73AFCA5EB06084246E168C7
:102A8000B819FDF733FCE2684244A261A3685B1BFE
:102A9000A3602846BDE8F0812A463846FDF726FCAB
:102AA000A3692B44A361F1E72A463846FDF71EFCD3
:102AB000E368A361EAE700BF000000000000000037
:102AC0002DE9F04707460D4692469946D0F81C80FE
:102AD000202383F31188144613E049463846FFF754
:102AE0004FFC70B1002383F31188AAEB0400BDE80A
:102AF000F087002383F31188A41B3544202383F33C
:102B00001188002CEED0224629463846FFF7A0FF58
:102B100006460028E1D0B8F1000FEAD03846C04799
:102B2000E7E700BF00000000000000000000000018
:102B300008B50C30FFF7C4FF08BD00BF000000005F
:102B400008B54FF0FF330C30FFF7BAFF08BD00BFE8
:102B500008B5FFF735FBFFF783FBFFF7C9FE41F22E
:102B60008830FFF7B5FCFFF7C3FC00BF0000000092
:102B7000EFF30983203383F30988002383F311885B
:102B8000704700BF000000000000000000000000CF
:102B900008B5202383F31188FFF7AAFB08BD00BF07
:102BA00010B5084CA06923681A6822605460A361BC
:102BB000012283F82020FDF773FF0146A069FDF78D
:102BC0007FFB10BD680F0020000000000000000027
:102BD00008B5FEF75DF8FEF73BFA08BD00000000FF
:102BE00008B50348FFF714F9FDF732FF08BD00BF31
:102BF000000C0020000000000000000000000000A9
:102C000008B5FFF76DFAFDF723FF08BD00000000CF
:102C100008B5084B5968890D01F03D018A05DA6055
:102C2000054BDB6F1BB1044AD2F880009847FDF7D3
:102C30000FFF08BD006402402411002000000000C6
:102C400008B5084B5968090C01F03D010A04DA6027
:102C5000054B5B6F13B1044A906F9847FDF7F8FE80
:102C600008BD00BF006402402411002000000000E5
:102C700008B5084B5968890901F03D018A01DA60FD
:102C8000054BDB6E13B1044A106F9847FDF7E0FE69
:102C900008BD00BF006402402411002000000000B5
:102CA00008B5074B596801F03D01D960054B5B6ED3
:102CB00013B1044A906E9847FDF7CAFE08BD00BFE5
:102CC0000064024024110020000000000000000009
:102CD00008B5084B1968890D01F03D018A059A6015
:102CE000054BDB6D13B1044A106E9847FDF7B0FE3B
:102CF00008BD00BF00640240241100200000000055
:102D000008B5084B1968090C01F03D010A049A60E6
:102D1000054B5B6D13B1044A906D9847FDF798FE23
:102D200008BD00BF00640240241100200000000024
:102D300008B5084B1968890901F03D018A019A60BC
:102D4000054BDB6C13B1044A106D9847FDF780FE0C
:102D500008BD00BF006402402411002000000000F4
:102D600008B5074B196801F03D019960054B5B6C94
:102D700013B1044A906C9847FDF76AFE08BD00BF86
:102D80000064024024110020000000000000000048
:102D900008B5084B5968890D01F03D018A05DA60D4
:102DA000054BDB6B13B1044A106C9847FDF750FEDE
:102DB00008BD00BF00600240241100200000000098
:102DC00008B5084B5968090C01F03D010A04DA60A6
:102DD000054B5B6B13B1044A906B9847FDF738FEC7
:102DE00008BD00BF00600240241100200000000068
:102DF00008B5084B5968890901F03D018A01DA607C
:102E0000054BDB6A13B1044A106B9847FDF720FEAF
:102E100008BD00BF00600240241100200000000037
:102E200008B5074B596801F03D01D960054B5B6A55
:102E300013B1044A906A9847FDF70AFE08BD00BF27
:102E4000006002402411002000000000000000008B
:102E500008B5084B1968890D01F03D018A059A6093
:102E6000054BDB6913B1044A106A9847FDF7F0FD82
:102E700008BD00BF006002402411002000000000D7
:102E800008B5084B1968090C01F03D010A049A6065
:102E9000054B5B6913B1044A90699847FDF7D8FD6B
:102EA00008BD00BF006002402411002000000000A7
:102EB00008B5084B1968890901F03D018A019A603B
:102EC000054BDB6813B1044A10699847FDF7C0FD54
:102ED00008BD00BF00600240241100200000000077
:102EE00008B5074B196801F03D019960054B5B6817
:102EF00013B1044A90689847FDF7AAFD08BD00BFCA
:102F000000600240241100200000000000000000CA
:102F100010B52F4B5C691A6802F47C4214405C6166
:102F200014F4806F11D114F4006F19D114F4805F80
:102F300021D114F4005F29D114F4804F31D114F45D
:102F4000004F39D1FDF784FD10BD202383F3118894
:102F500000212048FDF704FE002383F31188E2E7F7
:102F6000202383F3118800211B48FDF7F9FD00237E
:102F700083F31188DAE7202383F3118800211748AF
:102F8000FDF7EEFD002383F31188D2E7202383F3BE
:102F9000118800211248FDF7E3FD002383F3118817
:102FA000CAE7202383F3118800210E48FDF7D8FDDE
:102FB000002383F31188C2E7202383F311880021C3
:102FC0000948FDF7CDFD002383F31188BAE700BF60
:102FD000003C01402C0D0020340D00203C0D002051
:102FE000440D00204C0D0020540D00200000000076
:102FF00010B5284B5C691A6802F4787214405C6161
:1030000014F0200F0ED114F0400F16D114F0800FE1
:103010001ED114F4807F26D114F4007F2ED1FDF749
:1030200017FD10BD202383F3118800211A48FDF7F6
:1030300097FD002383F31188E5E7202383F31188AC
:1030400000211648FDF78CFD002383F31188DDE78E
:10305000202383F3118800211148FDF781FD00230F
:1030600083F31188D5E7202383F3118800210D48CD
:10307000FDF776FD002383F31188CDE7202383F34A
:10308000118800210848FDF76BFD002383F31188A8
:10309000C5E700BF003C0140040D00200C0D0020DE
:1030A000140D00201C0D0020240D00200000000045
:1030B00008B50B4A5369116801F010010B405361C8
:1030C00013B9FDF7C5FC08BD202383F31188002147
:1030D0000448FDF745FD002383F31188F1E700BFA5
:1030E000003C0140FC0C002000000000000000003B
:1030F00008B50B4A5369116801F008010B40536190
:1031000013B9FDF7A5FC08BD202383F31188002126
:103110000448FDF725FD002383F31188F1E700BF84
:10312000003C0140F40C0020000000000000000002
:1031300008B50B4A5369116801F004010B40536153
:1031400013B9FDF785FC08BD202383F31188002106
:103150000448FDF705FD002383F31188F1E700BF64
:10316000003C0140EC0C00200000000000000000CA
:1031700008B50B4A5369116801F002010B40536115
:1031800013B9FDF765FC08BD202383F311880021E6
:103190000448FDF7E5FC002383F31188F1E700BF45
:1031A000003C0140E40C0020000000000000000092
:1031B00008B50B4A5369116801F001010B405361D6
:1031C00013B9FDF745FC08BD202383F311880021C6
:1031D0000448FDF7C5FC002383F31188F1E700BF25
:1031E000003C0140DC0C002000000000000000005A
:1031F0000B4A09E0002143F8041BD1689942F9D831
:103200001032084B9A4209D210685368916899426B
:10321000F3D950F8041B43F8041BF7E7704700BFCD
:10322000B034000830350008000000000000000045
:10323000FEE700BF000000000000000000000000EA
:10324000704700BF00000000000000000000000008
:04325000704700BF04
:1032540000000000286E756C6C290000444D41206C
:103264006661696C757265000D0D20494E464F3AD2
:1032740020696E746572727570742068617070650F
:103284006E6564202A2A200D0A0000000D0D2049D5
:103294004E464F3A20696E7465727275707420746C
:1032A400696D656F75742A2A200D0A00494E464FD0
:1032B4003A205265636569766564207061636B6565
:1032C400742025640D0A000069646C650000000028
:1032D40010600240086002400000000B28600240B9
:1032E400086002400006010C406002400860024091
:1032F4000010020D58600240086002400016030EE0
:10330400706002400C6002400000040F88600240BC
:103314000C60024000060510A06002400C600240F0
:1033240000100611B86002400C6002400016072F1E
:103334001064024008640240000008382864024017
:1033440008640240000609394064024008640240EF
:1033540000100A3A586402400864024000160B3B0D
:10336400706402400C64024000000C3C886402401B
:103374000C64024000060D44A06402400C64024048
:1033840000100E45B86402400C64024000160F465B
:103394006D61696E00164030040444080C10141862
:1033A4001C20212200000000009600000000000004
:1033B40000000000A0A9912A00000000AFFFFFFF59
:1033C40005551564FFFB00000077505500A00A0066
:1033D40080000AA900000000FFFFFFFF5555555566
:1033E400FFFF00000000000099005055000000009D
:1033F40000000000FFFFFFFF5A555501FFFF0000CA
:1034040000000000000000000000000000000000B8
:10341400FFFFFFFF55555555FFFF0000000000005A
:10342400000000000000000000000000FFFFFFFF9C
:1034340055555555FFFF0000000000000000000036
:103444000000000000000000FFFFFFFF5555555528
:10345400FFFF00000000000000000000000000006A
:1034640000000000FFFFFFFF55555555FFFF00000A
:103474000000000000000000000000000000000048
:10348400FFFFFFFF50555555FFFF000000000000EF
:1034940000000000CC320008281000200011002099
:1034A40001000000610C00080000000080390008E1
:1034B4001012002010120020101200208039000881
:1034C40000000020000000200000002080390008D7
:1034D4000000000000000000000000008039000827
:1034E4000000000000000000000000008039000817
:1034F4000000000000000000000000008039000807
:1035040000000000000000000000000080390008F6
:1035140000000000000000000000000080390008E6
:103524000000000000000000000000000000000097
:103534000000000000000240040000005C020000E3
:103544000000000000000000000402400C00000025
:103554005C02000000000000412A0008412B000822
:1035640051240008C124000841240008B1240008A3
:10357400312A0008312B0008311D0008000000002A
:10358400AC0C00200008024090090020180800201C
:1035940000000000A811002000000000000000004E
:1035A400010000000100000002000000ABAA1209A3
:1035B400030000000A00000004000000980000005E
:1035C40005000000000000000600000000000000EC
:1035D4000700000000000000080000009103000044
:1035E40009000000400000000A000000390100004A
:1035F4000B000000E9FFFFFF0C00000007000000C3
:103604000D000000000000000E000000000000009B
:103614000F0000000000000010000000090000007E
:10362400110000002800000012000000000000004B
:103634001300000028000000140000007E000000B9
:103644001500000018000000160000000000000033
:103654001700000000000000180000000000000037
:1036640019000000000000001A0000000000000023
:103674001B000000FF0000001C0000000000000010
:103684001D000000150000001E00000000000000E6
:103694001F000000000000002000000020000000C7
:1036A40021000000CC00000022000000AA0000005D
:1036B40023000000CC00000024000000AA00000049
:1036C4002500000018000000260000000000000093
:1036D4002700000008000000280000003901000055
:1036E40029000000000000002A000000FF00000084
:1036F4002B000000000000002C00000080000000EF
:103704002D00000000000000C800000000000000C0
:10371400100008001100070012001400140000003B
:10372400150000001600FF001700FF002100010033
:1037340022000100230001002500010026000700EB
:103744006E0001000001020001010C0002011400DE
:103754000301000004013E00050180000601000091
:103764000701000008010000090180000A010100AE
:103774000B012F000C0100000D01A6000E01FF003B
:103784000F015A00150100001701F4002001C500C3
:10379400210184002401F8002501F2002601C30060
:1037A40027010F0028011F0029010A002A010A002D
:1037B4002B0106002C0100002D0100002F01000048
:1037C4003001C500310184003201000033010000E2
:1037D4003401F6003501F1003601C30037010F0052
:1037E40038011F0039010A003A010A003B010600B2
:1037F4003C0100003D0125003E0116003F01000090
:103804005001FF00510184005201000053010000E7
:103814005401F5005501F0005601C30057010F0093
:1038240058011F0059010D005A010D005B010600EB
:103834005C0100005D0125005E0116005F010000CF
:1038440060010200610100006201040063015E0086
:10385400640105006501000066010D0067011B009D
:103864006A0107006B0100008001990083010500D3
:1038740088010F00890177000002000001020000A6
:10388400020215000302F0001002AA001102CC008B
:103894001202AA001302CC001802550019025500A6
:1038A4001C020A001E020A0020025B0021023E00E4
:1038B4002502000026029C00280203002A021700A9
:1038C4002D02E3002F02000030020D003302390004
:1038D400300300003103000032030000000F030036
:1038E400100F0400110F00001C0F0700210F6800C7
:1038F400220FFF00230F8400260F9800340F2800A6
:10390400350F1100440F2500240003003202140077
:103914003000090131000201320024018401000158
:10392400000F0F01180F060130000B0231001002C6
:103934003200250284010002000F0F02180F020258
:1039440027020003290200033102000307020004D6
:103954000602000405020004040200040B02000431
:103964000A0200040902000408020004FF0F000018
:0C39740000C20100000000000000000084
:04000005080002B934
:00000001FF
