:020000040800F2
:1000000000040020B9020008BB020008BB0200087F
:10001000BB020008BB020008BB020008BB020008CC
:10002000BB020008BB020008BB020008E15B00083D
:10003000BB020008BB020008BB020008BB020008AC
:10004000BB020008BB020008BB020008BB0200089C
:10005000BB020008BB02000801AD0008C1AC0008EB
:1000600081AC000841AC000801AC000831AA0008CE
:1000700001AA0008D1A90008A1A9000871A90008D7
:1000800041A9000811A90008BB020008BB02000832
:10009000BB020008BB020008BB02000841AB00081D
:1000A000BB020008BB020008BB020008BB0200083C
:1000B00031B00008BB020008BB020008BB02000808
:1000C000BB020008BB020008BB020008BB0200081C
:1000D000BB020008BB02000841A70008BB020008E1
:1000E00061AA0008BB020008BB020008BB020008AE
:1000F000BB020008BB020008BB020008E1A8000820
:10010000BB020008BB020008BB020008BB020008DB
:10011000BB020008BB020008BB020008BB020008CB
:10012000B1A8000881A8000851A8000821A800086B
:10013000F1A70008BB020008BB020008BB020008D0
:10014000BB020008BB020008BB020008BB0200089B
:10015000C1A7000891A7000861A70008BB0200081A
:10016000BB020008BB020008BB020008BB0200087B
:10017000BB020008BB020008BB020008BB0200086B
:10018000BB020008BB020008BB020008BB0200085B
:10019000BB020008BB020008BB020008BB0200084B
:1001A000BB020008BB020008BB020008BB0200083B
:1001B000BB020008BB020008BB020008BB0200082B
:1001C000BB020008BB020008BB020008BB0200081B
:1001D000BB020008BB020008BB020008BB0200080B
:1001E00072B6274880F30888264880F30988264895
:1001F0004EF60851CEF200010860022080F3148808
:10020000BFF36F8F0AF05CFF0AF092FA4FF055309F
:100210001E491B4A91423CBF41F8040BFAE71C49B6
:10022000184A91423CBF41F8040BFAE719491A4AAF
:100230001A4B9A423EBF51F8040B42F8040BF8E700
:1002400000201749174A91423CBF41F8040BFAE7D6
:100250000AF006FF0AF02CFF134C144DAC4203DAEF
:1002600054F8041B8847F9E708F08AFE104C114D3A
:10027000AC4203DA54F8041B8847F9E70AF010BFD0
:1002800000040020000800200000000800000020FA
:1002900000040020E8E3000800080020100F002000
:1002A000100F002010220020E0010008E0010008EB
:1002B000E0010008E001000892E700F000F8FEE726
:1002C0002DE9F04FC1F80CD0C3689D46BDE8F08F12
:1002D000002383F311882846A047002007F090F8F8
:1002E000FEE70AF0B5F800DFFEE70000844641EAC9
:1002F000000313F003036DD1403A41D351F8043B9E
:1003000040F8043B51F8043B40F8043B51F8043BEF
:1003100040F8043B51F8043B40F8043B51F8043BDF
:1003200040F8043B51F8043B40F8043B51F8043BCF
:1003300040F8043B51F8043B40F8043B51F8043BBF
:1003400040F8043B51F8043B40F8043B51F8043BAF
:1003500040F8043B51F8043B40F8043B51F8043B9F
:1003600040F8043B51F8043B40F8043B51F8043B8F
:1003700040F8043B51F8043B40F8043B403ABDD2FE
:10038000303211D351F8043B40F8043B51F8043BA0
:1003900040F8043B51F8043B40F8043B51F8043B5F
:1003A00040F8043B103AEDD20C3205D351F8043B2F
:1003B00040F8043B043AF9D2043208D0D2071CBFFB
:1003C00011F8013B00F8013B01D30B880380604624
:1003D000704700BF082A13D38B078DD010F003039A
:1003E0008AD0C3F10403D21ADB071CBF11F8013B0A
:1003F00000F8013B80D331F8023B20F8023B7BE759
:10040000043AD9D3013A11F8013B00F8013BF9D283
:100410000B7803704B7843708B788370604670471D
:10042000A2EB0300704700BF02780B78012A28BFB7
:100430009A42F5D16DE9044540EA0104CDE902672D
:100440006FF0000C4FEA447212B380EA010414F01A
:10045000070F6AD100F0070420F0070004F003053D
:1004600021F007014FEAC505F0E8042314F0040F5A
:10047000F1E804670CFA05F462EA040266EA04068D
:100480000AD063EA0403624667EA0407664603E0AB
:10049000F0E80423F1E8046782FA4CF582EA0604E6
:1004A000A4FA8CF46CBB83FA4CF583EA0705A5FA31
:1004B0008CF595B950E9022351E9026782FA4CF5AF
:1004C00082EA0604A4FA8CF483FA4CF583EA070561
:1004D000A5FA8CF52543DBD09CB92DBAB5FA85F485
:1004E00024F0070427FA04F1DDE9026723FA04F394
:1004F00003F0FF0001F0FF01FDE80445A0EB01005F
:10050000704724BAB4FA84F424F0070426FA04F1FC
:10051000DDE9026722FA04F202F0FF0001F0FF01B8
:10052000FDE80445A0EB0100704714F0030F3CD137
:1005300010F0030428D150F8082B51F8083B82FA38
:100540004CF582EA0305A5FA8CF55DB950F8042C48
:1005500051F8043C82FA4CF582EA0305A5FA8CF5C1
:10056000002DE8D02DBAB5FA85F424F0070423FA5B
:1005700004F122FA04F202F0FF0001F0FF01FDE8AD
:100580000445A0EB010070474FEAC40420F00300CB
:1005900050F8082B21F0030151F8083B0CFA04F441
:1005A00062EA040263EA0403C9E710F003041AD004
:1005B000A1EB040120F00300E40750F8042B06D05F
:1005C0000FD28B785FFAA2F4E41A06D12BB1CB7864
:1005D0005FFAB2F4E41A00D11BB920465DF8104B63
:1005E000704701F1040150F8042BCC0721F00301FE
:1005F00051F8043B48D824D222F07F4482FA4CF5CB
:1006000094EA1325A5FA8CF50AD165B951F8043B93
:1006100084EA0204B4EB036F0ED150F8042BEBE72D
:100620004FEA132355E035F07F454DD10878FDE8BA
:100630000445C0F1000070474FEA126203F0FF0367
:1006400047E002EA1C4482FA4CF594EA1345A5FA05
:100650008CF50AD165B951F8043B84EA0204B4EB85
:10066000034F0CD150F8042BEBE74FEA134330E073
:1006700015EA1C4528D10B884FEA124229E04FEABF
:10068000124203EA1C4324E002F0FF0482FA4CF514
:1006900094EA1365A5FA8CF50AD165B951F8043BC3
:1006A00084EA0204B4EB032F09D150F8042BEBE7E2
:1006B0004FEA13630DE015F0FF0F05D10B684FEA09
:1006C000122223F07F4304E04FF00000FDE80445D0
:1006D000704712BA1BBA82FA4CF482EA0304A4FAF5
:1006E0008CF5B5FA85F402FA04F203FA04F34FEA42
:1006F0001260FDE80445A0EB1360704700000000A5
:100700000020704700000000000000000000000012
:1007100008B503681A1D02601B68984708BD00BF32
:1007200008B50268131D0360116802F10803036035
:100730005068884708BD00BF0000000000000000AE
:1007400010B503460068011D1960046800F1080235
:100750001A60406801F108021A604968A04710BD9C
:1007600038B503460268111D0160156802F10804DE
:10077000046050680C321A60496804F108021A607B
:100780006268A84738BD00BF0000000000000000FC
:1007900070B503460068011D1960066800F1080283
:1007A0001A60406801F108051D60496802F10804FB
:1007B0001C60526805F108041C606B68B04770BD8E
:1007C000704700BF000000000000000000000000B3
:1007D000014B00221A607047A81A00200000000098
:1007E000074B01221A60202383F3118862B672B688
:1007F00083F3118862B6002383F3118862B67047D1
:100800007C1A002000000000000000000000000032
:10081000202383F31188064B1B68064A934203D2B8
:10082000591C034A11601870002383F31188704724
:10083000901A0020901A0020000000000000000024
:1008400008B548694130C0B2FFF7E2FF002008BD9B
:1008500008B53020FFF7DCFF45F2AA5008BD00BF05
:1008600010B50446C0B2FFF7D3FF204610BD00BF4D
:1008700038B504460D46C0B2FFF7CAFFE8B2FFF72D
:10088000C7FF204638BD00BF000000000000000088
:1008900070B504460E461546C0B2FFF7B9FFF0B278
:1008A000FFF7B6FFE8B2FFF7B3FF204670BD00BF09
:1008B000F8B504460F4616461D46C0B2FFF7A8FF1E
:1008C000F8B2FFF7A5FFF0B2FFF7A2FFE8B2FFF71B
:1008D0009FFF2046F8BD00BF0000000000000000A0
:1008E00008B55A20FFF794FF024B01221A704AF60E
:1008F000552008BD24110020000000000000000069
:1009000008B50078FFF784FF08BD00BF00000000B5
:1009100008B54320FFF77CFF08BD00BF00000000C2
:1009200008B54220FFF774FF08BD00BF00000000BB
:1009300008B54120FFF76CFF08BD00BF00000000B4
:1009400008B50078FFF764FF08BD00BF0000000095
:1009500010B50446217831B1034B1868013403689F
:10096000DB689847F6E710BDD019002000000000B2
:1009700008B5FFF7EDFF044B186803685B680222B7
:100980000249984708BD00BFD0190020ECC20008FA
:1009900010B584B038B9124B18680368DB68302191
:1009A000984704B010BD02466C46A2B10D4BA3FBA4
:1009B0000213DB08194603EB8303A2EB4303303336
:1009C00004F8013B0A46F0E7054B18680368DB684A
:1009D00014F8011D98476B469C42F5D8E1E700BF2B
:1009E000D0190020CDCCCCCC0000000000000000CD
:1009F00038B50125494B1D604948FFF7A9FF284636
:100A0000FFF7C6FF474C2046FFF7B2FF4648FFF707
:100A10009FFF2846FFF7BCFF2046FFF7A9FF43488A
:100A2000FFF796FF2846FFF7B3FF2046FFF7A0FF2A
:100A30003F48FFF78DFF2846FFF7AAFF2046FFF744
:100A400097FF3C48FFF784FF2846FFF7A1FF2046A9
:100A5000FFF78EFF3848FFF77BFF2846FFF798FF28
:100A60002046FFF785FF3548FFF772FF2846FFF75E
:100A70008FFF2046FFF77CFF3148FFF769FF2846CC
:100A8000FFF786FF2046FFF773FF2E48FFF760FF52
:100A90002846FFF77DFF2046FFF76AFF2A48FFF749
:100AA00057FF0820FFF774FF2046FFF761FF274834
:100AB000FFF74EFF2846FFF76BFF2046FFF758FF72
:100AC0002348FFF745FF2846FFF762FF2046FFF760
:100AD0004FFF2048FFF73CFF2846FFF759FF20460D
:100AE000FFF746FF1C48FFF733FF2846FFF750FF8C
:100AF0002046FFF73DFF1948FFF72AFF2846FFF77A
:100B000047FF2046FFF734FF1548FFF721FF28462F
:100B1000FFF73EFF2046FFF72BFF38BD7C1A002071
:100B200038B5000820C5000864B5000890B5000875
:100B3000BCB50008E8B5000814B6000840B60008C7
:100B40006CB6000898B60008C4B60008F0B60008F5
:100B50001CB7000848B7000874B70008A0B7000821
:100B6000CCB70008000000000000000000000000FA
:100B700038B50125184B1D601848FFF7F9FE1848D5
:100B8000FFF7E6FE0020FFF703FF164C2046FFF7B5
:100B9000EFFE1548FFF7DCFE1448FFF7E9FE1448A6
:100BA000FFF7D6FE2846FFF7F3FE2046FFF7E0FEEC
:100BB0001048FFF7CDFE0220FFF7EAFE2046FFF7C0
:100BC000D7FE0D48FFF7C4FE0020FFF7E1FE2046E8
:100BD000FFF7CEFE38BD00BF7C1A0020F8B7000832
:100BE0002CB8000820C5000858B8000884B80008D0
:100BF0008CB80008B8B80008E4B80008000000008D
:100C000010B51C4B01221A601B48FFF7A1FE1B48C0
:100C1000FFF7AEFE1A48FFF79BFE1A48FFF7A8FE43
:100C20001948FFF795FE1948FFF7A2FE1848FFF78D
:100C30008FFE1848FFF79CFE1748FFF789FE042037
:100C4000FFF7A6FE154C2046FFF792FE1448FFF76B
:100C50007FFE0820FFF79CFE2046FFF789FE114823
:100C6000FFF776FE0820FFF793FE2046FFF780FE91
:100C700010BD00BF7C1A002010B900083CB9000864
:100C800048B9000874B9000880B90008ACB9000878
:100C9000B8B90008E4B90008FCB9000820C500088C
:100CA00028BA000854BA0008000000000000000044
:100CB00070B5334D01232B603248FFF749FE782091
:100CC000FFF766FE304C2046FFF752FE02232B60F2
:100CD0002E48FFF73DFE4420FFF75AFE2046FFF75F
:100CE00047FE03232B602A48FFF732FE1420FFF74C
:100CF0004FFE2046FFF73CFE04262E602548FFF7F6
:100D000027FE0C20FFF744FE2046FFF731FE0523A7
:100D10002B602148FFF71CFE1020FFF739FE20460C
:100D2000FFF726FE06232B601C48FFF711FE082064
:100D3000FFF72EFE2046FFF71BFE07232B60184807
:100D4000FFF706FE3046FFF723FE2046FFF710FEB2
:100D500008232B601348FFF7FBFD1420FFF718FE54
:100D60002046FFF705FE09232B600F48FFF7F0FD33
:100D70002820FFF70DFE2046FFF7FAFD70BD00BFEB
:100D80007C1A002080BA000890BA000898BA0008BF
:100D9000A8BA0008B8BA0008C8BA0008D8BA00084B
:100DA000E8BA0008F8BA000808BB00080000000014
:100DB00038B50125924B1D609248FFF7C9FD2020F0
:100DC000FFF7E6FD904C2046FFF7D2FD8F48FFF776
:100DD000BFFD42F21070FFF7DBFD2046FFF7C8FDB4
:100DE0008B48FFF7B5FD2020FFF7D2FD2046FFF727
:100DF000BFFD8848FFF7ACFD2020FFF7C9FD204666
:100E0000FFF7B6FD8448FFF7A3FD0220FFF7C0FD02
:100E10002046FFF7ADFD8148FFF79AFD0020FFF760
:100E2000B7FD2046FFF7A4FD7D48FFF791FD0020A8
:100E3000FFF7AEFD2046FFF79BFD7A48FFF788FDE0
:100E40000020FFF7A5FD2046FFF792FD7648FFF74B
:100E50007FFD2846FFF79CFD2046FFF789FD73487C
:100E6000FFF776FD2846FFF793FD2046FFF780FD4C
:100E70006F48FFF76DFD2846FFF78AFD2046FFF714
:100E800077FD6C48FFF764FD2846FFF781FD20469B
:100E9000FFF76EFD6848FFF75BFD2846FFF778FD1A
:100EA0002046FFF765FD6548FFF752FD0020FFF77C
:100EB0006FFD2046FFF75CFD6148FFF749FD2846BE
:100EC000FFF766FD2046FFF753FD5E48FFF740FD44
:100ED0000020FFF75DFD2046FFF74AFD5A48FFF767
:100EE00037FD2846FFF754FD2046FFF741FD5748E0
:100EF000FFF72EFD2846FFF74BFD2046FFF738FD94
:100F00005348FFF725FD2846FFF742FD2046FFF72F
:100F10002FFD5048FFF71CFD2846FFF739FD2046FE
:100F2000FFF726FD4C48FFF713FD2846FFF730FD7D
:100F30002046FFF71DFD4948FFF70AFD0020FFF797
:100F400027FD2046FFF714FD4548FFF701FD284621
:100F5000FFF71EFD2046FFF70BFD4248FFF7F8FCA8
:100F60000020FFF715FD2046FFF702FD3E48FFF782
:100F7000EFFC0020FFF70CFD2046FFF7F9FC3B4893
:100F8000FFF7E6FC0020FFF703FD2046FFF7F0FC2B
:100F90003748FFF7DDFC0020FFF7FAFC2046FFF79B
:100FA000E7FC3448FFF7D4FCFF20FFF7F1FC2046B4
:100FB000FFF7DEFC3048FFF7CBFC8020FFF7E8FCB2
:100FC0002046FFF7D5FC2D48FFF7C2FC0020FFF7B5
:100FD000DFFC2046FFF7CCFC2948FFF7B9FC0020D6
:100FE000FFF7D6FC2046FFF7C3FC2648FFF7B0FC0E
:100FF0000020FFF7CDFC2046FFF7BAFC38BD00BF4C
:101000007C1A002018BB000820C5000844BB00085B
:1010100070BB00089CBB0008C8BB0008F4BB0008FC
:1010200020BC00084CBC000878BC0008A4BC000828
:10103000D0BC0008FCBC000828BD000854BD000856
:1010400080BD0008ACBD0008D8BD000804BE000883
:1010500030BE00085CBE000888BE0008B4BE0008B0
:10106000E0BE00080CBF000838BF000864BF0008DD
:1010700090BF0008BCBF0008E8BF000814C000080B
:1010800040C000086CC00008000000000000000024
:1010900038B50125184B1D601848FFF769FC184842
:1010A000FFF756FC0020FFF773FC164C2046FFF7B5
:1010B0005FFC1548FFF74CFC1448FFF759FC144837
:1010C000FFF746FC0620FFF763FC2046FFF750FCC5
:1010D0001048FFF73DFC2846FFF75AFC2046FFF773
:1010E00047FC0D48FFF734FC0020FFF751FC204679
:1010F000FFF73EFC38BD00BF7C1A002098C00008F6
:101100002CB8000820C5000858B80008CCC000085A
:101110008CB80008B8B80008E4B800080000000067
:1011200010B51C4B01221A601B48FFF711FC1B482D
:10113000FFF71EFC1A48FFF70BFC1A48FFF718FCD4
:101140001948FFF705FC1948FFF712FC1848FFF78C
:10115000FFFB1848FFF70CFC1748FFF7F9FB0420CA
:10116000FFF716FC154C2046FFF702FC1448FFF76A
:10117000EFFB0820FFF70CFC2046FFF7F9FB1148B6
:10118000FFF7E6FB0820FFF703FC2046FFF7F0FB24
:1011900010BD00BF7C1A002010B900083CB900083F
:1011A00048B9000874B9000880B90008ACB9000853
:1011B000B8B90008E4B90008FCB9000820C5000867
:1011C00028BA000854BA000800000000000000001F
:1011D0000123044A1370044A1370044A106018462D
:1011E000704700BF781A0020D8190020D4190020B9
:1011F00008B10020704708B50846FFF7E9FF08BDB1
:1012000008B50120264B18602649FFF7F1FF00B111
:1012100008BD24490120FFF7EBFF0028F8D1214940
:101220000120FFF7E5FF0028F2D11E490120FFF75A
:10123000DFFF0028ECD11A4B02221A601A49012064
:10124000FFF7D6FF0028E3D116490120FFF7D0FFB2
:101250000028DDD114490120FFF7CAFF0028D7D1AB
:1012600010490120FFF7C4FF0028D1D10C4B032205
:101270001A600D490120FFF7BBFF0028C8D10949BA
:101280000120FFF7B5FF0028C2D107490120FFF771
:10129000AFFF0028BCD103490120FFF7A9FFB7E742
:1012A0007C1A0020D8C00008D4C00008000000004C
:1012B00010B500244B2C07D8074B18680368DB686F
:1012C0003D2198470134F5E7034B186803685B68D4
:1012D00002220249984710BDD0190020ECC2000834
:1012E00010B500244B2C07D8074B18680368DB683F
:1012F0002D2198470134F5E7034B186803685B68B4
:1013000002220249984710BDD0190020ECC2000803
:1013100010B5074C074B1B68A34207D9064B18684A
:101320000368DB6814F8011B9847F3E710BD00BFA2
:10133000801A0020901A0020D01900200000000020
:10134000014B024A1A607047901A0020801A002050
:1013500038B5024608460B4B0B4C24689C4208D912
:1013600013F8015B12F8014BA542F5D0FFF730FFEF
:1013700038BD13781BB9FFF7E3FF0020F8E7FFF74C
:1013800027FFF5E7801A0020901A002000000000D7
:1013900010B50446FFF7D4FF054B00221A706368AE
:1013A00003B19847E3689847A36803B1984710BD15
:1013B000781A00200000000000000000000000007B
:1013C000014B1B60704700BF60130020000000004D
:1013D000C26883689A4207DB4068D31A0133C31A94
:1013E0008B4207DC002070479B1A013B8B4203DCD9
:1013F0000020704701207047012070470000000066
:1014000083680268D25C1344013342689A4200DC6C
:101410009B1A8360704700BF0000000000000000BE
:10142000F0B40C461E4603B90E4600F10B052B46E0
:1014300006E003F8014DB7FBF2F4B6FBF2F65EB13D
:101440002746B4FBF2F102FB114101F13004392CC3
:10145000EFDD01F13704ECE7EC1A19780133017084
:101460000130013CF9D1F0BC704700BF0000000022
:1014700008B50023FFF7D4FF08BD00BF000000003F
:101480002DE9F04F87B0064689460192002705E016
:101490003368DB68304698470137A9464D4615F852
:1014A000011B00297BD02529F2D12B782D2B43D08D
:1014B0004FF0000A2B782B2B43D0002295F80080A8
:1014C000B8F1300F40D04FF020082A293ED1019BBF
:1014D000181D01901C682E2946D000236C2964D069
:1014E0004C2962D0A1F14100C0B219288CBF002064
:1014F0000120A946A1F14405342D00F2C880DFE89F
:1015000005F07FC6C6C6C67FC6C6C6C6C65BC6C60B
:10151000C6C6C69FC6C6BFC6C6C6C6C6C6C6C6C699
:10152000C65D7FC6C6C6C67FC6C6C6C6C65BC6C6BD
:10153000C669C69FC6C6BF0009F102054FF0010A81
:10154000B8E701350122B9E70135BEE7002415F8F7
:10155000011B21B3A1F13003DBB2092BBBD804EB93
:10156000840403EB4404F2E7284610F8011BB1B1F0
:101570002A2906D1019B191D01911B686978023542
:10158000ACE70023A1F13005EDB2092D0BD803EB38
:10159000830305EB430310F8011B0029F2D1384601
:1015A00007B0BDE8F08F054698E7A94619F8011B7A
:1015B0000029F4D001209DE7082242E0019B1A1D7A
:1015C00001921B688DF80C304FF0200803AD0DF12F
:1015D0000D003FE0019A111D0191156815B163B12D
:1015E000284602E0404DFAE701300278002A54D044
:1015F000013BF9D54FF020082CE047F6FF73EFE7E9
:1016000060B1019B191D0191196800290BDBAAB17A
:101610002B238DF80C300DF10D000AE0019B191DF4
:1016200001911968F1E72D238DF80C3049420DF135
:101630000D000A22FFF71CFF03AD0BE003A8F8E73B
:101640000A22F8B1019B191D0191196803A8FFF73F
:101650000FFF03ADA0EB050BB4EB0B0420D4BAF1E4
:10166000000F00D16442002C1CDBBBF1010B38D40D
:101670003368DB6815F8011B304698470137F4E7FB
:101680001022DEE7019B191D01911968DEE78DF834
:101690000C1003AD0DF10D00DCE74FF02008D9E789
:1016A0000024DCE729782D2908D03368DB6841461F
:1016B0003046984701370134F7D1D6E7B8F1300FFB
:1016C000F3D101353368DB683046984701370BF1B9
:1016D000FF3BEAE73368DB6841463046984701370D
:1016E000013C002CF6D1D9E6E4C00008000000005F
:1016F0000B461A461B688B4204D08342F9D103681B
:1017000013607047002070470000000000000000D8
:1017100010B54C6A44F008044C62C36B984710BD86
:1017200030B445680368013B8818034005EBC304E7
:1017300055F8330000E00068A04206D043699342A8
:10174000F9D103698B42F6D100E0002030BC70472C
:1017500003680B600160704700000000000000009B
:1017600008B5202383F31188FFF7F2FF002383F3EA
:10177000118808BD0000000000000000000000000B
:101780004368013B436003B1704710B51446FFF74F
:10179000AFFF01462046FFF7E3FF10BD0000000049
:1017A00008B50346006810B102681A6008BDDA681F
:1017B000002AFBD0996858689047F7E700000000BE
:1017C00008B5202383F31188FFF7EAFF002383F392
:1017D000118808BD000000000000000000000000AB
:1017E00070B506460D4614463CB129463046FFF713
:1017F000B7FF73681D44013CF6E770BD00000000B0
:1018000010B40024046041608260C36010BC704763
:1018100010B5344C01232360042233493348FFF7C9
:10182000DFFF022323600024032C0CD82F48FFF78E
:10183000C7FF2F49003818BF0120FFF7D9FC002847
:101840003BD10134F0E7274B03221A602748FFF70A
:10185000B7FF2849B0FA80F04009FFF7C9FC60BB28
:10186000204B04221A60002406E01F4901EB84018A
:101870001E48FFF775FF0134032CF6D9194B0522DA
:101880001A600024032C0BD81848FFF799FF184959
:10189000003818BF0120FFF7ABFC70B90134F1E745
:1018A000104B06221A601148FFF78AFF1149B0FA5F
:1018B00080F04009FFF79CFC00B110BD094B0722E6
:1018C0001A600A4C0C4B042211462046FFF798FF81
:1018D0002046FFF775FF0949B0FA80F04009FFF78D
:1018E00087FCEAE77C1A00203813002074080020E7
:1018F000ECC00008F8C000080107000808C1000893
:1019000008B50023042211460148FFF779FF08BDFE
:10191000740800200000000000000000000000002B
:1019200008B5002304224FF4A4710248FFF768FFB2
:1019300008BD00BF181200200000000000000000D9
:10194000024B58681B68C01A704700BF0011002086
:1019500010B4094B5C68201A49420840821A1B687F
:10196000934205D8944205D3034B5A6010BC70478C
:101970000020FBE70020F9E7001100200000000034
:1019800008B50022FFF7E4FF08BD00BF000000001B
:1019900008B5202383F31188FFF7DAFF002383F3D0
:1019A000118808BD000000000000000000000000D9
:1019B0000160C160816001EB82014160002303612D
:1019C000037500F118038361C36100F12003036212
:1019D00043627047000000000000000000000000AB
:1019E00008B5042202490348FFF7E2FF08BD00BF23
:1019F000081200204C080020000000000000000039
:101A000008B5042202490348FFF7D2FF08BD00BF12
:101A1000081200204C080020000000000000000018
:101A200008B5042202490348FFF7C2FF08BD00BF02
:101A3000081200204C0800200000000000000000F8
:101A400070B506460D46002400E001346DB125FA5C
:101A500004F313F0010FF8D00123A34025EA030596
:101A600056F8243020469847EFE770BD000000008C
:101A700008B5064B01221A6007210548FFF7E0FF71
:101A800004490548FFF764FC08BD00BF7C1A00202C
:101A9000A4D8000824C1000838C1000800000000D4
:101AA000202383F31188044B9B695A6B10435863BE
:101AB000002383F3118870474010002000000000CD
:101AC000034B9A69536B23EA000151631840704736
:101AD0004010002000000000000000000000000096
:101AE00008B5202383F31188FFF7EAFF002383F36F
:101AF000118808BD00000000000000000000000088
:101B000008B54FF0FF30FFF7EBFF024B1B60024BB5
:101B10001B6008BD080800200C0800200000000021
:101B200008B54FF0FF30FFF7DBFF08BD00000000F5
:101B300008B54FF0FF30FFF7D3FF08BD00000000ED
:101B400008B54FF0FF30FFF7CBFF08BD00000000E5
:101B500008B54FF0FF30FFF7C3FF08BD00000000DD
:101B600008B54FF0FF30FFF7BBFF08BD00000000D5
:101B7000202383F3118803461A461B68834203D04F
:101B80008B42F9D10B681360002383F311887047EF
:101B900010B4202484F3118804680C6001600548A7
:101BA000806948608A600022CA600B6182F31188F4
:101BB00010BC704740100020000000000000000032
:101BC00030B58BB02D4C246002252D4B1D604FF09D
:101BD000FF33012205A92046FFF7DAFF4FF0FF335C
:101BE0002A4669462046FFF7D3FF202383F3118856
:101BF00020682449001B18BF0120FFF7F9FA20B123
:101C0000002383F311880BB030BD002383F31188C8
:101C10001B4B03221A60194C05A92046FFF7A8FFA9
:101C2000202383F3118820681649001B18BF012068
:101C3000FFF7DEFA18B1002383F31188E3E70023EE
:101C400083F311880E4B04221A600C4C694620461F
:101C5000FFF78EFF202383F3118820680A49A042F2
:101C600014BF00200120FFF7C3FA18B9002383F343
:101C70001188C8E7002383F31188C4E7080800200F
:101C80007C1A00203CC1000848C100080000000088
:101C900000604060704700BF0000000000000000CE
:101CA00083680BB100207047044B9A698260926B85
:101CB000C2609B6998630120704700BF40100020FC
:101CC00008B5202383F31188FFF7EAFF002383F38D
:101CD000118808BD000000000000000000000000A6
:101CE000006040608160704700000000000000005C
:101CF00008B501210148FFF7F3FF08BD5413002088
:101D000008B500210148FFF7EBFF08BD5413002080
:101D100008B500210148FFF7E3FF08BD4813002084
:101D200008B500210148FFF7DBFF08BD481300207C
:101D300008B500210148FFF7D3FF08BD4813002074
:101D400008B500210148FFF7CBFF08BD481300206C
:101D500008B501210148FFF7C3FF08BD4813002063
:101D60002DE9F8430646884615461F46DDF82090C3
:101D7000099C01212430FFF7B3FF394606F13000FA
:101D8000FFF7AEFFC6F800807560B76034610A9B4C
:101D9000F3630B9B336400237361B36106F1140892
:101DA000C6F81C80C6F820802D606D60083572680A
:101DB000336802EBC302AA42F6D8012104F11800ED
:101DC000FFF78EFFF369A360C4F80C80F369DC6051
:101DD000F46100222261626101236362A2624C44C9
:101DE000013FEAD1BDE8F8830000000000000000D8
:101DF00010B5044600230C30FFF702FD00212046F9
:101E0000FFF76EFF10BD00BF0000000000000000E3
:101E100008B5042211460248FFF7EAFF08BD00BFDB
:101E2000100800200000000000000000000000007A
:101E300008B5042211460248FFF7DAFF08BD00BFCB
:101E4000100800200000000000000000000000005A
:101E5000202383F31188054B186990F82230013351
:101E600080F82230002383F311887047401000204F
:101E700030B40E4B5B680E4A516FC2680132C260CB
:101E800082689B1A5B1A8360D0E90445E41845F127
:101E90000005C0E904454268934200D943600268E6
:101EA000934200D2036030BC704700BF001000E0D6
:101EB00040100020000000000000000000000000B2
:101EC000014B5B6883607047001000E00000000079
:101ED0004FF0FF330360002343608360C360002240
:101EE0000023C0E904237047000000000000000048
:101EF000202383F3118890F8213043F0040380F805
:101F00002130002383F31188704700BF00000000D8
:101F100010B5002400E00134042C07D8044B53F81A
:101F200024000028F7D0FFF7E3FFF4E710BD00BF5F
:101F3000941A0020000000000000000000000000D3
:101F4000F8B504460F4615461E46206860B129467E
:101F5000FEF76AFA08B10834F7E76368069A314673
:101F600038469847002000E00120F8BD000000003E
:101F700010B5202383F31188094B9B69DC6B9A68A9
:101F8000A24201D0824200D29860054B9B69D8637F
:101F900008F086FA002383F31188204610BD00BFA5
:101FA00040100020000000000000000000000000C1
:101FB00070B5394B01221A60384B9A699568AC1C90
:101FC00094609B6998683649844214BF00200120C0
:101FD000FFF70EF900B170BD2F4B02221A606E1C84
:101FE0003046FFF7C5FF2F49A84214BF002001204B
:101FF000FFF7FEF80028EED1284B9B699868284926
:10200000A04214BF00200120FFF7F2F80028E2D11F
:10201000224B9B69D86B2449B04214BF0020012099
:10202000FFF7E6F80028D6D11B4B03221A60AC1844
:102030002046FFF79DFF1B49864214BF0020012068
:10204000FFF7D6F80028C6D1144B9B69986814494D
:10205000A04214BF00200120FFF7CAF80028BAD11F
:102060000E4B9B69D86B1149A04214BF0020012080
:10207000FFF7BEF80028AED1074B04221A602023D8
:1020800083F31188054B9A6995609B69DD63002392
:1020900083F311889FE700BF7C1A002040100020C6
:1020A00058C1000874C1000898C10008C0C10008E8
:1020B00070B51D4B01221A601C4B9B699D68AE18C0
:1020C0003046FFF755FF04461949A84214BF0020C7
:1020D0000120FFF78DF800B170BD144B9B69986823
:1020E0001449864214BF00200120FFF781F8002820
:1020F000F2D10D4B02221A602046FFF739FF0C493E
:10210000864214BF00200120FFF772F80028E3D1B7
:10211000064B9B6998680749854214BF002001203F
:10212000FFF766F8D8E700BF7C1A002040100020B7
:1021300074C1000858C10008000000000000000041
:1021400010B5054B01221A6008F05AFE044608F04B
:1021500057FE8442FBD010BD7C1A00200000000016
:1021600070B505460C46164608F04AFE401B641B37
:102170003146A0422CBF00200120FFF739F870BD86
:1021800008B5202383F3118808F0E2F9002383F3D4
:10219000118808BD000000000000000000000000E1
:1021A00008B50346202282F311880068834205D0D7
:1021B00002681A605360002108F0CAF9002383F313
:1021C000118808BD000000000000000000000000B1
:1021D00008B5202282F31188826801328260002AC9
:1021E00003DD002383F3118808BD034600680268FD
:1021F0001A605360002108F0ABF9F2E7000000001C
:1022000008B50346006818B100221A6008F0A0F96A
:1022100008BD00BF0000000000000000000000003A
:1022200008B5202383F31188FFF7EAFF002383F327
:10223000118808BD00000000000000000000000040
:1022400010B5074B9C69202383F31188032008F005
:1022500037F9636A002BF9D0002383F3118810BD8E
:1022600040100020000000000000000000000000FE
:1022700008B50B4B9B6953F82C2F9A420BD0084B97
:102280009B6903F12C01D86A0268DA6251600D2360
:1022900080F8203008BD0E2008F012F9EFE700BFEB
:1022A00040100020000000000000000000000000BE
:1022B00010B5202383F31188FFF7DAFF002282F3A1
:1022C0001188446A2146FFF75BFF002CF1D110BD55
:1022D00010B5202383F31188FFF7CAFF04460023BB
:1022E00083F31188436A1A6858689047014620466C
:1022F000FFF746FF10BD00BF000000000000000017
:1023000038B504460B4B9D69202383F311886B6B12
:1023100030EA030308D16B6B23EA04036B630023E9
:1023200083F31188204638BD68620B2008F0C8F896
:10233000F1E700BF40100020000000000000000096
:1023400038B504460B4B9D69202383F311886B6BD2
:10235000184007D06B6B23EA00036B63002383F301
:10236000118838BD6C620A2008F0AAF86B6B03EA8A
:102370000400EFE740100020000000000000000013
:1023800038B50D4B9D69202383F311886B6B034097
:1023900009D0584218406B6B23EA00036B6300239B
:1023A00083F3118838BD044668620A2008F088F873
:1023B0006B6B2340EDE700BF4010002000000000E1
:1023C0008368013B8360002B01DB0020704710B560
:1023D000064CA3695862186042685A6013604360F3
:1023E000052008F06DF8A369586A10BD4010002060
:1023F00010B5044604F13000FFF7E2FF216ACA6815
:102400008B689360CA68DA604A6A22F00100486209
:102410000B6A013B0B6212F0100F0CD0002383F308
:10242000118822234B62236C0122204698472023E7
:1024300083F31188DEE710F0020F05D04B680A68BD
:102440001A600B684A685A6000234B62084610BD48
:10245000F8B507460E461546202383F31188FFF78B
:102460005FF9C0B10446036A002B10DDC2688368BF
:102470009360C268DA60436A23F001034362036A2F
:10248000013B0362002383F311882046F8BD183016
:10249000FFF796FFF6E73846FFF7AAFF0446066106
:1024A00045610A2343623A68511E72190A407B68EB
:1024B00003EBC20153F832002060616053F8321020
:1024C0004C6043F83240DDE70000000000000000EF
:1024D00008B5202383F31188FFF772FF002383F3ED
:1024E000118808BD0000000000000000000000008E
:1024F00008B5064B9B6993F8213013F0040F03D104
:102500000348FFF7E5FFF4E708BD00BF40100020D7
:102510005413002000000000000000000000000034
:1025200010B5044C2046FFF7D3FF2046FFF750FEBE
:1025300010BD00BF48130020000000000000000094
:1025400010B504460348FFF7C3FF2078FEF760F993
:1025500010BD00BF48130020000000000000000074
:1025600010B5202383F31188002484F3118883F3AA
:10257000118808F04DF808F033F884F3118810BD85
:1025800008B50120254B1860202383F3118808F03B
:102590004FF8002383F3118880F001002049C0B276
:1025A000FEF726FE00B108BD02201C4B1860202358
:1025B00083F3118808F03CF8002383F3118880F03E
:1025C00001001849C0B2FEF713FE0028EBD1134BEF
:1025D00003221A60202383F31188042008F028F8CE
:1025E000002383F3118880F001000F49C0B2FEF789
:1025F000FFFD0028D7D1094B04221A60202383F362
:102600001188082008F014F8002383F3118880F063
:1026100001000649C0B2FEF7EBFDC4E77C1A0020BA
:10262000E0C10008F8C100081CC2000838C2000858
:1026300000284DD02DE9F0410E461446054643686A
:10264000013B934201DC32E0013C2746631EF35C10
:10265000202B01D1002CF7DC002C03DC27E02846DE
:10266000FEF7CEFE21462846FEF7B2FE0028F6D041
:102670006B68E8681B1A03F1FF38A04519DD2B6869
:1026800001303A4631461844FDF730FE2A68EB68BF
:10269000D4540134EB681C44EC606B689C4201DB51
:1026A000E41AEC602968EA6800238B542B61BDE8CA
:1026B000F0812B680130424631461844FDF716FE82
:1026C000A4EB080206EB08012868FDF70FFEDDE722
:1026D000704700BF00000000000000000000000084
:1026E0002DE9F843002867D00E4605468468234646
:1026F000002700E00137E968994208D02968C85CE2
:102700000130034469689942F4DC5B1AF2E7012A5C
:1027100005D0D5F810C0BC4507DC002009E02B69C6
:10272000002B4CDD023B2B61F3E74FF0FF381BE041
:102730000130A1420CD03B1A013B9C4508D02B68CC
:102740001B5D01331C446B68A342F1DCE41AEFE724
:102750002B68A1461F5DB8464FB9012A32D10CF152
:1027600001032B614FF000084046BDE8F8830CF1EF
:1027700001032B6140220021304608F07DFDE21963
:102780006B689A4208DA296804F101093A4649441B
:102790003046FDF7ABFDE7E71C1B013C296809F15A
:1027A0000109224649443046FDF7A0FD3A1B29683D
:1027B0003019FDF79BFDD7E74FF0FF38D4E74FF016
:1027C0000008D1E74FF0FF38CEE700BF000000005F
:1027D00038B50D4600B128602C68A4B10F492046D9
:1027E00008F090FE04442378222B0ED00B4920469B
:1027F00008F06CFE28602B681BB15A1C2A6000226E
:102800001A70237843B1204638BD01342221204676
:1028100008F082FD2860EEE70024F4E750C20008CB
:102820000EB400B582B003AA52F8041B0192FEF761
:1028300027FE02B05DF804EB03B070470000000013
:1028400010B504460549FFF7EBFF05492046FFF7A1
:10285000E7FF04492046FFF7E3FF10BD54C200081C
:102860006CC20008C8C200080000000000000000A0
:1028700010B5094C0949204608F0A2FA084920463B
:10288000FFF7CEFF0749084808F08AFA07490848C9
:1028900008F086FA10BD00BF100F0020D40A0020F7
:1028A000F0C20008D0DF00088C0F0020E4DF000831
:1028B000BC0F00200000000000000000000000002D
:1028C00010B5044600290DDC202383F3118808F09D
:1028D00097FA0246002383F3118805492046FFF743
:1028E0009FFF10BD034A0449FFF79AFFF9E700BFB5
:1028F00020C300080CC3000814C300080000000037
:1029000008B5012904D0054A0549FFF789FF08BD2C
:1029100012680449FFF784FFF9E700BF28C30008E5
:1029200014C3000838C300080000000000000000C5
:1029300010B582B0044600292BDC184A1849FFF76D
:102940006FFF184A18492046FFF76AFF174A1849CF
:102950002046FFF765FF174A17492046FFF760FF3B
:10296000164A17492046FFF75BFF164A16492046CC
:10297000FFF756FF154A16492046FFF751FF154B42
:102980000093154B154A16492046FFF749FF02B040
:1029900010BD144A1449FFF743FFF8E7CCC0000804
:1029A00048C30008ACB900085CC300083CB9000883
:1029B00070C3000874B9000884C30008E4B90008B3
:1029C00098C30008ACC30008D8C30008ECC30008D3
:1029D00018C4000854C400082CC4000830C40008FF
:1029E0003CC4000840C3000814C3000800000000F5
:1029F0002DE9F04F83B0884691469A4604680E460A
:102A000000273D463DE0002241465046FFF768FE64
:102A1000051E02DC00273D4633E0042346226949B7
:102A20002046FFF7FDFE68492046FFF7F9FE4246C3
:102A300066492046FFF7F4FE08EB0506EAE70122A7
:102A400041465046FFF74CFE054610B9002388F872
:102A50000030002D02DA00273D4612E00423462212
:102A600058492046FFF7DCFE57492046FFF7D8FEBD
:102A7000424656492046FFF7D3FE08EB0506EAE733
:102A8000002523689B6801220DF107012046984725
:102A9000002800F08D809DF807101B2900F08D8024
:102AA00055B15B2900F08B80002FE9D04129AAD0D5
:102AB0004229C4D00027E3E7042919D008291DD0F2
:102AC0007F291BD00D292CD00E2937D0102954D0A6
:102AD0001F29D6D909F1FF334344B342D1D9236822
:102AE000DB68204698479DF8073006F8013BC8E7A9
:102AF00037492046FFF794FE01255AE04645C0D0ED
:102B00002368DB680821204698472368DB6820217A
:102B1000204698472368DB68082120469847013EF5
:102B2000AFE72C492046FFF77BFEA6EB08024146A3
:102B30005046FFF77DFD002333703AE00122414605
:102B40005046FFF7CDFD834610B9002388F80030CA
:102B5000BBF1000F95DB042346221A492046FFF7FC
:102B60005FFE19492046FFF75BFE424617492046A3
:102B7000FFF756FE08EB0B0683E70022414650465E
:102B8000FFF7AEFDB0F1000B7FF77BAF04234622C9
:102B90000C492046FFF744FE0B492046FFF740FE54
:102BA00042460A492046FFF73BFE08EB0B0668E762
:102BB0000125284603B0BDE8F08F012561E72F46C7
:102BC0005FE700BF60C400086CC4000870C4000860
:102BD00074C40008ECC200080000000000000000FF
:102BE00038B505460C4622682AB103492846FFF746
:102BF00017FE0834F7E738BD78C40008000000006D
:102C000010B582B004460C4B1B68ADF804301E238F
:102C10008DF8063021238DF8053008F0B1F801AAAF
:102C20000321204608F08CF82378022BFCD12046A3
:102C300008F096F802B010BD34B50008000000009E
:102C400010B582B004468DF806100B0A8DF80530D9
:102C5000090C8DF8041008F093F801AA032120460E
:102C600008F06EF82378022BFCD1204608F078F8A3
:102C700002B010BD000000000000000000000000D5
:102C800038B505461446012919D123681A78302A27
:102C900025D01846302A29D00022002108F0B0FAA9
:102CA000044601461548FFF7CBFF21461448FFF7BD
:102CB000C7FF224613492846FFF7B2FD38BD124927
:102CC000FFF7AEFD11492846FFF7AAFD1049284637
:102CD000FFF7A6FD0F492846FFF7A2FDD5E7597873
:102CE000622901D01846D5E7981CD3E75B78622BA0
:102CF00001D00022D1E70222CFE700BF8C0F0020D5
:102D0000BC0F002000C500087CC40008BCC400083B
:102D1000D0C40008E8C40008000000000000000063
:102D200070B505460E46002456F8241011F47F0FA6
:102D300004D02846FFF784FF0134F5E72846FFF763
:102D40007FFF70BD000000000000000000000000D8
:102D500070B506460D460C68AC4207D008223146D5
:102D6000A01808F041FB10B12468F5E700242046C4
:102D700070BD00BF00000000000000000000000067
:102D800008B5FFF7E5FF034610B142680132426023
:102D9000184608BD00000000000000000000000010
:102DA00070B505460E461446FFF7D2FF78B92046A7
:102DB000FEF706FD044658B108222946104408F0E3
:102DC00051FB0123636033682360346000E000241A
:102DD000204670BD00000000000000000000000060
:102DE00010B50E4B9C69202383F31188616200F1BA
:102DF0002C032360036B63601C60046390F8203035
:102E00000E2B07D00C2007F05BFB606A002383F3D6
:102E1000118810BD07F06CFBF4E700BF40100020E4
:102E200010B504464121FFF7DBFF42212046FFF7A2
:102E3000D7FF43212046FFF7D3FF44212046FFF769
:102E4000CFFF10BD000000000000000000000000E7
:102E50000EB400B584B005AB53F8042B0393019274
:102E600003AB029301A9FFF7BBFF04B05DF804EBCD
:102E700003B07047000000000000000000000000E8
:102E800008B5436B1943416390F820300A2B02D0F8
:102E90000B2B08D008BD426A1142F9D000234362CF
:102EA00007F026FBF6E7436A8B43F3D1F6E700BF52
:102EB00008B5202383F31188FFF7E2FF07F0F0FA4B
:102EC000002383F3118808BD00000000000000000B
:102ED00010B504462068844208D0036823605C6013
:102EE00007F006FB6FF001034362F3E710BD00BF7C
:102EF00008B5202383F31188FFF7EAFF07F0D0FA23
:102F0000002383F3118808BD0000000000000000CA
:102F100008B503460068834206D002681A60536011
:102F20000023436207F0E4FA08BD00BF0000000080
:102F300010B5124B9C69202383F31188A36B5BB9F6
:102F400017E002681A6053609860826BDA608363EE
:102F500007F0CEFAA36B43B1A36BDA68A2631868DB
:102F60008342EED100229A60F4E7E36BA36007F09E
:102F700097FA002383F3118810BD00BF4010002092
:102F800010B50146104B9C69C368A3630268824276
:102F900017D0E06B00E0DB683BB11A689342FAD0CF
:102FA00092689042F7D21046F5E7A060086803687F
:102FB0000B6059608860836BCB60816307F098FA7F
:102FC00010BD00238360FBE74010002000000000DC
:102FD00010B50146144B9C69202383F31188C36804
:102FE000A363026882421CD0E06B00E0DB683BB167
:102FF0001A689342FAD092689042F7D21046F5E7E9
:10300000A060086803680B6059608860836BCB60C0
:10301000816307F06DFA07F043FA002383F3118808
:1030200010BD00238360F8E740100020000000007E
:1030300038B53F4B9B699C683E4B02221A603E4864
:10304000FEF73EFE3D49FEF7D3F800B138BD394BDF
:1030500003221A603848FEF733FE80F00100384939
:10306000C0B2FEF7C5F80028F0D1324B04221A6036
:10307000314D2846FFF7ACFFA8683249B0FA80F01E
:103080004009FEF7B5F80028E0D128682E49A8428B
:1030900014BF00200120FEF7ABF80028D6D1254B45
:1030A00005221A60224B9B6998682849844214BF04
:1030B00000200120FEF79CF80028C7D11D4B0622F6
:1030C0001A602846FEF7FCFD1C49FEF791F800281F
:1030D000BCD12846FEF7F4FD80F001001849C0B2CB
:1030E000FEF786F80028B1D1FFF722FFA86815493E
:1030F000B0FA80F04009FEF77BF80028A6D12868D6
:103100001149A84214BF00200120FEF771F80028E1
:103110009CD1084B07221A60054B9B6998680B49A4
:10312000844214BF00200120FEF762F88EE700BF42
:10313000401000207C1A00202C08002024C5000824
:1031400034C5000840C500084CC500085CC500082F
:1031500070B505462D4B9C698068002851D0826867
:10316000A3689A4208D2836090F82030062B16D0CC
:10317000072B2AD0002B3CD028462B461B689842B0
:1031800003D09968A2689142F8D223605A686260BD
:1031900014605C606562062007F092F970BD4268B9
:1031A0000368136042685A60466A33461B689E4251
:1031B00003D0996882689142F8D203605A684260ED
:1031C00010605860436A9868C9E7426803681360F2
:1031D00042685A60466A33461B689E4203D099682B
:1031E00082689142F8D203605A6842601060586069
:1031F000C2E742680368136042685A6007F078F9D2
:10320000BAE7AC60A36BEB60A563C7E74010002092
:1032100070B504460E4B9D69AE6B3046FFF7B0FEAD
:103220006C6221462468A14203D0A268AB689A422E
:10323000F8D22C6063686B601D606560072007F042
:103240003FF96C6A3046FFF783FF204670BD00BF30
:1032500040100020000000000000000000000000FE
:1032600008B5202383F31188FFF7D2FF002383F3EF
:10327000118808BD000000000000000000000000F0
:1032800008B5202383F31188FFF762FF002383F33F
:10329000118808BD000000000000000000000000D0
:1032A00038B50446064D2846FFF7EAFF0548FFF704
:1032B000D7FF2078FDF7ACFA2846FFF789FE38BD26
:1032C0002C08002000080020000000000000000082
:1032D00038B50446054D2846FFF7D2FF2078FDF7A4
:1032E00097FA2846FFF774FE38BD00BF3C0800205F
:1032F00038B50446054D2846FFF7C2FF2078FDF794
:1033000087FA2846FFF764FE38BD00BF2C0800206E
:1033100038B50446074D2846FFF7B2FF05F14401D2
:103320002046FFF72DFD04462846FFF751FE2046B4
:1033300038BD00BFB81000200000000000000000F1
:1033400038B50446074D2846FFF79AFF05F14001BE
:103350002046FFF715FD04462846FFF739FE2046B4
:1033600038BD00BFB81000200000000000000000C1
:1033700038B50446074D2846FFF782FF05F13C01AA
:103380002046FFF7FDFC04462846FFF721FE2046B5
:1033900038BD00BFB8100020000000000000000091
:1033A00038B50546074C2046FFF76AFF04F12C02AA
:1033B00004F128012846FEF7E3F92046FFF708FE4E
:1033C00038BD00BFB8100020000000000000000061
:1033D00038B50446074D2846FFF752FF05F128018E
:1033E0002046FFF7CDFC04462846FFF7F1FD2046B6
:1033F00038BD00BFB8100020000000000000000031
:1034000010B50648FFF7E4FF044618B905E020466A
:10341000FFF7C6FF6368002BF9D110BD74C5000823
:1034200070B504460E460B4D2846FFF729FF05F1FF
:103430002C0205F128012046FFF7B2FC044618B122
:1034400031461030FEF74CFC0248FFF7C1FD204624
:1034500070BD00BFB8100020000000000000000098
:1034600038B5474B01221A604648FFF7B1FF46497D
:10347000B0FA80F04009FDF7BBFE00B138BD404B0B
:1034800002221A6000213F48FFF7CAFF04463F4965
:10349000003818BF0120FDF7ABFE0028EED1384BF5
:1034A00003221A6000213748FFF7BAFF3849B0FA03
:1034B00080F04009FDF79CFE0028DFD1304B04224C
:1034C0001A603048FFF784FF05463249003818BFBC
:1034D0000120FDF78DFE0028D0D12F49AC4214BF4A
:1034E00000200120FDF784FE0028C7D168682A4922
:1034F000022814BF00200120FDF77AFE0028BDD16C
:103500006B6801336B6024490120FDF771FE0028D0
:10351000B4D168682049032814BF00200120FDF7BA
:1035200067FE0028AAD12846FFF73AFF68681B49C2
:10353000022814BF00200120FDF75AFE00289DD16B
:103540002846FFF72DFF60681449012814BF0020AA
:103550000120FDF74DFE002890D1094D05232B6079
:103560002046FFF71DFF06232B600648FFF730FFBC
:103570000549B0FA80F04009FDF73AFE7EE700BF4A
:103580007C1A002074C500089CC500087CC5000892
:103590008CC5000898C50008A4C50008C0C500086F
:1035A00038B50446074D2846FFF76AFE05F12401A9
:1035B0002046FFF7E5FB04462846FFF709FD2046B5
:1035C00038BD00BFB810002000000000000000005F
:1035D00038B50546074C2046FFF752FE04F11402A9
:1035E00004F110012846FEF7CBF82046FFF7F0FC67
:1035F00038BD00BFB810002000000000000000002F
:1036000038B50446074D2846FFF73AFE05F110018C
:103610002046FFF7B5FB04462846FFF7D9FC2046B5
:1036200038BD00BFB81000200000000000000000FE
:1036300010B50648FFF7E4FF044618B905E0204638
:10364000FFF7C6FF6368002BF9D110BDD4C5000891
:1036500070B504460E46094D2846FFF711FE05F1E8
:10366000140205F110012046FFF79AFB044600B151
:1036700006610248FFF7ACFC204670BDB810002080
:1036800038B5544B01221A605348FFF7B9FF53492C
:10369000B0FA80F04009FDF7ABFD00B138BD4D4BED
:1036A00002221A604E494C48FFF7D2FF04464D49AA
:1036B000003818BF0120FDF79BFD0028EED1454BD7
:1036C00003221A6048494448FFF7C2FF4749B0FA4D
:1036D00080F04009FDF78CFD0028DFD13D4B04222E
:1036E0001A603D48FFF78CFF05464149003818BF76
:1036F0000120FDF77DFD0028D0D12B6918683D49D8
:1037000045F2AA53984214BF00200120FDF770FD36
:103710000028C3D13849AC4214BF00200120FDF776
:1037200067FD0028BAD168683349022814BF002019
:103730000120FDF75DFD0028B0D16B6801336B609F
:103740002D490120FDF754FD0028A7D12B691868E9
:10375000284945F2AA53984214BF00200120FDF7E2
:1037600047FD00289AD168682349032814BF002028
:103770000120FDF73DFD002890D12846FFF728FFE6
:1037800068681E49022814BF00200120FDF730FDA3
:10379000002883D12846FFF71BFF606817490128DE
:1037A00014BF00200120FDF723FD00287FF476AF31
:1037B000084D05232B602046FFF70AFF06232B60E8
:1037C0000548FFF71DFF0549B0FA80F04009FDF7F5
:1037D0000FFD63E77C1A0020D4C500089CC50008D3
:1037E00084080020DCC5000888080020ECC500081B
:1037F00098C50008FCC50008A4C50008C0C500089D
:103800002DE9F84305460F46144600F120084046CE
:10381000FFF736FD2B699C4200D91C461B1B2B6110
:103820006E68E968761AB44215D3B4421BD93246A1
:103830003846FCF75BFDA4EB06094A462968B8192F
:10384000FCF754FD2A684A44EA604046FFF7C0FB93
:103850002046BDE8F88322463846FCF747FDEB6872
:103860002344EB60F1E722463846FCF73FFD2B6826
:10387000EB60EAE70000000000000000000000002C
:103880002DE9F84305460F46914600F120084046D1
:10389000FFF7F6FC6E682C68341B2B69E41AA1450F
:1038A00000D84C4623442B61A868361AB44215D37D
:1038B000B4421BD932463946FCF718FDA4EB060981
:1038C0004A46B9192868FCF711FD2A684A44AA60DB
:1038D0004046FFF77DFB2046BDE8F8832246394687
:1038E000FCF704FDAB682344AB60F1E722463946A0
:1038F000FCF7FCFC2B68AB60EAE700BF00000000AF
:103900002DE9F0410E461546044690B104F10C072E
:103910003846FFF7B5FC231D0022144690461B686D
:103920004BB1586808F1010804448242F7D20246BC
:10393000F5E7074CEAE70EB1E40034600DB1D200C0
:103940002A603846FFF744FB4046BDE8F08100BFDF
:10395000081100200000000000000000000000002E
:1039600030B583B0044600291DDC6A4601A9002059
:10397000FFF7C6FF0546FDF7E3FF02460C49204668
:10398000FEF74EFF2A460B492046FEF749FF019AF3
:1039900009492046FEF744FF009A08492046FEF7F1
:1039A0003FFF03B030BD064A0649FEF739FFF8E78E
:1039B00010C6000830C6000848C6000868C60008DF
:1039C0000CC6000814C3000800000000000000003E
:1039D000F8B50646A0F1080450F8087C3D1D50F8E3
:1039E000043C0733DB0840F8043C0C373846FFF74B
:1039F00047FC2B4604E01A683AB1944205D31B6891
:103A0000AB42F8D09C42FAD9F5E746F8082C1C6086
:103A100056F8041C4A1C04EBC20256F8080C8242F9
:103A200009D059684A1C03EBC20294420CD03846B4
:103A3000FFF7CEFAF8BD42681144013146F8041C84
:103A4000026846F8082CECE756F8042C11440131C2
:103A5000596056F8082C1A60E9E700BF0000000022
:103A600008B54368013B436003B108BDFDF740FE64
:103A7000FFF7AEFFF9E700BF000000000000000004
:103A800038B50546064C2046FFF7FAFB04F1440121
:103A90002846FFF7E5FF2046FFF79AFA38BD00BF3A
:103AA000B81000200000000000000000000000002E
:103AB00010B50648FFF72CFC044618B905E020466F
:103AC000FFF7DEFF6368002BF9D110BD88C6000840
:103AD00038B50546064C2046FFF7D2FB04F14001FD
:103AE0002846FFF7BDFF2046FFF772FA38BD00BF3A
:103AF000B8100020000000000000000000000000DE
:103B000010B50648FFF71CFC044618B905E020462E
:103B1000FFF7DEFF6368002BF9D110BD90C60008E7
:103B200038B50546064C2046FFF7AAFB04F13C01D8
:103B30002846FFF795FF2046FFF74AFA38BD00BF39
:103B4000B81000200000000000000000000000008D
:103B500010B50648FFF70CFC044618B905E02046EE
:103B6000FFF7DEFF6368002BF9D110BD98C600088F
:103B700038B50546064C2046FFF782FB04F12401C8
:103B80002846FFF76DFF2046FFF722FA38BD00BF39
:103B9000B81000200000000000000000000000003D
:103BA00010B50648FFF7FCFC044618B905E02046AE
:103BB000FFF7DEFF6368002BF9D110BDA0C6000837
:103BC00008B5202383F3118890F82230013B80F858
:103BD0002230036A03F0FF130F2B03D0002383F37B
:103BE000118808BD436902691A61036942695A6113
:103BF000002383F3118890F8213003F00303012B95
:103C000006D0022BEDD1C169006CFDF7A9FDE8E7F4
:103C1000C069FFF7DDFEE4E70000000000000000DF
:103C200010B5202383F311880469084B9C420BD004
:103C300094F82230013384F82230002383F3118872
:103C4000FFF7BEFF204610BD0024F6E7401000201D
:103C5000F0B587B00646002906DC1749FEF7E0FDFF
:103C6000FEF7F6F8044615E0144A1549FEF7D8FDAC
:103C700007B0F0BD0495CDF80CC0029701910090FB
:103C800010493046FEF7CCFD2046FFF7C9FF044639
:103C90000028EDD0E269E368204694F8221001394B
:103CA000A76894F820C0084D55F82CC0A569002DD0
:103CB000E0D1064DDEE700BFA8C600080CD400081E
:103CC00014C30008E8C60008F8DF000820C5000893
:103CD00038B50446202383F3118890F820300F2B49
:103CE00008D1656A002383F311882046FFF768FF37
:103CF000284638BD044B9B69826A1A60836209209A
:103D000006F0DEFBEDE700BF4010002000000000E1
:103D100010B5002400E00134042C0BD8064B53F8F6
:103D200024000028F7D0FFF7D3FF034B002243F80D
:103D30002420F0E710BD00BF941A0020000000000E
:103D400008B5FFF7E5FF08BD000000000000000017
:103D500008B5FFF7DDFF08BD00000000000000000F
:103D600008B5FFF7D5FF08BD000000000000000007
:103D70002DE9F8430F4615468046002838D0072D18
:103D800000D80825FE1DF60808F10C094846FFF783
:103D900077FA08F1040421462468002C4AD06319FC
:103DA00007336A421340083B6068421C04EBC202BE
:103DB0009A42F0D903F1080CA2EB0C024FEAE20C94
:103DC000B6EBE20FE7D89C4215D204F108029A1A2A
:103DD000D2106260B44521D9701C03EBC001ACEB7A
:103DE0000602013A4A60226843F83020216015E05B
:103DF000DFF86880C3E7B04218D0013604EBC60292
:103E0000236844F836306368013304EBC30302F1DE
:103E100008001B1ADB1053600A6023465F601C46D3
:103E200044F8088B4846FFF7D3F813E023680B608B
:103E30002346F3E74846FFF7CBF8D8F800304BB1FC
:103E400008222946F0009847044618B140F8088C2B
:103E500040F8047C2046BDE8F88300BF081100202C
:103E600010B582B0144B01221A606A4601A90020E5
:103E7000FFF746FD082210211048FFF779FF04469E
:103E80000F49003818BF0120FDF7B2F908B102B0A0
:103E900010BD2046FFF79CFD074B02221A60082246
:103EA0006FF0FF010020FFF763FF0649B0FA80F0D2
:103EB0004009FDF79DF9EAE77C1A0020DC19002093
:103EC00010C7000824C70008000000000000000020
:103ED000F0B585B0084B01221A60002202A90748FC
:103EE000FFF70EFD0649012814BF00200120FDF751
:103EF0007FF938B105B0F0BD7C1A0020DC19002034
:103F00003CC70008BD4B02221A6008224FF48071A2
:103F1000BB48FFF72DFFBB49B0FA80F04009FDF721
:103F200067F90028E6D1B54B03221A600822102158
:103F3000B348FFF71DFF0446B349003818BF0120FE
:103F4000FDF756F90028D5D12046FFF741FDAB4BD0
:103F500004221A606A4601A9A948FFF7D1FC039020
:103F6000AA49012814BF00200120FDF741F90028CB
:103F7000C0D1A74901980F2894BF00200120FDF768
:103F800037F90028B6D1A2490198009B984214BF86
:103F900000200120FDF72CF90028ABD1974B05221A
:103FA0001A60974C082210212046FFF7E1FE0746D1
:103FB000082210212046FFF7DBFE064608221021CA
:103FC0002046FFF7D5FE05463846FFF701FD30468F
:103FD000FFF7FEFC2846FFF7FBFC002203A9204662
:103FE000FFF78EFC8B49012814BF00200120FDF74C
:103FF000FFF800287FF47EAF804B06221A6008226B
:1040000010212046FFF7B4FE054608221021204665
:10401000FFF7AEFE0646082210212046FFF7A8FE55
:10402000FFF7D6FC3046FFF7D3FC2846FFF7D0FC5D
:10403000002203A92046FFF763FC7649012814BF3C
:1040400000200120FDF7D4F800287FF453AF6B4B1C
:1040500007221A60082211212046FFF789FE054633
:10406000082210212046FFF783FE06462846FFF768
:10407000AFFC002203A92046FFF742FC6649022854
:1040800014BF00200120FDF7B3F800287FF432AF01
:104090002546082210212046FFF76AFE044600222A
:1040A00003A92846FFF72CFC012840F09B80012043
:1040B0005849FDF79DF800287FF41CAF3046FFF704
:1040C00087FC2046FFF784FC002203A94C48FFF739
:1040D00017FC5049012814BF00200120FDF788F883
:1040E00000287FF407AF0824444B1C60444D22464F
:1040F00010212846FFF73CFE06462246102128469E
:10410000FFF736FE04463046FFF762FC002203A9A3
:104110002846FFF7F5FB4049022814BF0020012084
:10412000FDF766F800287FF4E5AE08222021284636
:10413000FFF71EFEFFF74CFC2046FFF749FC00226C
:1041400003A92846FFF7DCFB3249012814BF0020F1
:104150000120FDF74DF800287FF4CCAE274B092253
:104160001A60002203A92846FFF7CAFB0822039918
:104170002846FFF7FDFD04462349003818BF0120FB
:10418000FDF736F800287FF4B5AE00221146284628
:10419000FFF7B6FB2149B0FA80F04009FDF728F897
:1041A00000287FF4A7AE2046FFF712FC134B0A222B
:1041B0001A60002203A92846FFF7A2FB154901282F
:1041C00014BF00200120FDF713F800287FF492AE01
:1041D00013490398029B984214BF00200120FDF769
:1041E00007F887E6002203A92846FFF789FB022883
:1041F00001D000205CE701205AE700BF7C1A0020B4
:10420000DC19002024C7000810C700084CC70008AC
:1042100060C700083CC7000878C7000888C70008C6
:1042200094C700080000000000000000000000002B
:1042300070B505460E461446FEF78AFD80B9082281
:104240002146FFF795FD044658B10822294610443F
:1042500007F008F90123636033682360346000E0ED
:104260000024204670BD00BF0000000000000000D8
:1042700070B505460C460C4E3046FFF701F804F1C8
:104280000E02920006F13C012846FFF7D1FF0546D9
:1042900028B1224600F138011030FDF789FB0248B1
:1042A000FEF796FE284670BDB81000200000000002
:1042B00038B5474B01221A604648FFF759F846497E
:1042C000B0FA80F04009FCF793FF00B138BD404BD5
:1042D00002221A6010213F48FFF7CAFF04463F49F7
:1042E000003818BF0120FCF783FF0028EED1384BBF
:1042F00003221A6010213748FFF7BAFF3849B0FA95
:1043000080F04009FCF774FF0028DFD1304B042215
:104310001A603048FFF72CF805463249003818BFBC
:104320000120FCF765FF0028D0D12F49AC4214BF13
:1043300000200120FCF75CFF0028C7D168682A49EB
:10434000022814BF00200120FCF752FF0028BDD135
:104350006B6801336B6024490120FCF749FF00289A
:10436000B4D168682049032814BF00200120FCF75D
:104370003FFF0028AAD12846FFF7D2FB68681B49F7
:10438000022814BF00200120FCF732FF00289DD135
:104390002846FFF7C5FB60681449012814BF0020B8
:1043A0000120FCF725FF002890D1094D05232B6043
:1043B0002046FFF7B5FB06232B600648FEF7D8FF23
:1043C0000549B0FA80F04009FCF712FF7EE700BF14
:1043D0007C1A002098C600089CC500087CC500080F
:1043E0008CC5000898C50008A4C50008C0C5000811
:1043F00070B505460C460B4E3046FEF741FF22468F
:1044000006F124012846FFF713FF054620B1224696
:104410000021103006F030FF0248FEF7D9FD284693
:1044200070BD00BFB81000200000000000000000B8
:1044300038B5474B01221A604648FFF7B1F84649A4
:10444000B0FA80F04009FCF7D3FE00B138BD404B14
:1044500002221A6080213F48FFF7CAFF04463F4905
:10446000003818BF0120FCF7C3FE0028EED1384BFE
:1044700003221A6080213748FFF7BAFF3849B0FAA3
:1044800080F04009FCF7B4FE0028DFD1304B042255
:104490001A603048FFF784F805463249003818BFE3
:1044A0000120FCF7A5FE0028D0D12F49AC4214BF53
:1044B00000200120FCF79CFE0028C7D168682A492B
:1044C000022814BF00200120FCF792FE0028BDD175
:1044D0006B6801336B6024490120FCF789FE0028DA
:1044E000B4D168682049032814BF00200120FCF7DC
:1044F0007FFE0028AAD12846FFF73AFB68681B49CF
:10450000022814BF00200120FCF772FE00289DD174
:104510002846FFF72DFB60681449012814BF0020CE
:104520000120FCF765FE002890D1094D05232B6082
:104530002046FFF71DFB06232B600648FFF730F8E7
:104540000549B0FA80F04009FCF752FE7EE700BF53
:104550007C1A0020A0C600089CC500087CC5000885
:104560008CC5000898C50008A4C50008C0C500088F
:1045700038B50C46202282F31188826801328260AD
:10458000002A0BDDA368013BA360002B10DB05F0C4
:1045900087FF0020002383F3118838BD034600689D
:1045A00002681A60536005F0A3FF00234362E9E745
:1045B000064B9D692C6063686B601D6065606C6272
:1045C000052005F07DFF686AE4E700BF4010002089
:1045D00038B505460C4600E0013C002C0DDDAB680B
:1045E0000133AB60002BF7DC286803682B605D604B
:1045F00005F07EFF00234362EEE738BD00000000B7
:10460000826801328260002A00DD704708B50346E7
:10461000006802681A6053600023436205F068FF77
:1046200008BD00BF00000000000000000000000006
:1046300008B5202383F311888368002B05DD05F07E
:104640002FFF002383F3118808BDFFF7D9FFF6E79A
:1046500010B50C460B6A002B1CDB4B6A13F0080FDD
:1046600021D04A680B6813604A685A60036ACB60BD
:1046700000F114038B60036A9960016200230B61EF
:104680004B6101234B623030FFF7BAFF236A0133DD
:10469000236210BD4B6A03F01A034B6201F118004C
:1046A000FFF7AEFFF5E713F0200F0ED1C3698B6063
:1046B00000F11403CB60C369D960C161636A03F080
:1046C000120343F001036362DDE7036ACB6000F18C
:1046D00014038B60036A99600162EFE70000000039
:1046E00030B585B0A44C01232360A44B0393A44BA5
:1046F0000293A44B01933C2300930423A24A082174
:10470000A248FDF72DFB022323600025072D23D8A7
:104710002A4600219D48FDF79BFE0446406A9C49BD
:10472000C0F34000FCF764FD002861D1606A99493C
:10473000C0F3C000FCF75CFD002859D1202383F3AF
:10474000118821469148FFF783FF05F0A9FE002359
:1047500083F311880135D9E78F499048FCF7F8FDBC
:10476000002845D1844B03221A6000250CE0202349
:1047700083F3118821468548FFF76AFF05F090FE14
:10478000002383F311880135072D33D82A460021F1
:104790007E48FDF75DFE0446406A7D49C0F3400057
:1047A000FCF726FD20BB606A7D49C0F3C000FCF722
:1047B0001FFDE8B9002221467448FCF7A9FF80F0EC
:1047C00001007849C0B2FCF713FD88B9606A7049EE
:1047D000C0F34000FCF70CFD50B9606AC00880F0DF
:1047E0000100714900F00100FCF702FD0028BED075
:1047F00005B030BD68496D48FCF7AAFD0028F7D127
:104800005D4B04221A6000250CE0202383F31188FD
:1048100021465E48FFF71CFF05F042FE002383F3AC
:1048200011880135072D3CD82A4600215748FDF74D
:104830000FFE0446406A5649C0F34000FCF7D8FC1E
:104840000028D5D1606A5649C0F3C000FCF7D0FCFF
:104850000028CDD1012221464C48FCF759FF80F0B9
:1048600001005049C0B2FCF7C3FC0028C0D12A4661
:1048700000214648FDF7ECFD0446406A4449C0F378
:104880004000FCF7B5FC0028B2D1606AC00880F097
:104890000100454900F00100FCF7AAFC0028B4D053
:1048A000A6E73D494148FCF753FD0028A0D1324B13
:1048B00005221A600425072D26D82A4600213348F0
:1048C000FDF7C6FD0446406A3149C0F34000FCF7DD
:1048D0008FFC00288CD1636ADB0883F00100324929
:1048E00000F00100FCF784FC002881D1202383F331
:1048F000118821462548FFF7ABFE05F0D1FD0023C6
:1049000083F311880135D6E723492448FCF720FDBD
:1049100000287FF46DAF184B06221A600025032D86
:1049200025D82A4600211948FDF792FD0446406A21
:104930001749C0F34000FCF75BFC00287FF458AF38
:10494000606A1749C0F3C000FCF752FC00287FF4EE
:104950004FAF202383F3118821460C48FFF778FEE0
:1049600005F09EFD002383F311880135D7E70A493E
:104970000A48FCF7EDFC3BE77C1A002041080008E0
:10498000B14900084812002028110020FC0F002027
:10499000A4C70008B0C70008C8C7000820C50008A1
:1049A000F0C70008DCC70008ECC70008F8C700081B
:1049B00070B506460C4615464B696133D8B2FBF715
:1049C00027FF636A23F0080363620DB9002070BDFE
:1049D000202383F3118821463046FFF739FE05F086
:1049E0005FFD002383F31188F0E700BF00000000A3
:1049F00010B50446202383F311880C30FCF7A8FE81
:104A00002046FFF7FDFD05F04BFD002383F31188E1
:104A100010BD00BF0000000000000000000000000A
:104A200070B506460D4614463CB129463046FFF7A0
:104A3000DFFF33691D44013CF6E770BD0000000054
:104A40002DE9F84306460D4614461F46DFF85C8004
:104A50004046FEF715FC04F1150205FB04F303EBD9
:104A6000820208F140013046FFF7E2FB0646B0B192
:104A700000F1540800F1100308EB84093A46294676
:104A80001D461846FDF7B4F9224649462846FFF769
:104A9000C7FF2246414606F12C00FCF789FF034878
:104AA000FEF796FA3046BDE8F88300BFB810002044
:104AB00038B5494B01221A604848FEF741FC484985
:104AC000B0FA80F04009FCF793FB00B138BD424BCF
:104AD00002221A600423102211464048FFF7B0FF5B
:104AE00004464049003818BF0120FCF781FB00282C
:104AF000ECD1394B03221A600423102211463748A7
:104B0000FFF79EFF3849B0FA80F04009FCF770FBD0
:104B10000028DBD1304B04221A603048FEF710FC2D
:104B200005463249003818BF0120FCF761FB002818
:104B3000CCD12F49AC4214BF00200120FCF758FB18
:104B40000028C3D168682A49022814BF0020012028
:104B5000FCF74EFB0028B9D16B6801336B60244928
:104B60000120FCF745FB0028B0D1686820490328E4
:104B700014BF00200120FCF73BFB0028A6D12846EB
:104B8000FEF7A6FF68681B49022814BF0020012019
:104B9000FCF72EFB002899D12846FEF799FF6068A4
:104BA0001449012814BF00200120FCF721FB002834
:104BB0008CD1094D05232B602046FEF789FF062383
:104BC0002B600648FEF7BCFB0549B0FA80F04009AF
:104BD000FCF70EFB7AE700BF7C1A002090C60008A5
:104BE0009CC500087CC500088CC5000898C5000855
:104BF000A4C50008C0C500080000000000000000B7
:104C000070B504461646856881600135002D07DCC5
:104C10006068436863601C6005F06AFC4662F4E704
:104C200070BD00BF00000000000000000000000098
:104C300008B5202383F31188FFF7E2FF05F030FC6D
:104C4000002383F3118808BD00000000000000006D
:104C500038B52D4B01221A602C4D2846FDF738FC43
:104C60000446202383F31188A8682949B0FA80F00C
:104C70004009FCF7BDFA18B1002383F3118838BD51
:104C8000002383F311882349B4FA84F04009FCF728
:104C9000AFFA0028F3D11C4B02221A601B4C2046AD
:104CA000FDF796FA202383F31188A068184901289C
:104CB00014BF00200120FCF79BFA18B1002383F3F6
:104CC0001188DCE7002383F311880F4B03221A605D
:104CD0000E4C6FF0010202212046FFF7A9FF2023AE
:104CE00083F31188A0680A49022814BF002001201C
:104CF000FCF77EFA18B9002383F31188BFE700237D
:104D000083F31188BBE700BF7C1A00204813002002
:104D100004C8000818C800080000000000000000D7
:104D200008B56FF0010200210148FFF781FF08BDBF
:104D300048130020000000000000000000000000F8
:104D400010B50F4B9C69606204F12803A06A83428E
:104D500004D00368A36205F0CBFBF5E794F822309A
:104D60004BB994F8213013F0030F04D16269236921
:104D7000136162695A610F2005F0A2FB10BD00BFEC
:104D800040100020000000000000000000000000B3
:104D900038B50446104B9D69202383F311886B6B53
:104DA00030EA03030BD021B9002383F311880846AE
:104DB0000DE068620B2006F0BBF8002808DB6B6B87
:104DC00023EA04036B63002383F31188204638BD74
:104DD000002080F31188FAE7401000200000000056
:104DE00070B5124B9E69202383F31188746B0440C5
:104DF0000ED1054621B9002383F311880C460EE03D
:104E000070620A2006F094F800280ADB746B2C40CC
:104E1000736B23EA04037363002383F31188204632
:104E200070BD002383F31188F9E700BF4010002014
:104E300070B5134B9E69202383F31188746B044073
:104E40000ED1054621B9002383F311880C4610E0EA
:104E500070620A2006F06CF800280CDB746B2C40A2
:104E600063421C40736B23EA04037363002383F3E0
:104E70001188204670BD002383F31188F9E700BF35
:104E800040100020000000000000000000000000B2
:104E900008B52B4B01221A6000214FF0FF30FFF7BD
:104EA000C7FF2849B0FA80F04009FCF7A1F900B12A
:104EB00008BD00214FF0FF30FFF792FF2149B0FA03
:104EC00080F04009FCF794F90028F1D100214FF05F
:104ED000FF30FFF75DFF1B49B0FA80F04009FCF797
:104EE00087F90028E4D1164B02221A604FF4FA71B8
:104EF0004FF0FF30FFF79CFF1249B0FA80F04009F5
:104F0000FCF776F90028D3D14FF4FA714FF0FF3057
:104F1000FFF766FF0B49B0FA80F04009FCF768F92B
:104F20000028C5D14FF4FA714FF0FF30FFF730FF82
:104F30000449B0FA80F04009FCF75AF9B8E700BF1D
:104F40007C1A002030C800080000000000000000AB
:104F50002DE9F04104468846114DAB699F6B3846F8
:104F6000FEF70EF8AD696C6226462468A64203D0AF
:104F7000A268AB689A42F8D22C6063686B601D60CF
:104F800065604146072005F0D3FF0446B0F1FF3FBE
:104F900002D12046BDE8F0813846FEF7D9F8F8E79F
:104FA0004010002000000000000000000000000091
:104FB00008B5202383F31188FFF7CAFF002383F38A
:104FC000118808BD00000000000000000000000083
:104FD00070B504460B4D2846FEF752F90A4E30468E
:104FE000FEF74EF94FF0FF310848FFF7E1FF207858
:104FF000FBF70EFC3046FDF7EBFF2846FDF7E8FF18
:1050000070BD00BF3C0800202C08002000080020D4
:1050100008B58268531E8360002B01DB002008BDA9
:1050200059B1084B9B695862186042685A60136016
:105030004360052005F07CFFF1E782604FF0FF3010
:10504000EDE700BF4010002000000000000000005D
:1050500010B50446FFF7DCFF20B904F10C00FCF7A3
:105060009FFB10BD0020FCE70000000000000000D6
:1050700008B5202383F31188FFF7EAFF002383F3A9
:10508000118808BD000000000000000000000000C2
:1050900008B5074B01221A604FF47A710548FFF7F3
:1050A000E7FF0549B0FA80F04009FCF7A1F808BD18
:1050B0007C1A002010080020F8C000080000000042
:1050C00010B52C4C0123236004222B492B48FFF7F9
:1050D000A7FC022323600024032C0DD800212748BD
:1050E000FFF7C6FF2649003818BF0120FCF780F8FB
:1050F00000283DD10134EFE71E4B03221A60002146
:105100001E48FFF7B5FF1F49B0FA80F04009FCF7D1
:105110006FF868BB174B04221A60002406E016499A
:1051200001EB84011548FFF763FC0134032CF6D929
:10513000104B05221A600024032C0CD800210F48C4
:10514000FFF796FF0E49003818BF0120FCF750F812
:1051500070B90134F0E7074B06221A6000210748B6
:10516000FFF786FF0749B0FA80F04009FCF740F8E6
:1051700010BD00BF7C1A002038130020100800204A
:10518000ECC00008F8C000080000000000000000AB
:1051900008B5202383F31188FFF73AFF002383F338
:1051A000118808BD000000000000000000000000A1
:1051B00008B5064B9B6929B103605862032005F0CE
:1051C000B7FE08BD4FF0FF30FBE700BF40100020E6
:1051D0002DE9F8439846037D13B10020BDE8F8831C
:1051E00005460E46174600F140094846FEF748F8C6
:1051F0003C4606E0241A0644002105F11800FDF79C
:105200000FF89CB1224631462846FEF7F9FA0028ED
:10521000F0D1202383F31188414605F11C00FFF7EC
:10522000C7FF002383F311880028EAD04846FDF722
:10523000CFFE381BD2E700BF0000000000000000D6
:105240002DE9F8439846037D13B10020BDE8F883AB
:1052500005460E46174600F130094846FEF710F89D
:105260003C4606E0241A0644002105F11C00FCF728
:10527000D7FF9CB1224631462846FEF701FB0028A5
:10528000F0D1202383F31188414605F11800FFF780
:105290008FFF002383F311880028EAD04846FDF7EA
:1052A00097FE381BD2E700BF00000000000000009E
:1052B00000B585B0284B01221A60002310226946F0
:1052C0002648FFF785FF2649B0FA80F04009FBF732
:1052D0008FFF48B9214B1A68DB68934207D0002042
:1052E0002049FBF785FF70B105B05DF804FB1B4B4F
:1052F0009B689A4201D00020F2E7184B1B69002BF3
:10530000EED10120ECE7144B02221A600023102298
:1053100015491248FFF794FF1149082814BF0020CF
:105320000120FBF765FF0028DED10C4B9A68DB6893
:10533000934204D000200B49FBF75AFFD4E7074BF8
:105340001B689A4201D00020F5E7044B1B69082B2B
:10535000F1D10120EFE700BF7C1A00208C0800206B
:1053600040C800084CC8000804DB0008000000002A
:1053700010B50446202383F3118805F041FD211A5E
:1053800003D1002383F3118810BD082005F0D0FD60
:10539000F7E700BF00000000000000000000000070
:1053A00008B50146202383F31188082005F0C0FDCD
:1053B000002383F3118808BD0000000000000000F6
:1053C00008B541F28830FFF7EBFF0D4D2846FDF799
:1053D00017FC0C4C0C492046FDF722FA41F28830AC
:1053E000FFF7DEFF09492846FDF79AFC08492046E9
:1053F000FDF716FA4CF25031064805F0F1FCF9E7DA
:105400008C0F0020100F002060C80008DC0800206E
:1054100074C80008000802400000000000000000FE
:1054200008B5C0B2FBF7F4F96420FFF7B9FF08BD77
:1054300010B504464FF4FA70FFF7B2FF0121204681
:10544000FDF736FD10BD00BF0000000000000000A9
:1054500010B54FF4FA70FFF7A3FF044C2046FDF798
:105460000FFF2046FDF7B4FD10BD00BF2C08002043
:1054700010B540F2DC50FFF793FF202383F311882F
:10548000064C2046FDF764FE2046FDF779FD05F049
:1054900007F8002383F3118810BD00BF3C080020EB
:1054A00008B54FF4FA70FFF77BFF202383F31188D0
:1054B0000448FFF7A5F804F0F3FF002383F31188F5
:1054C00008BD00BF481300200000000000000000DD
:1054D00038B52F4B01221A6005F092FC0446642077
:1054E000FFF75EFF2B4A04F1670104F16400FCF74B
:1054F00037FE00B138BD264B02221A6005F080FC51
:1055000004464FF47A70FFF74BFF224A04F2EB3166
:1055100004F57A70FCF724FE0028EBD11C4B032223
:105520001A6005F06DFC04464FF47A70FFF738FFFF
:10553000184A04F2EB3104F57A70FCF711FE0028EA
:10554000D8D1134B04221A6005F05AFC044642F2EB
:105550001070FFF725FF0F4A04F51C51133104F5B5
:105560001C501030FCF7FCFD0028C3D1084B05226D
:105570001A6005F045FC044600F164052846FFF773
:10558000F7FE044A04F167012846FCF7E9FDB1E79C
:105590007C1A00209CC800080000000000000000E9
:1055A00010B586B02E4C0123236005F031F805F0CC
:1055B00017F802232360202383F3118805F028F8CD
:1055C00005F00EF8002383F3118803232360EFF323
:1055D000118313B9202383F31188EFF3118313B9D7
:1055E000202383F31188002383F311881C4B0422AA
:1055F0001A60202383F31188EFF3118313B1002382
:1056000083F31188EFF3118313B1002383F311881F
:10561000134B05221A6000230493202383F311887F
:10562000049B13B101A805F0F3FB00230D4A0121EF
:1056300001A805F035FC002484F311880A20FFF747
:10564000AFFE202383F31188049884F31188064960
:10565000B0FA80F04009FBF7CBFD06B010BD00BFEB
:105660007C1A002061250008B0C800080000000076
:1056700008B50120FFF794FE202383F3118805F07D
:10568000BFFB002383F3118808BD00BF00000000AA
:1056900070B51A4B01221A60FFF7EAFF0646002593
:1056A000174C2046FDF7ECFD2046FDF791FC204607
:1056B000FDF7E6FD2046FDF78BFC2046FDF7E0FDFB
:1056C0002046FDF785FC2046FDF7DAFD2046FDF774
:1056D0007FFC013505F094FB801B42F20F7398426A
:1056E000DED9064B02221A600648FBF731F9A80002
:1056F000FBF74EF90448FBF73BF970BD7C1A00201C
:1057000038120020C4C80008D4C8000800000000F7
:1057100070B51A4B01221A60FFF7AAFF0646002552
:10572000174C2046FCF7D4FE2046FCF751FD2046DE
:10573000FCF7CEFE2046FCF74BFD2046FCF7C8FEEA
:105740002046FCF745FD2046FCF7C2FE2046FCF74C
:105750003FFD013505F054FB801B42F20F73984268
:10576000DED9064B02221A600648FBF7F1F8A800C2
:10577000FBF70EF90448FBF7FBF870BD7C1A00201C
:1057800054130020C4C80008E4C80008000000004A
:105790002DE9F0411C4B01221A60FFF769FF80469A
:1057A0000027202383F31188184E194D0023324619
:1057B0000121284605F074FB164C0023324642F2C4
:1057C0001071204605F06CFB284605F021FB2046B1
:1057D00005F01EFB002383F31188013705F010FB51
:1057E000A0EB080042F20F739842DAD9064B02226E
:1057F0001A600948FBF7ACF87800FBF7C9F80748CE
:10580000FBF7B6F8BDE8F0817C1A0020C10700085C
:10581000AC1A0020C01A0020C4C80008F4C8000850
:1058200070B50546FFF724FF0646002401212846EF
:10583000FDF7D6FA013405F0E3FA801B42F20F734C
:105840009842F3D900212846FDF7CAFA204670BDD8
:105850002DE9F8430D46704B18607048FBF788F847
:105860002B68002B72D06E48FBF772F82868FBF7A4
:105870007FF86C4C2046FBF77BF86B48FBF768F829
:105880006A48FBF775F86A48FBF762F86948FBF766
:105890006FF86948FBF75CF86848FBF769F8204641
:1058A000FBF766F86648FBF753F86648664BC01A84
:1058B000FBF76EF8654C2046FBF75AF86448FBF797
:1058C00047F86448644BC01AFBF762F82046FBF7C0
:1058D0004FF86248FBF73CF86148624BC01AFBF78F
:1058E00057F82046FBF744F85F48FBF731F85F486C
:1058F0005F4BC01AFBF74CF82046FBF739F84748D6
:10590000FBF736F84FF000095A4B83F800906B68AC
:105910004FEA890653F82930002B67D0FBF7C8FC03
:105920005548FBF715F809F10109C8464846FBF749
:105930002FF85248FBF70CF86B689B591868FBF777
:1059400007F84F48FBF714F8002406E04D48FBF732
:105950000FF88EE74C48FBF70BF86B689B595B68B8
:10596000A70053F82430002BD1D0FBF7B9FC4748EF
:10597000FAF7EEFF4046FBF70BF84548FAF7E8FF69
:1059800001342046FBF704F83C48FAF7E1FF6B6866
:105990009B595B68DB591868FAF7DAFF3848FAF761
:1059A000E7FF4FF4FA60FFF7FBFC6B689B595B68FD
:1059B000D859FBF7EDFC374B1B78002BCAD0364883
:1059C000FAF7C6FF354B1868FAF7E2FF3448FAF7E2
:1059D000BFFFFBF79DFC3348FAF7BAFF324B18685C
:1059E000FAF7B6FF3148FAF7C3FFB6E7FBF778FCE2
:1059F0000A48FAF7BDFF2E48FAF7AAFF1D4B1B789D
:105A000033B12C48FAF7B4FF1A4B1878BDE8F88385
:105A10002948FAF7ADFFF7E7D019002020C50008A4
:105A200000C9000818C900081CC9000830C90008CE
:105A300048C90008ACC300085CC90008ECC30008F2
:105A400070C9000834B50008E001000890BA0008E9
:105A500084C90008E8E3000834B5000898C90008C4
:105A6000100F002000080020ACC900081022002000
:105A7000100F0020D8190020C0C90008D4C90008A0
:105A8000D8C9000808C9000814CA0008DCC9000801
:105A9000ECC90008781A0020F0C900087C1A002020
:105AA00008CA00080CCA0008D419002010CA00084F
:105AB00028CA000838CA000820CA000800000000F0
:105AC00008B50249FFF7C4FE08BD00BF48DF000863
:105AD00008B50249FFF7BCFE08BD00BFD4DA0008D4
