:020000040800F2
:1000000000040020B9020008BB020008BB0200087F
:10001000BB020008BB020008BB020008BB020008CC
:10002000BB020008BB020008BB020008617B00089D
:10003000BB020008BB020008BB020008BB020008AC
:10004000BB020008BB020008BB020008BB0200089C
:10005000BB020008BB02000801AE0008C1AD0008E9
:1000600081AD000841AD000801AD000831AB0008CA
:1000700001AB0008D1AA0008A1AA000871AA0008D3
:1000800041AA000811AA0008BB020008BB02000830
:10009000BB020008BB020008BB02000841AC00081C
:1000A000BB020008BB020008BB020008BB0200083C
:1000B00031B10008BB020008BB020008BB02000807
:1000C000BB020008BB020008BB020008BB0200081C
:1000D000BB020008BB02000841A80008BB020008E0
:1000E00061AB0008BB020008BB020008BB020008AD
:1000F000BB020008BB020008BB020008E1A900081F
:10010000BB020008BB020008BB020008BB020008DB
:10011000BB020008BB020008BB020008BB020008CB
:10012000B1A9000881A9000851A9000821A9000867
:10013000F1A80008BB020008BB020008BB020008CF
:10014000BB020008BB020008BB020008BB0200089B
:10015000C1A8000891A8000861A80008BB02000817
:10016000BB020008BB020008BB020008BB0200087B
:10017000BB020008BB020008BB020008BB0200086B
:10018000BB020008BB020008BB020008BB0200085B
:10019000BB020008BB020008BB020008BB0200084B
:1001A000BB020008BB020008BB020008BB0200083B
:1001B000BB020008BB020008BB020008BB0200082B
:1001C000BB020008BB020008BB020008BB0200081B
:1001D000BB020008BB020008BB020008BB0200080B
:1001E00072B6274880F30888264880F30988264895
:1001F0004EF60851CEF200010860022080F3148808
:10020000BFF36F8F0AF0DCFF0AF012FB4FF055309E
:100210001E491B4A91423CBF41F8040BFAE71C49B6
:10022000184A91423CBF41F8040BFAE719491A4AAF
:100230001A4B9A423EBF51F8040B42F8040BF8E700
:1002400000201749174A91423CBF41F8040BFAE7D6
:100250000AF086FF0AF0ACFF134C144DAC4203DAEF
:1002600054F8041B8847F9E707F002FC104C114DC5
:10027000AC4203DA54F8041B8847F9E70AF090BF50
:1002800000040020000800200000000800000020FA
:1002900000040020B0E6000800080020E818002054
:1002A000E8180020E82B0020E0010008E001000829
:1002B000E0010008E001000892E700F000F8FEE726
:1002C0002DE9F04FC1F80CD0C3689D46BDE8F08F12
:1002D000002383F311882846A047002009F0F0F896
:1002E000FEE70AF025F900DFFEE70000844641EA58
:1002F000000313F003036DD1403A41D351F8043B9E
:1003000040F8043B51F8043B40F8043B51F8043BEF
:1003100040F8043B51F8043B40F8043B51F8043BDF
:1003200040F8043B51F8043B40F8043B51F8043BCF
:1003300040F8043B51F8043B40F8043B51F8043BBF
:1003400040F8043B51F8043B40F8043B51F8043BAF
:1003500040F8043B51F8043B40F8043B51F8043B9F
:1003600040F8043B51F8043B40F8043B51F8043B8F
:1003700040F8043B51F8043B40F8043B403ABDD2FE
:10038000303211D351F8043B40F8043B51F8043BA0
:1003900040F8043B51F8043B40F8043B51F8043B5F
:1003A00040F8043B103AEDD20C3205D351F8043B2F
:1003B00040F8043B043AF9D2043208D0D2071CBFFB
:1003C00011F8013B00F8013B01D30B880380604624
:1003D000704700BF082A13D38B078DD010F003039A
:1003E0008AD0C3F10403D21ADB071CBF11F8013B0A
:1003F00000F8013B80D331F8023B20F8023B7BE759
:10040000043AD9D3013A11F8013B00F8013BF9D283
:100410000B7803704B7843708B788370604670471D
:10042000A2EB0300704700BF02780B78012A28BFB7
:100430009A42F5D16DE9044540EA0104CDE902672D
:100440006FF0000C4FEA447212B380EA010414F01A
:10045000070F6AD100F0070420F0070004F003053D
:1004600021F007014FEAC505F0E8042314F0040F5A
:10047000F1E804670CFA05F462EA040266EA04068D
:100480000AD063EA0403624667EA0407664603E0AB
:10049000F0E80423F1E8046782FA4CF582EA0604E6
:1004A000A4FA8CF46CBB83FA4CF583EA0705A5FA31
:1004B0008CF595B950E9022351E9026782FA4CF5AF
:1004C00082EA0604A4FA8CF483FA4CF583EA070561
:1004D000A5FA8CF52543DBD09CB92DBAB5FA85F485
:1004E00024F0070427FA04F1DDE9026723FA04F394
:1004F00003F0FF0001F0FF01FDE80445A0EB01005F
:10050000704724BAB4FA84F424F0070426FA04F1FC
:10051000DDE9026722FA04F202F0FF0001F0FF01B8
:10052000FDE80445A0EB0100704714F0030F3CD137
:1005300010F0030428D150F8082B51F8083B82FA38
:100540004CF582EA0305A5FA8CF55DB950F8042C48
:1005500051F8043C82FA4CF582EA0305A5FA8CF5C1
:10056000002DE8D02DBAB5FA85F424F0070423FA5B
:1005700004F122FA04F202F0FF0001F0FF01FDE8AD
:100580000445A0EB010070474FEAC40420F00300CB
:1005900050F8082B21F0030151F8083B0CFA04F441
:1005A00062EA040263EA0403C9E710F003041AD004
:1005B000A1EB040120F00300E40750F8042B06D05F
:1005C0000FD28B785FFAA2F4E41A06D12BB1CB7864
:1005D0005FFAB2F4E41A00D11BB920465DF8104B63
:1005E000704701F1040150F8042BCC0721F00301FE
:1005F00051F8043B48D824D222F07F4482FA4CF5CB
:1006000094EA1325A5FA8CF50AD165B951F8043B93
:1006100084EA0204B4EB036F0ED150F8042BEBE72D
:100620004FEA132355E035F07F454DD10878FDE8BA
:100630000445C0F1000070474FEA126203F0FF0367
:1006400047E002EA1C4482FA4CF594EA1345A5FA05
:100650008CF50AD165B951F8043B84EA0204B4EB85
:10066000034F0CD150F8042BEBE74FEA134330E073
:1006700015EA1C4528D10B884FEA124229E04FEABF
:10068000124203EA1C4324E002F0FF0482FA4CF514
:1006900094EA1365A5FA8CF50AD165B951F8043BC3
:1006A00084EA0204B4EB032F09D150F8042BEBE7E2
:1006B0004FEA13630DE015F0FF0F05D10B684FEA09
:1006C000122223F07F4304E04FF00000FDE80445D0
:1006D000704712BA1BBA82FA4CF482EA0304A4FAF5
:1006E0008CF5B5FA85F402FA04F203FA04F34FEA42
:1006F0001260FDE80445A0EB1360704700000000A5
:100700000020704700000000000000000000000012
:1007100008B503681A1D02601B68984708BD00BF32
:1007200008B50268131D0360116802F10803036035
:100730005068884708BD00BF0000000000000000AE
:1007400010B503460068011D1960046800F1080235
:100750001A60406801F108021A604968A04710BD9C
:1007600038B503460268111D0160156802F10804DE
:10077000046050680C321A60496804F108021A607B
:100780006268A84738BD00BF0000000000000000FC
:1007900070B503460068011D1960066800F1080283
:1007A0001A60406801F108051D60496802F10804FB
:1007B0001C60526805F108041C606B68B04770BD8E
:1007C000704700BF000000000000000000000000B3
:1007D000014B00221A6070478024002000000000B6
:1007E000074B01221A60202383F3118862B672B688
:1007F00083F3118862B6002383F3118862B67047D1
:100800005424002000000000000000000000000050
:10081000202383F31188064B1B68064A934203D2B8
:10082000591C034A11601870002383F31188704724
:100830006824002068240020000000000000000060
:1008400008B548694130C0B2FFF7E2FF002008BD9B
:1008500008B53020FFF7DCFF45F2AA5008BD00BF05
:1008600010B50446C0B2FFF7D3FF204610BD00BF4D
:1008700038B504460D46C0B2FFF7CAFFE8B2FFF72D
:10088000C7FF204638BD00BF000000000000000088
:1008900070B504460E461546C0B2FFF7B9FFF0B278
:1008A000FFF7B6FFE8B2FFF7B3FF204670BD00BF09
:1008B000F8B504460F4616461D46C0B2FFF7A8FF1E
:1008C000F8B2FFF7A5FFF0B2FFF7A2FFE8B2FFF71B
:1008D0009FFF2046F8BD00BF0000000000000000A0
:1008E00008B55A20FFF794FF024B01221A704AF60E
:1008F000552008BDFC1A0020000000000000000088
:1009000008B50078FFF784FF08BD00BF00000000B5
:1009100008B54320FFF77CFF08BD00BF00000000C2
:1009200008B54220FFF774FF08BD00BF00000000BB
:1009300008B54120FFF76CFF08BD00BF00000000B4
:1009400008B50078FFF764FF08BD00BF0000000095
:1009500010B50446217831B1034B1868013403689F
:10096000DB689847F6E710BDA823002000000000D0
:1009700008B5FFF7EDFF044B186803685B680222B7
:100980000249984708BD00BFA823002078C400088A
:1009900010B584B038B9124B18680368DB68302191
:1009A000984704B010BD02466C46A2B10D4BA3FBA4
:1009B0000213DB08194603EB8303A2EB4303303336
:1009C00004F8013B0A46F0E7054B18680368DB684A
:1009D00014F8011D98476B469C42F5D8E1E700BF2B
:1009E000A8230020CDCCCCCC0000000000000000EB
:1009F00038B50125494B1D604948FFF7A9FF284636
:100A0000FFF7C6FF474C2046FFF7B2FF4648FFF707
:100A10009FFF2846FFF7BCFF2046FFF7A9FF43488A
:100A2000FFF796FF2846FFF7B3FF2046FFF7A0FF2A
:100A30003F48FFF78DFF2846FFF7AAFF2046FFF744
:100A400097FF3C48FFF784FF2846FFF7A1FF2046A9
:100A5000FFF78EFF3848FFF77BFF2846FFF798FF28
:100A60002046FFF785FF3548FFF772FF2846FFF75E
:100A70008FFF2046FFF77CFF3148FFF769FF2846CC
:100A8000FFF786FF2046FFF773FF2E48FFF760FF52
:100A90002846FFF77DFF2046FFF76AFF2A48FFF749
:100AA00057FF0820FFF774FF2046FFF761FF274834
:100AB000FFF74EFF2846FFF76BFF2046FFF758FF72
:100AC0002348FFF745FF2846FFF762FF2046FFF760
:100AD0004FFF2048FFF73CFF2846FFF759FF20460D
:100AE000FFF746FF1C48FFF733FF2846FFF750FF8C
:100AF0002046FFF73DFF1948FFF72AFF2846FFF77A
:100B000047FF2046FFF734FF1548FFF721FF28462F
:100B1000FFF73EFF2046FFF72BFF38BD542400208F
:100B200038B60008ACC6000864B6000890B60008E5
:100B3000BCB60008E8B6000814B7000840B70008C3
:100B40006CB7000898B70008C4B70008F0B70008F1
:100B50001CB8000848B8000874B80008A0B800081D
:100B6000CCB80008000000000000000000000000F9
:100B700038B50125184B1D601848FFF7F9FE1848D5
:100B8000FFF7E6FE0020FFF703FF164C2046FFF7B5
:100B9000EFFE1548FFF7DCFE1448FFF7E9FE1448A6
:100BA000FFF7D6FE2846FFF7F3FE2046FFF7E0FEEC
:100BB0001048FFF7CDFE0220FFF7EAFE2046FFF7C0
:100BC000D7FE0D48FFF7C4FE0020FFF7E1FE2046E8
:100BD000FFF7CEFE38BD00BF54240020F8B800084F
:100BE0002CB90008ACC6000858B9000884B9000840
:100BF0008CB90008B8B90008E4B90008000000008A
:100C000010B51C4B01221A601B48FFF7A1FE1B48C0
:100C1000FFF7AEFE1A48FFF79BFE1A48FFF7A8FE43
:100C20001948FFF795FE1948FFF7A2FE1848FFF78D
:100C30008FFE1848FFF79CFE1748FFF789FE042037
:100C4000FFF7A6FE154C2046FFF792FE1448FFF76B
:100C50007FFE0820FFF79CFE2046FFF789FE114823
:100C6000FFF776FE0820FFF793FE2046FFF780FE91
:100C700010BD00BF5424002010BA00083CBA000880
:100C800048BA000874BA000880BA0008ACBA000874
:100C9000B8BA0008E4BA0008FCBA0008ACC60008FC
:100CA00028BB000854BB0008000000000000000042
:100CB00070B5334D01232B603248FFF749FE782091
:100CC000FFF766FE304C2046FFF752FE02232B60F2
:100CD0002E48FFF73DFE4420FFF75AFE2046FFF75F
:100CE00047FE03232B602A48FFF732FE1420FFF74C
:100CF0004FFE2046FFF73CFE04262E602548FFF7F6
:100D000027FE0C20FFF744FE2046FFF731FE0523A7
:100D10002B602148FFF71CFE1020FFF739FE20460C
:100D2000FFF726FE06232B601C48FFF711FE082064
:100D3000FFF72EFE2046FFF71BFE07232B60184807
:100D4000FFF706FE3046FFF723FE2046FFF710FEB2
:100D500008232B601348FFF7FBFD1420FFF718FE54
:100D60002046FFF705FE09232B600F48FFF7F0FD33
:100D70002820FFF70DFE2046FFF7FAFD70BD00BFEB
:100D80005424002080BB000890BB000898BB0008DA
:100D9000A8BB0008B8BB0008C8BB0008D8BB000847
:100DA000E8BB0008F8BB000808BC00080000000011
:100DB00038B50125924B1D609248FFF7C9FD2020F0
:100DC000FFF7E6FD904C2046FFF7D2FD8F48FFF776
:100DD000BFFD42F21070FFF7DBFD2046FFF7C8FDB4
:100DE0008B48FFF7B5FD2020FFF7D2FD2046FFF727
:100DF000BFFD8848FFF7ACFD2020FFF7C9FD204666
:100E0000FFF7B6FD8448FFF7A3FD0220FFF7C0FD02
:100E10002046FFF7ADFD8148FFF79AFD0020FFF760
:100E2000B7FD2046FFF7A4FD7D48FFF791FD0020A8
:100E3000FFF7AEFD2046FFF79BFD7A48FFF788FDE0
:100E40000020FFF7A5FD2046FFF792FD7648FFF74B
:100E50007FFD2846FFF79CFD2046FFF789FD73487C
:100E6000FFF776FD2846FFF793FD2046FFF780FD4C
:100E70006F48FFF76DFD2846FFF78AFD2046FFF714
:100E800077FD6C48FFF764FD2846FFF781FD20469B
:100E9000FFF76EFD6848FFF75BFD2846FFF778FD1A
:100EA0002046FFF765FD6548FFF752FD0020FFF77C
:100EB0006FFD2046FFF75CFD6148FFF749FD2846BE
:100EC000FFF766FD2046FFF753FD5E48FFF740FD44
:100ED0000020FFF75DFD2046FFF74AFD5A48FFF767
:100EE00037FD2846FFF754FD2046FFF741FD5748E0
:100EF000FFF72EFD2846FFF74BFD2046FFF738FD94
:100F00005348FFF725FD2846FFF742FD2046FFF72F
:100F10002FFD5048FFF71CFD2846FFF739FD2046FE
:100F2000FFF726FD4C48FFF713FD2846FFF730FD7D
:100F30002046FFF71DFD4948FFF70AFD0020FFF797
:100F400027FD2046FFF714FD4548FFF701FD284621
:100F5000FFF71EFD2046FFF70BFD4248FFF7F8FCA8
:100F60000020FFF715FD2046FFF702FD3E48FFF782
:100F7000EFFC0020FFF70CFD2046FFF7F9FC3B4893
:100F8000FFF7E6FC0020FFF703FD2046FFF7F0FC2B
:100F90003748FFF7DDFC0020FFF7FAFC2046FFF79B
:100FA000E7FC3448FFF7D4FCFF20FFF7F1FC2046B4
:100FB000FFF7DEFC3048FFF7CBFC8020FFF7E8FCB2
:100FC0002046FFF7D5FC2D48FFF7C2FC0020FFF7B5
:100FD000DFFC2046FFF7CCFC2948FFF7B9FC0020D6
:100FE000FFF7D6FC2046FFF7C3FC2648FFF7B0FC0E
:100FF0000020FFF7CDFC2046FFF7BAFC38BD00BF4C
:101000005424002018BC0008ACC6000844BC0008EA
:1010100070BC00089CBC0008C8BC0008F4BC0008F8
:1010200020BD00084CBD000878BD0008A4BD000824
:10103000D0BD0008FCBD000828BE000854BE000852
:1010400080BE0008ACBE0008D8BE000804BF00087F
:1010500030BF00085CBF000888BF0008B4BF0008AC
:10106000E0BF00080CC0000838C0000864C00008D9
:1010700090C00008BCC00008E8C0000814C1000807
:1010800040C100086CC10008000000000000000022
:1010900038B50125184B1D601848FFF769FC184842
:1010A000FFF756FC0020FFF773FC164C2046FFF7B5
:1010B0005FFC1548FFF74CFC1448FFF759FC144837
:1010C000FFF746FC0620FFF763FC2046FFF750FCC5
:1010D0001048FFF73DFC2846FFF75AFC2046FFF773
:1010E00047FC0D48FFF734FC0020FFF751FC204679
:1010F000FFF73EFC38BD00BF5424002098C1000813
:101100002CB90008ACC6000858B90008CCC10008CA
:101110008CB90008B8B90008E4B900080000000064
:1011200010B51C4B01221A601B48FFF711FC1B482D
:10113000FFF71EFC1A48FFF70BFC1A48FFF718FCD4
:101140001948FFF705FC1948FFF712FC1848FFF78C
:10115000FFFB1848FFF70CFC1748FFF7F9FB0420CA
:10116000FFF716FC154C2046FFF702FC1448FFF76A
:10117000EFFB0820FFF70CFC2046FFF7F9FB1148B6
:10118000FFF7E6FB0820FFF703FC2046FFF7F0FB24
:1011900010BD00BF5424002010BA00083CBA00085B
:1011A00048BA000874BA000880BA0008ACBA00084F
:1011B000B8BA0008E4BA0008FCBA0008ACC60008D7
:1011C00028BB000854BB000800000000000000001D
:1011D0000123044A1370044A1370044A106018462D
:1011E000704700BF50240020B0230020AC23002013
:1011F00008B10020704708B50846FFF7E9FF08BDB1
:1012000008B50120264B18602649FFF7F1FF00B111
:1012100008BD24490120FFF7EBFF0028F8D1214940
:101220000120FFF7E5FF0028F2D11E490120FFF75A
:10123000DFFF0028ECD11A4B02221A601A49012064
:10124000FFF7D6FF0028E3D116490120FFF7D0FFB2
:101250000028DDD114490120FFF7CAFF0028D7D1AB
:1012600010490120FFF7C4FF0028D1D10C4B032205
:101270001A600D490120FFF7BBFF0028C8D10949BA
:101280000120FFF7B5FF0028C2D107490120FFF771
:10129000AFFF0028BCD103490120FFF7A9FFB7E742
:1012A00054240020D8C10008D4C100080000000068
:1012B00010B500244B2C07D8074B18680368DB686F
:1012C0003D2198470134F5E7034B186803685B68D4
:1012D00002220249984710BDA823002078C40008C4
:1012E00010B500244B2C07D8074B18680368DB683F
:1012F0002D2198470134F5E7034B186803685B68B4
:1013000002220249984710BDA823002078C4000893
:1013100010B5074C074B1B68A34207D9064B18684A
:101320000368DB6814F8011B9847F3E710BD00BFA2
:101330005824002068240020A8230020000000007A
:10134000014B024A1A60704768240020582400208C
:1013500038B5024608460B4B0B4C24689C4208D912
:1013600013F8015B12F8014BA542F5D0FFF730FFEF
:1013700038BD13781BB9FFF7E3FF0020F8E7FFF74C
:1013800027FFF5E758240020682400200000000013
:1013900010B50446FFF7D4FF054B00221A706368AE
:1013A00003B19847E3689847A36803B1984710BD15
:1013B0005024002000000000000000000000000099
:1013C000014B1B60704700BF3C1D00200000000067
:1013D000C26883689A4207DB4068D31A0133C31A94
:1013E0008B4207DC002070479B1A013B8B4203DCD9
:1013F0000020704701207047012070470000000066
:1014000083680268D25C1344013342689A4200DC6C
:101410009B1A8360704700BF0000000000000000BE
:10142000F0B40C461E4603B90E4600F10B052B46E0
:1014300006E003F8014DB7FBF2F4B6FBF2F65EB13D
:101440002746B4FBF2F102FB114101F13004392CC3
:10145000EFDD01F13704ECE7EC1A19780133017084
:101460000130013CF9D1F0BC704700BF0000000022
:1014700008B50023FFF7D4FF08BD00BF000000003F
:101480002DE9F04F87B0064689460192002705E016
:101490003368DB68304698470137A9464D4615F852
:1014A000011B00297BD02529F2D12B782D2B43D08D
:1014B0004FF0000A2B782B2B43D0002295F80080A8
:1014C000B8F1300F40D04FF020082A293ED1019BBF
:1014D000181D01901C682E2946D000236C2964D069
:1014E0004C2962D0A1F14100C0B219288CBF002064
:1014F0000120A946A1F14405342D00F2C880DFE89F
:1015000005F07FC6C6C6C67FC6C6C6C6C65BC6C60B
:10151000C6C6C69FC6C6BFC6C6C6C6C6C6C6C6C699
:10152000C65D7FC6C6C6C67FC6C6C6C6C65BC6C6BD
:10153000C669C69FC6C6BF0009F102054FF0010A81
:10154000B8E701350122B9E70135BEE7002415F8F7
:10155000011B21B3A1F13003DBB2092BBBD804EB93
:10156000840403EB4404F2E7284610F8011BB1B1F0
:101570002A2906D1019B191D01911B686978023542
:10158000ACE70023A1F13005EDB2092D0BD803EB38
:10159000830305EB430310F8011B0029F2D1384601
:1015A00007B0BDE8F08F054698E7A94619F8011B7A
:1015B0000029F4D001209DE7082242E0019B1A1D7A
:1015C00001921B688DF80C304FF0200803AD0DF12F
:1015D0000D003FE0019A111D0191156815B163B12D
:1015E000284602E0404DFAE701300278002A54D044
:1015F000013BF9D54FF020082CE047F6FF73EFE7E9
:1016000060B1019B191D0191196800290BDBAAB17A
:101610002B238DF80C300DF10D000AE0019B191DF4
:1016200001911968F1E72D238DF80C3049420DF135
:101630000D000A22FFF71CFF03AD0BE003A8F8E73B
:101640000A22F8B1019B191D0191196803A8FFF73F
:101650000FFF03ADA0EB050BB4EB0B0420D4BAF1E4
:10166000000F00D16442002C1CDBBBF1010B38D40D
:101670003368DB6815F8011B304698470137F4E7FB
:101680001022DEE7019B191D01911968DEE78DF834
:101690000C1003AD0DF10D00DCE74FF02008D9E789
:1016A0000024DCE729782D2908D03368DB6841461F
:1016B0003046984701370134F7D1D6E7B8F1300FFB
:1016C000F3D101353368DB683046984701370BF1B9
:1016D000FF3BEAE73368DB6841463046984701370D
:1016E000013C002CF6D1D9E6E4C10008000000005E
:1016F0000B461A461B688B4204D08342F9D103681B
:1017000013607047002070470000000000000000D8
:1017100010B54C6A44F008044C62C36B984710BD86
:1017200030B445680368013B8818034005EBC304E7
:1017300055F8330000E00068A04206D043699342A8
:10174000F9D103698B42F6D100E0002030BC70472C
:1017500003680B600160704700000000000000009B
:1017600008B5202383F31188FFF7F2FF002383F3EA
:10177000118808BD0000000000000000000000000B
:101780004368013B436003B1704710B51446FFF74F
:10179000AFFF01462046FFF7E3FF10BD0000000049
:1017A00008B50346006810B102681A6008BDDA681F
:1017B000002AFBD0996858689047F7E700000000BE
:1017C00008B5202383F31188FFF7EAFF002383F392
:1017D000118808BD000000000000000000000000AB
:1017E00070B506460D4614463CB129463046FFF713
:1017F000B7FF73681D44013CF6E770BD00000000B0
:1018000010B40024046041608260C36010BC704763
:1018100010B5344C01232360042233493348FFF7C9
:10182000DFFF022323600024032C0CD82F48FFF78E
:10183000C7FF2F49003818BF0120FFF7D9FC002847
:101840003BD10134F0E7274B03221A602748FFF70A
:10185000B7FF2849B0FA80F04009FFF7C9FC60BB28
:10186000204B04221A60002406E01F4901EB84018A
:101870001E48FFF775FF0134032CF6D9194B0522DA
:101880001A600024032C0BD81848FFF799FF184959
:10189000003818BF0120FFF7ABFC70B90134F1E745
:1018A000104B06221A601148FFF78AFF1149B0FA5F
:1018B00080F04009FFF79CFC00B110BD094B0722E6
:1018C0001A600A4C0C4B042211462046FFF798FF81
:1018D0002046FFF775FF0949B0FA80F04009FFF78D
:1018E00087FCEAE754240020101D00207408002023
:1018F000ECC10008F8C100080107000808C2000890
:1019000008B50023042211460148FFF779FF08BDFE
:10191000740800200000000000000000000000002B
:1019200008B5002304224FF4A4710248FFF768FFB2
:1019300008BD00BFF01B00200000000000000000F8
:10194000024B58681B68C01A704700BFD81A0020A5
:1019500010B4094B5C68201A49420840821A1B687F
:10196000934205D8944205D3034B5A6010BC70478C
:101970000020FBE70020F9E7D81A00200000000053
:1019800008B50022FFF7E4FF08BD00BF000000001B
:1019900008B5202383F31188FFF7DAFF002383F3D0
:1019A000118808BD000000000000000000000000D9
:1019B0000160C160816001EB82014160002303612D
:1019C000037500F118038361C36100F12003036212
:1019D00043627047000000000000000000000000AB
:1019E00008B5042202490348FFF7E2FF08BD00BF23
:1019F000E01B00204C080020000000000000000058
:101A000008B5042202490348FFF7D2FF08BD00BF12
:101A1000E01B00204C080020000000000000000037
:101A200008B5042202490348FFF7C2FF08BD00BF02
:101A3000E01B00204C080020000000000000000017
:101A400070B506460D46002400E001346DB125FA5C
:101A500004F313F0010FF8D00123A34025EA030596
:101A600056F8243020469847EFE770BD000000008C
:101A700008B5064B01221A6007210548FFF7E0FF71
:101A800004490548FFF764FC08BD00BF542400204A
:101A90006CDB000824C2000838C200080000000007
:101AA000202383F31188044B9B695A6B10435863BE
:101AB000002383F311887047181A002000000000EB
:101AC000034B9A69536B23EA000151631840704736
:101AD000181A0020000000000000000000000000B4
:101AE00008B5202383F31188FFF7EAFF002383F36F
:101AF000118808BD00000000000000000000000088
:101B000008B54FF0FF30FFF7EBFF024B1B60024BB5
:101B10001B6008BD080800200C0800200000000021
:101B200008B54FF0FF30FFF7DBFF08BD00000000F5
:101B300008B54FF0FF30FFF7D3FF08BD00000000ED
:101B400008B54FF0FF30FFF7CBFF08BD00000000E5
:101B500008B54FF0FF30FFF7C3FF08BD00000000DD
:101B600008B54FF0FF30FFF7BBFF08BD00000000D5
:101B7000202383F3118803461A461B68834203D04F
:101B80008B42F9D10B681360002383F311887047EF
:101B900010B4202484F3118804680C6001600548A7
:101BA000806948608A600022CA600B6182F31188F4
:101BB00010BC7047181A0020000000000000000050
:101BC00030B58BB02D4C246002252D4B1D604FF09D
:101BD000FF33012205A92046FFF7DAFF4FF0FF335C
:101BE0002A4669462046FFF7D3FF202383F3118856
:101BF00020682449001B18BF0120FFF7F9FA20B123
:101C0000002383F311880BB030BD002383F31188C8
:101C10001B4B03221A60194C05A92046FFF7A8FFA9
:101C2000202383F3118820681649001B18BF012068
:101C3000FFF7DEFA18B1002383F31188E3E70023EE
:101C400083F311880E4B04221A600C4C694620461F
:101C5000FFF78EFF202383F3118820680A49A042F2
:101C600014BF00200120FFF7C3FA18B9002383F343
:101C70001188C8E7002383F31188C4E7080800200F
:101C8000542400203CC2000848C2000800000000A4
:101C900000604060704700BF0000000000000000CE
:101CA00083680BB100207047044B9A698260926B85
:101CB000C2609B6998630120704700BF181A00201A
:101CC00008B5202383F31188FFF7EAFF002383F38D
:101CD000118808BD000000000000000000000000A6
:101CE000006040608160704700000000000000005C
:101CF00008B501210148FFF7F3FF08BD2C1D0020A6
:101D000008B500210148FFF7EBFF08BD2C1D00209E
:101D100008B500210148FFF7E3FF08BD201D0020A2
:101D200008B500210148FFF7DBFF08BD201D00209A
:101D300008B500210148FFF7D3FF08BD201D002092
:101D400008B500210148FFF7CBFF08BD201D00208A
:101D500008B501210148FFF7C3FF08BD201D002081
:101D60002DE9F8430646884615461F46DDF82090C3
:101D7000099C01212430FFF7B3FF394606F13000FA
:101D8000FFF7AEFFC6F800807560B76034610A9B4C
:101D9000F3630B9B336400237361B36106F1140892
:101DA000C6F81C80C6F820802D606D60083572680A
:101DB000336802EBC302AA42F6D8012104F11800ED
:101DC000FFF78EFFF369A360C4F80C80F369DC6051
:101DD000F46100222261626101236362A2624C44C9
:101DE000013FEAD1BDE8F8830000000000000000D8
:101DF00010B5044600230C30FFF702FD00212046F9
:101E0000FFF76EFF10BD00BF0000000000000000E3
:101E100008B5042211460248FFF7EAFF08BD00BFDB
:101E2000100800200000000000000000000000007A
:101E300008B5042211460248FFF7DAFF08BD00BFCB
:101E4000100800200000000000000000000000005A
:101E5000202383F31188054B186990F82230013351
:101E600080F82230002383F311887047181A00206D
:101E700030B40E4B5B680E4A516FC2680132C260CB
:101E800082689B1A5B1A8360D0E90445E41845F127
:101E90000005C0E904454268934200D943600268E6
:101EA000934200D2036030BC704700BF001000E0D6
:101EB000181A0020000000000000000000000000D0
:101EC000014B5B6883607047001000E00000000079
:101ED0004FF0FF330360002343608360C360002240
:101EE0000023C0E904237047000000000000000048
:101EF000202383F3118890F8213043F0040380F805
:101F00002130002383F31188704700BF00000000D8
:101F100010B5002400E00134042C07D8044B53F81A
:101F200024000028F7D0FFF7E3FFF4E710BD00BF5F
:101F30006C240020000000000000000000000000F1
:101F4000F8B504460F4615461E46206860B129467E
:101F5000FEF76AFA08B10834F7E76368069A314673
:101F600038469847002000E00120F8BD000000003E
:101F700010B5202383F31188094B9B69DC6B9A68A9
:101F8000A24201D0824200D29860054B9B69D8637F
:101F900008F0F6FA002383F31188204610BD00BF35
:101FA000181A0020000000000000000000000000DF
:101FB00070B5394B01221A60384B9A699568AC1C90
:101FC00094609B6998683649844214BF00200120C0
:101FD000FFF70EF900B170BD2F4B02221A606E1C84
:101FE0003046FFF7C5FF2F49A84214BF002001204B
:101FF000FFF7FEF80028EED1284B9B699868284926
:10200000A04214BF00200120FFF7F2F80028E2D11F
:10201000224B9B69D86B2449B04214BF0020012099
:10202000FFF7E6F80028D6D11B4B03221A60AC1844
:102030002046FFF79DFF1B49864214BF0020012068
:10204000FFF7D6F80028C6D1144B9B69986814494D
:10205000A04214BF00200120FFF7CAF80028BAD11F
:102060000E4B9B69D86B1149A04214BF0020012080
:10207000FFF7BEF80028AED1074B04221A602023D8
:1020800083F31188054B9A6995609B69DD63002392
:1020900083F311889FE700BF54240020181A002002
:1020A00058C2000874C2000898C20008C0C20008E4
:1020B00070B51D4B01221A601C4B9B699D68AE18C0
:1020C0003046FFF755FF04461949A84214BF0020C7
:1020D0000120FFF78DF800B170BD144B9B69986823
:1020E0001449864214BF00200120FFF781F8002820
:1020F000F2D10D4B02221A602046FFF739FF0C493E
:10210000864214BF00200120FFF772F80028E3D1B7
:10211000064B9B6998680749854214BF002001203F
:10212000FFF766F8D8E700BF54240020181A0020F3
:1021300074C2000858C2000800000000000000003F
:1021400010B5054B01221A6008F0DAFE044608F0CB
:10215000D7FE8442FBD010BD5424002000000000B4
:1021600070B505460C46164608F0CAFE401B641BB7
:102170003146A0422CBF00200120FFF739F870BD86
:1021800008B5202383F3118808F052FA002383F363
:10219000118808BD000000000000000000000000E1
:1021A00008B50346202282F311880068834205D0D7
:1021B00002681A605360002108F03AFA002383F3A2
:1021C000118808BD000000000000000000000000B1
:1021D00008B5202282F31188826801328260002AC9
:1021E00003DD002383F3118808BD034600680268FD
:1021F0001A605360002108F01BFAF2E700000000AB
:1022000008B50346006818B100221A6008F010FAF9
:1022100008BD00BF0000000000000000000000003A
:1022200008B5202383F31188FFF7EAFF002383F327
:10223000118808BD00000000000000000000000040
:1022400010B5074B9C69202383F31188032008F005
:10225000A7F9636A002BF9D0002383F3118810BD1E
:10226000181A00200000000000000000000000001C
:1022700008B50B4B9B6953F82C2F9A420BD0084B97
:102280009B6903F12C01D86A0268DA6251600D2360
:1022900080F8203008BD0E2008F082F9EFE700BF7B
:1022A000181A0020000000000000000000000000DC
:1022B00010B5202383F31188FFF7DAFF002282F3A1
:1022C0001188446A2146FFF75BFF002CF1D110BD55
:1022D00010B5202383F31188FFF7CAFF04460023BB
:1022E00083F31188436A1A6858689047014620466C
:1022F000FFF746FF10BD00BF000000000000000017
:1023000038B504460B4B9D69202383F311886B6B12
:1023100030EA030308D16B6B23EA04036B630023E9
:1023200083F31188204638BD68620B2008F038F925
:10233000F1E700BF181A00200000000000000000B4
:1023400038B504460B4B9D69202383F311886B6BD2
:10235000184007D06B6B23EA00036B63002383F301
:10236000118838BD6C620A2008F01AF96B6B03EA19
:102370000400EFE7181A0020000000000000000031
:1023800038B50D4B9D69202383F311886B6B034097
:1023900009D0584218406B6B23EA00036B6300239B
:1023A00083F3118838BD044668620A2008F0F8F803
:1023B0006B6B2340EDE700BF181A002000000000FF
:1023C0008368013B8360002B01DB0020704710B560
:1023D000064CA3695862186042685A6013604360F3
:1023E000052008F0DDF8A369586A10BD181A00200E
:1023F00010B5044604F13000FFF7E2FF216ACA6815
:102400008B689360CA68DA604A6A22F00100486209
:102410000B6A013B0B6212F0100F0CD0002383F308
:10242000118822234B62236C0122204698472023E7
:1024300083F31188DEE710F0020F05D04B680A68BD
:102440001A600B684A685A6000234B62084610BD48
:10245000F8B507460E461546202383F31188FFF78B
:102460005FF9C0B10446036A002B10DDC2688368BF
:102470009360C268DA60436A23F001034362036A2F
:10248000013B0362002383F311882046F8BD183016
:10249000FFF796FFF6E73846FFF7AAFF0446066106
:1024A00045610A2343623A68511E72190A407B68EB
:1024B00003EBC20153F832002060616053F8321020
:1024C0004C6043F83240DDE70000000000000000EF
:1024D00008B5202383F31188FFF772FF002383F3ED
:1024E000118808BD0000000000000000000000008E
:1024F00008B5064B9B6993F8213013F0040F03D104
:102500000348FFF7E5FFF4E708BD00BF181A0020F5
:102510002C1D002000000000000000000000000052
:1025200010B5044C2046FFF7D3FF2046FFF750FEBE
:1025300010BD00BF201D00200000000000000000B2
:1025400010B504460348FFF7C3FF2078FEF760F993
:1025500010BD00BF201D0020000000000000000092
:1025600010B5202383F31188002484F3118883F3AA
:10257000118808F0CDF808F0B3F884F3118810BD85
:1025800008B50120254B1860202383F3118808F03B
:10259000CFF8002383F3118880F001002049C0B2F6
:1025A000FEF726FE00B108BD02201C4B1860202358
:1025B00083F3118808F0BCF8002383F3118880F0BE
:1025C00001001849C0B2FEF713FE0028EBD1134BEF
:1025D00003221A60202383F31188042008F0A8F84E
:1025E000002383F3118880F001000F49C0B2FEF789
:1025F000FFFD0028D7D1094B04221A60202383F362
:102600001188082008F094F8002383F3118880F0E3
:1026100001000649C0B2FEF7EBFDC4E754240020D8
:10262000E0C20008F8C200081CC3000838C3000854
:1026300000284DD02DE9F0410E461446054643686A
:10264000013B934201DC32E0013C2746631EF35C10
:10265000202B01D1002CF7DC002C03DC27E02846DE
:10266000FEF7CEFE21462846FEF7B2FE0028F6D041
:102670006B68E8681B1A03F1FF38A04519DD2B6869
:1026800001303A4631461844FDF730FE2A68EB68BF
:10269000D4540134EB681C44EC606B689C4201DB51
:1026A000E41AEC602968EA6800238B542B61BDE8CA
:1026B000F0812B680130424631461844FDF716FE82
:1026C000A4EB080206EB08012868FDF70FFEDDE722
:1026D000704700BF00000000000000000000000084
:1026E0002DE9F843002867D00E4605468468234646
:1026F000002700E00137E968994208D02968C85CE2
:102700000130034469689942F4DC5B1AF2E7012A5C
:1027100005D0D5F810C0BC4507DC002009E02B69C6
:10272000002B4CDD023B2B61F3E74FF0FF381BE041
:102730000130A1420CD03B1A013B9C4508D02B68CC
:102740001B5D01331C446B68A342F1DCE41AEFE724
:102750002B68A1461F5DB8464FB9012A32D10CF152
:1027600001032B614FF000084046BDE8F8830CF1EF
:1027700001032B6140220021304608F0FDFDE219E3
:102780006B689A4208DA296804F101093A4649441B
:102790003046FDF7ABFDE7E71C1B013C296809F15A
:1027A0000109224649443046FDF7A0FD3A1B29683D
:1027B0003019FDF79BFDD7E74FF0FF38D4E74FF016
:1027C0000008D1E74FF0FF38CEE700BF000000005F
:1027D00038B50D4600B128602C68A4B10F492046D9
:1027E00008F010FF04442378222B0ED00B4920461A
:1027F00008F0ECFE28602B681BB15A1C2A600022EE
:102800001A70237843B1204638BD01342221204676
:1028100008F002FE2860EEE70024F4E750C3000849
:102820000EB400B582B003AA52F8041B0192FEF761
:1028300027FE02B05DF804EB03B070470000000013
:1028400010B504460B49FFF7EBFF0B492046FFF795
:10285000E7FF0A492046FFF7E3FF09492046FFF753
:10286000DFFF08492046FFF7DBFF07492046FFF757
:10287000D7FF10BD54C300086CC30008C8C30008CC
:10288000F4C3000828C4000854C400080000000075
:1028900010B5094C0949204608F012FB08492046AA
:1028A000FFF7BEFF0749084808F0FAFA0749084849
:1028B00008F0F6FA10BD00BFE8180020AC140020A4
:1028C0007CC4000898E2000864190020ACE200080B
:1028D000941900200000000000000000000000002B
:1028E00010B5044600290DDC202383F3118808F07D
:1028F00007FB0246002383F3118805492046FFF7B2
:102900008FFF10BD034A0449FFF78AFFF9E700BFB4
:10291000ACC4000898C40008A0C40008000000006F
:1029200008B5012904D0054A0549FFF779FF08BD1C
:1029300012680449FFF774FFF9E700BFB4C4000848
:10294000A0C40008C4C4000800000000000000008B
:1029500010B582B0044600292BDC184A1849FFF74D
:102960005FFF184A18492046FFF75AFF174A1849CF
:102970002046FFF755FF174A17492046FFF750FF3B
:10298000164A17492046FFF74BFF164A16492046BC
:10299000FFF746FF154A16492046FFF741FF154B42
:1029A0000093154B154A16492046FFF739FF02B030
:1029B00010BD144A1449FFF733FFF8E7CCC10008F3
:1029C000D4C40008ACBA0008E8C400083CBA000847
:1029D000FCC4000874BA000810C50008E4BA000876
:1029E00024C5000838C5000864C5000878C500087B
:1029F000A4C50008E0C50008B8C50008BCC50008AB
:102A0000C8C50008CCC40008A0C40008000000002D
:102A10002DE9F04F83B0884691469A4604680E46E9
:102A200000273D463DE0002241465046FFF758FE54
:102A3000051E02DC00273D4633E004234622694997
:102A40002046FFF7EDFE68492046FFF7E9FE4246C3
:102A500066492046FFF7E4FE08EB0506EAE7012297
:102A600041465046FFF73CFE054610B9002388F862
:102A70000030002D02DA00273D4612E004234622F2
:102A800058492046FFF7CCFE57492046FFF7C8FEBD
:102A9000424656492046FFF7C3FE08EB0506EAE723
:102AA000002523689B6801220DF107012046984705
:102AB000002800F08D809DF807101B2900F08D8004
:102AC00055B15B2900F08B80002FE9D04129AAD0B5
:102AD0004229C4D00027E3E7042919D008291DD0D2
:102AE0007F291BD00D292CD00E2937D0102954D086
:102AF0001F29D6D909F1FF334344B342D1D9236802
:102B0000DB68204698479DF8073006F8013BC8E788
:102B100037492046FFF784FE01255AE04645C0D0DC
:102B20002368DB680821204698472368DB6820215A
:102B3000204698472368DB68082120469847013ED5
:102B4000AFE72C492046FFF76BFEA6EB0802414693
:102B50005046FFF76DFD002333703AE001224146F5
:102B60005046FFF7BDFD834610B9002388F80030BA
:102B7000BBF1000F95DB042346221A492046FFF7DC
:102B80004FFE19492046FFF74BFE424617492046A3
:102B9000FFF746FE08EB0B0683E70022414650464E
:102BA000FFF79EFDB0F1000B7FF77BAF04234622B9
:102BB0000C492046FFF734FE0B492046FFF730FE54
:102BC00042460A492046FFF72BFE08EB0B0668E752
:102BD0000125284603B0BDE8F08F012561E72F46A7
:102BE0005FE700BFECC50008F8C50008FCC5000899
:102BF00000C6000878C400080000000000000000C3
:102C000038B505460C4622682AB103492846FFF725
:102C100007FE0834F7E738BD04C6000800000000CE
:102C200010B582B004460C4B1B68ADF804301E236F
:102C30008DF8063021238DF8053008F021F901AA1E
:102C40000321204608F0FCF82378022BFCD1204613
:102C500008F006F902B010BD34B60008000000000C
:102C600010B582B004468DF806100B0A8DF80530B9
:102C7000090C8DF8041008F003F901AA032120467D
:102C800008F0DEF82378022BFCD1204608F0E8F8A3
:102C900002B010BD000000000000000000000000B5
:102CA00038B505461446012919D123681A78302A07
:102CB00025D01846302A29D00022002108F020FB18
:102CC000044601461548FFF7CBFF21461448FFF79D
:102CD000C7FF224613492846FFF7A2FD38BD124917
:102CE000FFF79EFD11492846FFF79AFD1049284637
:102CF000FFF796FD0F492846FFF792FDD5E7597873
:102D0000622901D01846D5E7981CD3E75B78622B7F
:102D100001D00022D1E70222CFE700BF64190020D2
:102D2000941900208CC6000808C6000848C6000890
:102D30005CC6000874C60008000000000000000027
:102D400070B505460E46002456F8241011F47F0F86
:102D500004D02846FFF784FF0134F5E72846FFF743
:102D60007FFF70BD000000000000000000000000B8
:102D700010B50446284A136801331360052B02DDA1
:102D8000134600221A60244B1B68052B3AD8DFE853
:102D900003F0030C151E273020492148FFF7D0FF10
:102DA00020492046FFF73CFD10BD1F491C48FFF796
:102DB000C7FF1E492046FFF733FDF5E71C491848B9
:102DC000FFF7BEFF1B492046FFF72AFDECE71A4933
:102DD0001348FFF7B5FF19492046FFF721FDE3E748
:102DE00017490F48FFF7ACFF16492046FFF718FDBB
:102DF000DAE715490A48FFF7A3FF14492046FFF711
:102E00000FFDD1E705490648FFF79AFF054920461F
:102E1000FFF706FDC8E700BF381D0020BC100020EA
:102E200064190020B0C60008B4120020DCC60008F7
:102E3000CC0C002014C70008DC08002048C700089C
:102E4000D40A00207CC70008C40E0020B0C70008C8
:102E500070B506460D460C68AC4207D008223146D4
:102E6000A01808F041FB10B12468F5E700242046C3
:102E700070BD00BF00000000000000000000000066
:102E800008B5FFF7E5FF034610B142680132426022
:102E9000184608BD0000000000000000000000000F
:102EA00070B505460E461446FFF7D2FF78B92046A6
:102EB000FEF786FC044658B108222946104408F063
:102EC00051FB0123636033682360346000E0002419
:102ED000204670BD0000000000000000000000005F
:102EE0002DE9F04186B00546884617461E46FEF796
:102EF00067FC0446D0B1CDF800800190686820449A
:102F00000290039704960C9B0593202383F311886A
:102F1000684607F0EDFA0446022380F82130056484
:102F2000002107F085FB002383F31188204606B0BB
:102F3000BDE8F0810000000000000000000000007B
:102F400010B50E4B9C69202383F31188616200F158
:102F50002C032360036B63601C60046390F82030D3
:102F60000E2B07D00C2007F01BFB606A002383F3B5
:102F7000118810BD07F02CFBF4E700BF181A0020E1
:102F800010B504464121FFF7DBFF42212046FFF741
:102F9000D7FF43212046FFF7D3FF44212046FFF708
:102FA000CFFF10BD00000000000000000000000086
:102FB0000EB400B584B005AB53F8042B0393019213
:102FC00003AB029301A9FFF7BBFF04B05DF804EB6C
:102FD00003B0704700000000000000000000000087
:102FE00008B5436B1943416390F820300A2B02D097
:102FF0000B2B08D008BD426A1142F9D0002343626E
:1030000007F0E6FAF6E7436A8B43F3D1F6E700BF31
:1030100008B5202383F31188FFF7E2FF07F0B0FA29
:10302000002383F3118808BD0000000000000000A9
:1030300010B504462068844208D0036823605C60B1
:1030400007F0C6FA6FF001034362F3E710BD00BF5B
:1030500008B5202383F31188FFF7EAFF07F090FA01
:10306000002383F3118808BD000000000000000069
:1030700008B503460068834206D002681A605360B0
:103080000023436207F0A4FA08BD00BF000000005F
:1030900010B5124B9C69202383F31188A36B5BB995
:1030A00017E002681A6053609860826BDA6083638D
:1030B00007F08EFAA36B43B1A36BDA68A2631868BA
:1030C0008342EED100229A60F4E7E36BA36007F03D
:1030D00057FA002383F3118810BD00BF181A00208F
:1030E00010B50146104B9C69C368A3630268824215
:1030F00017D0E06B00E0DB683BB11A689342FAD06E
:1031000092689042F7D21046F5E7A060086803681D
:103110000B6059608860836BCB60816307F058FA5D
:1031200010BD00238360FBE7181A00200000000098
:1031300010B50146144B9C69202383F31188C368A2
:10314000A363026882421CD0E06B00E0DB683BB105
:103150001A689342FAD092689042F7D21046F5E787
:10316000A060086803680B6059608860836BCB605F
:10317000816307F02DFA07F003FA002383F3118827
:1031800010BD00238360F8E7181A0020000000003B
:1031900038B53F4B9B699C683E4B02221A603E4803
:1031A000FEF78EFD3D49FEF723F800B138BD394BDF
:1031B00003221A603848FEF783FD80F00100384989
:1031C000C0B2FEF715F80028F0D1324B04221A6085
:1031D000314D2846FFF7ACFFA8683249B0FA80F0BD
:1031E0004009FEF705F80028E0D128682E49A842DA
:1031F00014BF00200120FDF7FBFF0028D6D1254B8E
:1032000005221A60224B9B6998682849844214BFA2
:1032100000200120FDF7ECFF0028C7D11D4B06223E
:103220001A602846FEF74CFD1C49FDF7E1FF002817
:10323000BCD12846FEF744FD80F001001849C0B219
:10324000FDF7D6FF0028B1D1FFF722FFA868154986
:10325000B0FA80F04009FDF7CBFF0028A6D128681E
:103260001149A84214BF00200120FDF7C1FF00282A
:103270009CD1084B07221A60054B9B6998680B4943
:10328000844214BF00200120FDF7B2FF8EE700BF8B
:10329000181A0020542400202C080020E0C7000841
:1032A000F0C70008FCC7000808C8000818C80008D4
:1032B00070B505462D4B9C698068002851D0826806
:1032C000A3689A4208D2836090F82030062B16D06B
:1032D000072B2AD0002B3CD028462B461B6898424F
:1032E00003D09968A2689142F8D223605A6862605C
:1032F00014605C606562062007F052F970BD426898
:103300000368136042685A60466A33461B689E42EF
:1033100003D0996882689142F8D203605A6842608B
:1033200010605860436A9868C9E742680368136090
:1033300042685A60466A33461B689E4203D09968C9
:1033400082689142F8D203605A6842601060586007
:10335000C2E742680368136042685A6007F038F9B0
:10336000BAE7AC60A36BEB60A563C7E7181A00204F
:1033700070B504460E4B9D69AE6B3046FFF7B0FE4C
:103380006C6221462468A14203D0A268AB689A42CD
:10339000F8D22C6063686B601D606560072007F0E1
:1033A000FFF86C6A3046FFF783FF204670BD00BF10
:1033B000181A0020000000000000000000000000BB
:1033C00008B5202383F31188FFF7D2FF002383F38E
:1033D000118808BD0000000000000000000000008F
:1033E00008B5202383F31188FFF762FF002383F3DE
:1033F000118808BD0000000000000000000000006F
:1034000038B50446064D2846FFF7EAFF0548FFF7A2
:10341000D7FF2078FDF7FCF92846FFF789FE38BD75
:103420002C08002000080020000000000000000020
:1034300038B50446054D2846FFF7D2FF2078FDF742
:10344000E7F92846FFF774FE38BD00BF3C080020AE
:1034500038B50446054D2846FFF7C2FF2078FDF732
:10346000D7F92846FFF764FE38BD00BF2C080020BE
:1034700038B50446074D2846FFF7B2FF05F1440171
:103480002046FFF7FDFC04462846FFF751FE204684
:1034900038BD00BF901A00200000000000000000AE
:1034A00038B50446074D2846FFF79AFF05F140015D
:1034B0002046FFF7E5FC04462846FFF739FE204684
:1034C00038BD00BF901A002000000000000000007E
:1034D00038B50446074D2846FFF782FF05F13C0149
:1034E0002046FFF7CDFC04462846FFF721FE204684
:1034F00038BD00BF901A002000000000000000004E
:1035000038B50546074C2046FFF76AFF04F12C0248
:1035100004F128012846FEF733F92046FFF708FE9C
:1035200038BD00BF901A002000000000000000001D
:1035300038B50446074D2846FFF752FF05F128012C
:103540002046FFF79DFC04462846FFF7F1FD204684
:1035500038BD00BF901A00200000000000000000ED
:1035600010B50648FFF7E4FF044618B905E0204609
:10357000FFF7C6FF6368002BF9D110BD30C8000803
:1035800070B504460E460B4D2846FFF729FF05F19E
:103590002C0205F128012046FFF782FC044618B1F1
:1035A00031461030FEF79CFB0248FFF7C1FD204674
:1035B00070BD00BF901A0020000000000000000055
:1035C00038B5474B01221A604648FFF7B1FF46491C
:1035D000B0FA80F04009FDF70BFE00B138BD404B5A
:1035E00002221A6000213F48FFF7CAFF04463F4904
:1035F000003818BF0120FDF7FBFD0028EED1384B45
:1036000003221A6000213748FFF7BAFF3849B0FAA1
:1036100080F04009FDF7ECFD0028DFD1304B04229B
:103620001A603048FFF784FF05463249003818BF5A
:103630000120FDF7DDFD0028D0D12F49AC4214BF99
:1036400000200120FDF7D4FD0028C7D168682A4971
:10365000022814BF00200120FDF7CAFD0028BDD1BB
:103660006B6801336B6024490120FDF7C1FD002820
:10367000B4D168682049032814BF00200120FDF759
:10368000B7FD0028AAD12846FFF73AFF68681B4912
:10369000022814BF00200120FDF7AAFD00289DD1BB
:1036A0002846FFF72DFF60681449012814BF002049
:1036B0000120FDF79DFD002890D1094D05232B60C9
:1036C0002046FFF71DFF06232B600648FFF730FF5B
:1036D0000549B0FA80F04009FDF78AFD7EE700BF9A
:1036E0005424002030C8000858C8000838C8000812
:1036F00048C8000854C8000860C800087CC8000812
:1037000038B50446074D2846FFF76AFE05F1240147
:103710002046FFF7B5FB04462846FFF709FD204683
:1037200038BD00BF901A002000000000000000001B
:1037300038B50546074C2046FFF752FE04F1140247
:1037400004F110012846FEF71BF82046FFF7F0FCB5
:1037500038BD00BF901A00200000000000000000EB
:1037600038B50446074D2846FFF73AFE05F110012B
:103770002046FFF785FB04462846FFF7D9FC204684
:1037800038BD00BF901A00200000000000000000BB
:1037900010B50648FFF7E4FF044618B905E02046D7
:1037A000FFF7C6FF6368002BF9D110BD90C8000871
:1037B00070B504460E46094D2846FFF711FE05F187
:1037C000140205F110012046FFF76AFB044600B120
:1037D00006610248FFF7ACFC204670BD901A00203D
:1037E00038B5544B01221A605348FFF7B9FF5349CB
:1037F000B0FA80F04009FDF7FBFC00B138BD4D4B3D
:1038000002221A604E494C48FFF7D2FF04464D4948
:10381000003818BF0120FDF7EBFC0028EED1454B26
:1038200003221A6048494448FFF7C2FF4749B0FAEB
:1038300080F04009FDF7DCFC0028DFD13D4B04227D
:103840001A603D48FFF78CFF05464149003818BF14
:103850000120FDF7CDFC0028D0D12B6918683D4927
:1038600045F2AA53984214BF00200120FDF7C0FC86
:103870000028C3D13849AC4214BF00200120FDF715
:10388000B7FC0028BAD168683349022814BF002069
:103890000120FDF7ADFC0028B0D16B6801336B60EF
:1038A0002D490120FDF7A4FC0028A7D12B69186839
:1038B000284945F2AA53984214BF00200120FDF781
:1038C00097FC00289AD168682349032814BF002078
:1038D0000120FDF78DFC002890D12846FFF728FF36
:1038E00068681E49022814BF00200120FDF780FCF3
:1038F000002883D12846FFF71BFF6068174901287D
:1039000014BF00200120FDF773FC00287FF476AF80
:10391000084D05232B602046FFF70AFF06232B6086
:103920000548FFF71DFF0549B0FA80F04009FDF793
:103930005FFC63E75424002090C8000858C80008C2
:103940008408002098C8000888080020A8C800083B
:1039500054C80008B8C8000860C800087CC800083F
:103960002DE9F84305460F46144600F1200840466D
:10397000FFF736FD2B699C4200D91C461B1B2B61AF
:103980006E68E968761AB44215D3B4421BD9324640
:103990003846FCF7ABFCA4EB06094A462968B8197F
:1039A000FCF7A4FC2A684A44EA604046FFF7C0FBE3
:1039B0002046BDE8F88322463846FCF797FCEB68C2
:1039C0002344EB60F1E722463846FCF78FFC2B6876
:1039D000EB60EAE7000000000000000000000000CB
:1039E0002DE9F84305460F46914600F12008404670
:1039F000FFF7F6FC6E682C68341B2B69E41AA145AE
:103A000000D84C4623442B61A868361AB44215D31B
:103A1000B4421BD932463946FCF768FCA4EB0609D0
:103A20004A46B9192868FCF761FC2A684A44AA602A
:103A30004046FFF77DFB2046BDE8F8832246394625
:103A4000FCF754FCAB682344AB60F1E722463946EF
:103A5000FCF74CFC2B68AB60EAE700BF00000000FD
:103A60002DE9F0410E461546044690B104F10C07CD
:103A70003846FFF7B5FC231D0022144690461B680C
:103A80004BB1586808F1010804448242F7D202465B
:103A9000F5E7074CEAE70EB1E40034600DB1D2005F
:103AA0002A603846FFF744FB4046BDE8F08100BF7E
:103AB000E01A0020000000000000000000000000EC
:103AC00030B583B0044600291DDC6A4601A90020F8
:103AD000FFF7C6FF0546FDF733FF02460C492046B7
:103AE000FEF79EFE2A460B492046FEF799FE019AF4
:103AF00009492046FEF794FE009A08492046FEF741
:103B00008FFE03B030BD064A0649FEF789FEF8E78E
:103B1000CCC80008ECC8000804C9000824C9000883
:103B2000C8C80008A0C40008000000000000000091
:103B3000F8B50646A0F1080450F8087C3D1D50F881
:103B4000043C0733DB0840F8043C0C373846FFF7E9
:103B500047FC2B4604E01A683AB1944205D31B682F
:103B6000AB42F8D09C42FAD9F5E746F8082C1C6025
:103B700056F8041C4A1C04EBC20256F8080C824298
:103B800009D059684A1C03EBC20294420CD0384653
:103B9000FFF7CEFAF8BD42681144013146F8041C23
:103BA000026846F8082CECE756F8042C1144013161
:103BB000596056F8082C1A60E9E700BF00000000C1
:103BC00008B54368013B436003B108BDFDF790FDB4
:103BD000FFF7AEFFF9E700BF0000000000000000A3
:103BE00038B50546064C2046FFF7FAFB04F14401C0
:103BF0002846FFF7E5FF2046FFF79AFA38BD00BFD9
:103C0000901A0020000000000000000000000000EA
:103C100010B50648FFF72CFC044618B905E020460D
:103C2000FFF7DEFF6368002BF9D110BD44C900081F
:103C300038B50546064C2046FFF7D2FB04F140019B
:103C40002846FFF7BDFF2046FFF772FA38BD00BFD8
:103C5000901A00200000000000000000000000009A
:103C600010B50648FFF71CFC044618B905E02046CD
:103C7000FFF7DEFF6368002BF9D110BD4CC90008C7
:103C800038B50546064C2046FFF7AAFB04F13C0177
:103C90002846FFF795FF2046FFF74AFA38BD00BFD8
:103CA000901A00200000000000000000000000004A
:103CB00010B50648FFF70CFC044618B905E020468D
:103CC000FFF7DEFF6368002BF9D110BD54C900086F
:103CD00038B50546064C2046FFF782FB04F1240167
:103CE0002846FFF76DFF2046FFF722FA38BD00BFD8
:103CF000901A0020000000000000000000000000FA
:103D000010B50648FFF7FCFC044618B905E020464C
:103D1000FFF7DEFF6368002BF9D110BD5CC9000816
:103D200008B5202383F3118890F82230013B80F8F6
:103D30002230036A03F0FF130F2B03D0002383F319
:103D4000118808BD436902691A61036942695A61B1
:103D5000002383F3118890F8213003F00303012B33
:103D600006D0022BEDD1C169006CFDF7F9FCE8E744
:103D7000C069FFF7DDFEE4E700000000000000007E
:103D800010B5202383F311880469084B9C420BD0A3
:103D900094F82230013384F82230002383F3118811
:103DA000FFF7BEFF204610BD0024F6E7181A0020DA
:103DB000F0B587B00646002906DC1749FEF730FD4E
:103DC000FEF746F8044615E0144A1549FEF728FDAB
:103DD00007B0F0BD0495CDF80CC00297019100909A
:103DE00010493046FEF71CFD2046FFF7C9FF044688
:103DF0000028EDD0E269E368204694F822100139EA
:103E0000A76894F820C0084D55F82CC0A569002D6E
:103E1000E0D1064DDEE700BF64C90008CCD600083B
:103E2000A0C40008A4C90008C0E20008ACC600088D
:103E300038B50446202383F3118890F820300F2BE7
:103E400008D1656A002383F311882046FFF768FFD5
:103E5000284638BD044B9B69826A1A608362092038
:103E600006F09EFBEDE700BF181A002000000000DE
:103E700030B58BB04A4D01232B604A4B04934A4B1B
:103E8000059303F5E4730693484B9B699B680133E4
:103E90000793474B08930023099304A806F0E8FB17
:103EA000044602232B60434A4349FFF781F8434904
:103EB00045F2AA53984214BF00200120FDF798F95B
:103EC00008B10BB030BD41233D4A3E492046FFF7C3
:103ED0006FF83A49412814BF00200120FDF788F906
:103EE0000028EED1432300934223374A3749204626
:103EF000FFF75EF83149422814BF00200120FDF78A
:103F000077F90028DDD1462301934523009344230C
:103F10002F4A30492046FFF74BF82849442814BF60
:103F200000200120FDF764F90028CAD14A2302933A
:103F300049230193482300934723274A27492046D2
:103F4000FFF736F81D49472814BF00200120FDF770
:103F50004FF90028B5D1224A17492046FFF728F823
:103F600016494AF65523984214BF00200120FDF758
:103F70003FF90028A5D11B491B48FDF7E9F90028A6
:103F80009FD103222A602046FFF752FF174940F6CF
:103F9000A573984214BF00200120FDF729F990E78E
:103FA00054240020CCC9000840280020181A002002
:103FB000D19400085108000811070008D8C900086A
:103FC000610800082107000871080008410700087F
:103FD0009108000861070008B1080008910700086F
:103FE000E1080008F0C9000804CA000814CA000863
:103FF00010B5002400E00134042C0BD8064B53F814
:1040000024000028F7D0FFF713FF034B002243F8EA
:104010002420F0E710BD00BF6C2400200000000049
:104020002DE9F04182B0494B01221A60002406E0DC
:10403000474B53F824104748FDF792FB0134032CFB
:10404000F6D9454B9B699E68DFF800810323C8F8C9
:104050000030424F3F4D424B00933B46721E414958
:104060002846FEF73DFF404C2060404B00933B4606
:10407000B21E3F492846FEF733FF60603D4B009378
:104080003B46F21E3C492846FEF72AFFA0603B4B08
:1040900000933B46321F3A492846FEF721FFE06075
:1040A000384B00933B46721F37492846FEF718FFEE
:1040B00020610423C8F8003023684BB163687BB1EA
:1040C000A3687BB1E3680BB1012002E0002000E0AF
:1040D00000202E49FDF78CF830B102B0BDE8F08128
:1040E0000020F6E70020F4E71F4B18692849B0FAD2
:1040F00080F04009FDF77CF80028EED1134B052233
:104100001A60FFF775FF23492348FDF721F90028BE
:10411000E3D10E4B06221A600024032C0CD80D4864
:10412000FDF74EFB1D49003818BF0120FDF760F870
:104130000028D2D10134F0E70648FDF741FB1849C9
:10414000B0FA80F04009FDF753F8C6E75424002088
:1041500000E30008F01B0020181A002001090008E5
:1041600030CA000828CA00086C2400203CCA000895
:1041700034CA000848CA000840CA0008A8DA000883
:104180004CCA0008FCCE000854CA00085CCA0008EB
:1041900074CA000824C2000890CA000898CA00081F
:1041A000A8CA000800000000000000000000000095
:1041B00008B5FFF71DFF08BD00000000000000006B
:1041C00008B5FFF715FF08BD000000000000000063
:1041D00008B5FFF70DFF08BD00000000000000005B
:1041E0002DE9F8430F4615468046002838D0072DA4
:1041F00000D80825FE1DF60808F10C094846FFF70F
:10420000EFF808F1040421462468002C4AD0631911
:1042100007336A421340083B6068421C04EBC20249
:104220009A42F0D903F1080CA2EB0C024FEAE20C1F
:10423000B6EBE20FE7D89C4215D204F108029A1AB5
:10424000D2106260B44521D9701C03EBC001ACEB05
:104250000602013A4A60226843F83020216015E0E6
:10426000DFF86880C3E7B04218D0013604EBC6021D
:10427000236844F836306368013304EBC30302F16A
:1042800008001B1ADB1053600A6023465F601C465F
:1042900044F8088B4846FEF74BFF13E023680B6099
:1042A0002346F3E74846FEF743FFD8F800304BB10A
:1042B00008222946F0009847044618B140F8088CB7
:1042C00040F8047C2046BDE8F88300BFE01A0020D7
:1042D00010B582B0144B01221A606A4601A9002071
:1042E000FFF7BEFB082210211048FFF779FF0446B4
:1042F0000F49003818BF0120FCF77AFF08B102B05F
:1043000010BD2046FFF714FC074B02221A6008225A
:104310006FF0FF010020FFF763FF0649B0FA80F05D
:104320004009FCF765FFEAE754240020B42300208D
:10433000BCCA0008D0CA000800000000000000004D
:10434000F0B585B0084B01221A60002202A9074887
:10435000FFF786FB0649012814BF00200120FCF767
:1043600047FF38B105B0F0BD54240020B42300202D
:10437000E8CA0008BD4B02221A6008224FF480717F
:10438000BB48FFF72DFFBB49B0FA80F04009FCF7AE
:104390002FFF0028E6D1B54B03221A600822102116
:1043A000B348FFF71DFF0446B349003818BF01208A
:1043B000FCF71EFF0028D5D12046FFF7B9FBAB4B19
:1043C00004221A606A4601A9A948FFF749FB039035
:1043D000AA49012814BF00200120FCF709FF00288A
:1043E000C0D1A74901980F2894BF00200120FCF7F5
:1043F000FFFE0028B6D1A2490198009B984214BF45
:1044000000200120FCF7F4FE0028ABD1974B0522D9
:104410001A60974C082210212046FFF7E1FE07465C
:10442000082210212046FFF7DBFE06460822102155
:104430002046FFF7D5FE05463846FFF779FB3046A4
:10444000FFF776FB2846FFF773FB002203A92046FF
:10445000FFF706FB8B49012814BF00200120FCF761
:10446000C7FE00287FF47EAF804B06221A60082228
:1044700010212046FFF7B4FE0546082210212046F1
:10448000FFF7AEFE0646082210212046FFF7A8FEE1
:10449000FFF74EFB3046FFF74BFB2846FFF748FB84
:1044A000002203A92046FFF7DBFA7649012814BF52
:1044B00000200120FCF79CFE00287FF453AF6B4BDB
:1044C00007221A60082211212046FFF789FE0546BF
:1044D000082210212046FFF783FE06462846FFF7F4
:1044E00027FB002203A92046FFF7BAFA66490228F3
:1044F00014BF00200120FCF77BFE00287FF432AFC0
:104500002546082210212046FFF76AFE04460022B5
:1045100003A92846FFF7A4FA012840F09B80012058
:104520005849FCF765FE00287FF41CAF3046FFF7C2
:10453000FFFA2046FFF7FCFA002203A94C48FFF7D8
:104540008FFA5049012814BF00200120FCF750FECB
:1045500000287FF407AF0824444B1C60444D2246DA
:1045600010212846FFF73CFE064622461021284629
:10457000FFF736FE04463046FFF7DAFA002203A9B9
:104580002846FFF76DFA4049022814BF0020012099
:10459000FCF72EFE00287FF4E5AE082220212846F5
:1045A000FFF71EFEFFF7C4FA2046FFF7C1FA00220C
:1045B00003A92846FFF754FA3249012814BF002006
:1045C0000120FCF715FE00287FF4CCAE274B092212
:1045D0001A60002203A92846FFF742FA082203992D
:1045E0002846FFF7FDFD04462349003818BF012087
:1045F000FCF7FEFD00287FF4B5AE002211462846E8
:10460000FFF72EFA2149B0FA80F04009FCF7F0FDDF
:1046100000287FF4A7AE2046FFF78AFA134B0A2240
:104620001A60002203A92846FFF71AFA1549012843
:1046300014BF00200120FCF7DBFD00287FF492AEC0
:1046400013490398029B984214BF00200120FCF7F5
:10465000CFFD87E6002203A92846FFF701FA0228CA
:1046600001D000205CE701205AE700BF542400205D
:10467000B4230020D0CA0008BCCA0008F8CA000849
:104680000CCB0008E8CA000824CB000834CB000893
:1046900040CB000800000000000000000000000007
:1046A00070B505460E461446FEF7D2FB80B90822C7
:1046B0002146FFF795FD044658B1082229461044CB
:1046C00006F050FF0123636033682360346000E02C
:1046D0000024204670BD00BF000000000000000064
:1046E00070B505460C460C4E3046FEF779FE04F1D7
:1046F0000E02920006F13C012846FFF7D1FF054665
:1047000028B1224600F138011030FDF751F9024876
:10471000FEF70EFD284670BD901A00200000000034
:1047200038B5474B01221A604648FEF7D1FE46498C
:10473000B0FA80F04009FCF75BFD00B138BD404B9A
:1047400002221A6010213F48FFF7CAFF04463F4982
:10475000003818BF0120FCF74BFD0028EED1384B84
:1047600003221A6010213748FFF7BAFF3849B0FA20
:1047700080F04009FCF73CFD0028DFD1304B0422DB
:104780001A603048FEF7A4FE05463249003818BFCB
:104790000120FCF72DFD0028D0D12F49AC4214BFD9
:1047A00000200120FCF724FD0028C7D168682A49B1
:1047B000022814BF00200120FCF71AFD0028BDD1FB
:1047C0006B6801336B6024490120FCF711FD002860
:1047D000B4D168682049032814BF00200120FCF7E9
:1047E00007FD0028AAD12846FFF74AFA68681B4946
:1047F000022814BF00200120FCF7FAFC00289DD1FC
:104800002846FFF73DFA60681449012814BF0020CC
:104810000120FCF7EDFC002890D1094D05232B6009
:104820002046FFF72DFA06232B600648FEF750FEC0
:104830000549B0FA80F04009FCF7DAFC7EE700BFDA
:104840005424002054C9000858C8000838C800087B
:1048500048C8000854C8000860C800087CC80008A0
:1048600070B505460C460B4E3046FEF7B9FD2246A4
:1048700006F124012846FFF713FF054620B1224622
:104880000021103006F078FD0248FEF751FC284662
:1048900070BD00BF901A0020000000000000000062
:1048A00038B5474B01221A604648FEF729FF4649B2
:1048B000B0FA80F04009FCF79BFC00B138BD404BDA
:1048C00002221A6080213F48FFF7CAFF04463F4991
:1048D000003818BF0120FCF78BFC0028EED1384BC4
:1048E00003221A6080213748FFF7BAFF3849B0FA2F
:1048F00080F04009FCF77CFC0028DFD1304B04221B
:104900001A603048FEF7FCFE05463249003818BFF1
:104910000120FCF76DFC0028D0D12F49AC4214BF18
:1049200000200120FCF764FC0028C7D168682A49F0
:10493000022814BF00200120FCF75AFC0028BDD13A
:104940006B6801336B6024490120FCF751FC00289F
:10495000B4D168682049032814BF00200120FCF767
:1049600047FC0028AAD12846FFF7B2F968681B491E
:10497000022814BF00200120FCF73AFC00289DD13A
:104980002846FFF7A5F960681449012814BF0020E4
:104990000120FCF72DFC002890D1094D05232B6048
:1049A0002046FFF795F906232B600648FEF7A8FE80
:1049B0000549B0FA80F04009FCF71AFC7EE700BF19
:1049C000542400205CC9000858C8000838C80008F2
:1049D00048C8000854C8000860C800087CC800081F
:1049E000F0B587B00E4617461D460822FFF7F8FBC4
:1049F0000446C0B1009701903444029403950C9B87
:104A000004930D9B0593202383F31188684605F0DA
:104A10006FFD0446012380F82130002105F008FED7
:104A2000002383F31188204607B0F0BD000000008A
:104A300030B587B0474B9B699D68474B02221A608F
:104A400004AA05A94548FFF70BF804464449012884
:104A500014BF00200120FCF7CBFB08B107B030BD2C
:104A60003D4B03221A603F4B01933F4B00936B1E5B
:104A70003E4A4FF4A4713948FFF7B2FF3C4B18602F
:104A80003C49003818BF0120FCF7B2FB0028E5D1F3
:104A9000314B04221A60384B0193334B0093AB1E09
:104AA000364A4FF4A4712D48FFF79AFF304B5860F7
:104AB0003049003818BF0120FCF79AFB0028CDD1FF
:104AC000254B05221A602E4B0193274B0093EB1EBA
:104AD0002C4A4FF000412148FFF782FF244B986099
:104AE0002949B0FA80F04009FCF782FB0028B5D1D3
:104AF000194B06221A60FFF77BFA24492448FCF779
:104B000027FC0028AAD1144B07221A6002AA03A985
:104B10001248FEF7A5FF1F49844214BF0020012060
:104B2000FCF766FB002899D11B490598039B984226
:104B300014BF00200120FCF75BFB00288ED1174931
:104B40000498029B984214BF00200120FCF750FB00
:104B500084E700BF181A002054240020401B0020C6
:104B6000E8CA000830CA00080109000828CA00087D
:104B70006C2400205CCA00083CCA000834CA000843
:104B800048CA000840CA000874CA000824C20008C5
:104B900050CB000854CB00086CCB000888CB000831
:104BA00030B583B0044601291BD115681649284643
:104BB000FBF73AFC00B315492846FBF735FCA8B9CA
:104BC000134A144B9B699B6801940092124A4FF45C
:104BD000E4710020FFF704FF80B1FFF729F903B06B
:104BE00030BD0E4A0E49FDF71BFEF8E70B4A0C4993
:104BF0002046FDF715FEF2E70A4AE2E70A49204699
:104C0000FDF70EFEEBE700BFB8CB0008B0CB000805
:104C100091610008181A002094D50008A8CB00085C
:104C2000A0C4000881610008BCCB0008000000009F
:104C300038B50C46202282F31188826801328260E6
:104C4000002A0BDDA368013BA360002B10DB05F0FD
:104C500097FC0020002383F3118838BD03460068C9
:104C600002681A60536005F0B3FC00234362E9E771
:104C7000064B9D692C6063686B601D6065606C62AB
:104C8000052005F08DFC686AE4E700BF181A0020D3
:104C900038B505460C4600E0013C002C0DDDAB6844
:104CA0000133AB60002BF7DC286803682B605D6084
:104CB00005F08EFC00234362EEE738BD00000000E3
:104CC000826801328260002A00DD704708B5034621
:104CD000006802681A6053600023436205F078FCA4
:104CE00008BD00BF00000000000000000000000040
:104CF00008B5202383F311888368002B05DD05F0B8
:104D00003FFC002383F3118808BDFFF7D9FFF6E7C6
:104D100010B50C460B6A002B1CDB4B6A13F0080F16
:104D200021D04A680B6813604A685A60036ACB60F6
:104D300000F114038B60036A9960016200230B6128
:104D40004B6101234B623030FFF7BAFF236A013316
:104D5000236210BD4B6A03F01A034B6201F1180085
:104D6000FFF7AEFFF5E713F0200F0ED1C3698B609C
:104D700000F11403CB60C369D960C161636A03F0B9
:104D8000120343F001036362DDE7036ACB6000F1C5
:104D900014038B60036A99600162EFE70000000072
:104DA00030B585B0A44C01232360A44B0393A44BDE
:104DB0000293A44B01933C2300930423A24A0821AD
:104DC000A248FCF7CDFF022323600025072D23D83E
:104DD0002A4600219D48FDF73BFB0446406A9C495A
:104DE000C0F34000FCF704FA002861D1606A9949D9
:104DF000C0F3C000FCF7FCF9002859D1202383F34D
:104E0000118821469148FFF783FF05F0B9FB002385
:104E100083F311880135D9E78F499048FCF798FA58
:104E2000002845D1844B03221A6000250CE0202382
:104E300083F3118821468548FFF76AFF05F0A0FB40
:104E4000002383F311880135072D33D82A4600212A
:104E50007E48FDF7FDFA0446406A7D49C0F34000F4
:104E6000FCF7C6F920BB606A7D49C0F3C000FCF7BF
:104E7000BFF9E8B9002221467448FCF749FC80F0EC
:104E800001007849C0B2FCF7B3F988B9606A70498B
:104E9000C0F34000FCF7ACF950B9606AC00880F07C
:104EA0000100714900F00100FCF7A2F90028BED012
:104EB00005B030BD68496D48FCF74AFA0028F7D1C3
:104EC0005D4B04221A6000250CE0202383F3118837
:104ED00021465E48FFF71CFF05F052FB002383F3D9
:104EE00011880135072D3CD82A4600215748FDF787
:104EF000AFFA0446406A5649C0F34000FCF778F91F
:104F00000028D5D1606A5649C0F3C000FCF770F99B
:104F10000028CDD1012221464C48FCF7F9FB80F056
:104F200001005049C0B2FCF763F90028C0D12A46FD
:104F300000214648FDF78CFA0446406A4449C0F314
:104F40004000FCF755F90028B2D1606AC00880F033
:104F50000100454900F00100FCF74AF90028B4D0EF
:104F6000A6E73D494148FCF7F3F90028A0D1324BB0
:104F700005221A600425072D26D82A460021334829
:104F8000FDF766FA0446406A3149C0F34000FCF779
:104F90002FF900288CD1636ADB0883F001003249C5
:104FA00000F00100FCF724F9002881D1202383F3CD
:104FB000118821462548FFF7ABFE05F0E1FA0023F2
:104FC00083F311880135D6E723492448FCF7C0F95B
:104FD00000287FF46DAF184B06221A600025032DC0
:104FE00025D82A4600211948FDF732FA0446406ABE
:104FF0001749C0F34000FCF7FBF800287FF458AFD6
:10500000606A1749C0F3C000FCF7F2F800287FF48B
:105010004FAF202383F3118821460C48FFF778FE19
:1050200005F0AEFA002383F311880135D7E70A496A
:105030000A48FCF78DF93BE754240020410800089A
:1050400071500008201C0020001B0020D4190020F3
:10505000CCCB0008D8CB0008F0C90008ACC60008CB
:1050600004CC0008F0CB000800CC00080CCC0008F1
:1050700070B506460C4615464B696133D8B2FBF74E
:10508000C7FB636A23F0080363620DB9002070BD9B
:10509000202383F3118821463046FFF739FE05F0BF
:1050A0006FFA002383F31188F0E700BF00000000CF
:1050B00010B50446202383F311880C30FCF748FB1D
:1050C0002046FFF7FDFD05F05BFA002383F311880E
:1050D00010BD00BF00000000000000000000000044
:1050E00070B506460D4614463CB129463046FFF7DA
:1050F000DFFF33691D44013CF6E770BD000000008E
:105100002DE9F84306460D4614461F46DFF85C803D
:105110004046FEF765F904F1150205FB04F303EBC5
:10512000820208F140013046FFF7BAFA0646B0B1F4
:1051300000F1540800F1100308EB84093A462946AF
:105140001D461846FCF754FE224649462846FFF7FE
:10515000C7FF2246414606F12C00FCF729FC034814
:10516000FDF7E6FF3046BDE8F88300BF901A002047
:1051700038B5494B01221A604848FEF791F9484971
:10518000B0FA80F04009FCF733F800B138BD424B6B
:1051900002221A600423102211464048FFF7B0FF94
:1051A00004464049003818BF0120FCF721F80028C8
:1051B000ECD1394B03221A600423102211463748E0
:1051C000FFF79EFF3849B0FA80F04009FCF710F86D
:1051D0000028DBD1304B04221A603048FEF760F91A
:1051E00005463249003818BF0120FCF701F80028B5
:1051F000CCD12F49AC4214BF00200120FBF7F8FFAF
:105200000028C3D168682A49022814BF0020012061
:10521000FBF7EEFF0028B9D16B6801336B602449BE
:105220000120FBF7E5FF0028B0D16868204903287A
:1052300014BF00200120FBF7DBFF0028A6D1284681
:10524000FEF7F6FC68681B49022814BF0020012005
:10525000FBF7CEFF002899D12846FEF7E9FC6068ED
:105260001449012814BF00200120FBF7C1FF0028CA
:105270008CD1094D05232B602046FEF7D9FC06236F
:105280002B600648FEF70CF90549B0FA80F040099A
:10529000FBF7AEFF7AE700BF542400204CC900089A
:1052A00058C8000838C8000848C8000854C8000892
:1052B00060C800087CC80008000000000000000072
:1052C00070B504461646856881600135002D07DCFF
:1052D0006068436863601C6005F07AF94662F4E731
:1052E00070BD00BF000000000000000000000000D2
:1052F00008B5202383F31188FFF7E2FF05F040F99A
:10530000002383F3118808BD0000000000000000A6
:1053100038B52D4B01221A602C4D2846FDF7D8F8E0
:105320000446202383F31188A8682949B0FA80F045
:105330004009FBF75DFF18B1002383F3118838BDE6
:10534000002383F311882349B4FA84F04009FBF762
:105350004FFF0028F3D11C4B02221A601B4C204641
:10536000FCF736FF202383F31188A0681849012831
:1053700014BF00200120FBF73BFF18B1002383F38B
:105380001188DCE7002383F311880F4B03221A6096
:105390000E4C6FF0010202212046FFF7A9FF2023E7
:1053A00083F31188A0680A49022814BF0020012055
:1053B000FBF71EFF18B9002383F31188BFE7002312
:1053C00083F31188BBE700BF54240020201D002078
:1053D00018CC00082CCC00080000000000000000E1
:1053E00008B56FF0010200210148FFF781FF08BDF9
:1053F000201D002000000000000000000000000050
:1054000010B50F4B9C69606204F12803A06A8342C7
:1054100004D00368A36205F0DBF8F5E794F82230C6
:105420004BB994F8213013F0030F04D1626923695A
:10543000136162695A610F2005F0B2F810BD00BF18
:10544000181A00200000000000000000000000000A
:1054500038B50446104B9D69202383F311886B6B8C
:1054600030EA03030BD021B9002383F311880846E7
:105470000DE068620B2005F0DBFD002808DB6B6B9C
:1054800023EA04036B63002383F31188204638BDAD
:10549000002080F31188FAE7181A002000000000AD
:1054A00070B5124B9E69202383F31188746B0440FE
:1054B0000ED1054621B9002383F311880C460EE076
:1054C00070620A2005F0B4FD00280ADB746B2C40E2
:1054D000736B23EA04037363002383F3118820466C
:1054E00070BD002383F31188F9E700BF181A00206C
:1054F00070B5134B9E69202383F31188746B0440AD
:105500000ED1054621B9002383F311880C4610E023
:1055100070620A2005F08CFD00280CDB746B2C40B7
:1055200063421C40736B23EA04037363002383F319
:105530001188204670BD002383F31188F9E700BF6E
:10554000181A002000000000000000000000000009
:1055500008B52B4B01221A6000214FF0FF30FFF7F6
:10556000C7FF2849B0FA80F04009FBF741FE00B1BF
:1055700008BD00214FF0FF30FFF792FF2149B0FA3C
:1055800080F04009FBF734FE0028F1D100214FF0F4
:10559000FF30FFF75DFF1B49B0FA80F04009FBF7D1
:1055A00027FE0028E4D1164B02221A604FF4FA714C
:1055B0004FF0FF30FFF79CFF1249B0FA80F040092E
:1055C000FBF716FE0028D3D14FF4FA714FF0FF30ED
:1055D000FFF766FF0B49B0FA80F04009FBF708FEC1
:1055E0000028C5D14FF4FA714FF0FF30FFF730FFBC
:1055F0000449B0FA80F04009FBF7FAFDB8E700BFB4
:105600005424002044CC00080000000000000000EA
:105610002DE9F04104468846114DAB699F6B384631
:10562000FDF75EFDAD696C6226462468A64203D094
:10563000A268AB689A42F8D22C6063686B601D6008
:1056400065604146072005F0F3FC0446B0F1FF3FDA
:1056500002D12046BDE8F0813846FDF729FEF8E783
:10566000181A0020000000000000000000000000E8
:1056700008B5202383F31188FFF7CAFF002383F3C3
:10568000118808BD000000000000000000000000BC
:1056900070B504460B4D2846FDF7A2FE0A4E304673
:1056A000FDF79EFE4FF0FF310848FFF7E1FF20783D
:1056B000FBF7AEF83046FDF73BFD2846FDF738FD19
:1056C00070BD00BF3C0800202C080020000800200E
:1056D00008B58268531E8360002B01DB002008BDE3
:1056E00059B1084B9B695862186042685A60136050
:1056F0004360052005F09CFCF1E782604FF0FF302D
:10570000EDE700BF181A00200000000000000000B4
:1057100010B50446FFF7DCFF20B904F10C00FCF7DC
:105720003FF810BD0020FCE7000000000000000072
:1057300008B5202383F31188FFF7EAFF002383F3E2
:10574000118808BD000000000000000000000000FB
:1057500008B5074B01221A604FF47A710548FFF72C
:10576000E7FF0549B0FA80F04009FBF741FD08BDAD
:105770005424002010080020F8C100080000000098
:1057800010B52C4C0123236004222B492B48FFF732
:10579000A7FC022323600024032C0DD800212748F6
:1057A000FFF7C6FF2649003818BF0120FBF720FD90
:1057B00000283DD10134EFE71E4B03221A6000217F
:1057C0001E48FFF7B5FF1F49B0FA80F04009FBF70C
:1057D0000FFD68BB174B04221A60002406E016492F
:1057E00001EB84011548FFF763FC0134032CF6D963
:1057F000104B05221A600024032C0CD800210F48FE
:10580000FFF796FF0E49003818BF0120FBF7F0FCA8
:1058100070B90134F0E7074B06221A6000210748EF
:10582000FFF786FF0749B0FA80F04009FBF7E0FC7C
:1058300010BD00BF54240020101D002010080020BF
:10584000ECC10008F8C100080000000000000000E2
:1058500008B5202383F31188FFF73AFF002383F371
:10586000118808BD000000000000000000000000DA
:1058700008B5064B9B6929B103605862032005F007
:10588000D7FB08BD4FF0FF30FBE700BF181A002020
:105890002DE9F8439846037D13B10020BDE8F88355
:1058A00005460E46174600F140094846FDF798FDAB
:1058B0003C4606E0241A0644002105F11800FCF7D6
:1058C000AFFC9CB1224631462846FEF749F8002835
:1058D000F0D1202383F31188414605F11C00FFF726
:1058E000C7FF002383F311880028EAD04846FDF75C
:1058F0001FFC381BD2E700BF0000000000000000C2
:105900002DE9F8439846037D13B10020BDE8F883E4
:1059100005460E46174600F130094846FDF760FD82
:105920003C4606E0241A0644002105F11C00FCF761
:1059300077FC9CB1224631462846FEF751F80028F4
:10594000F0D1202383F31188414605F11800FFF7B9
:105950008FFF002383F311880028EAD04846FDF723
:10596000E7FB381BD2E700BF00000000000000008A
:1059700000B585B0284B01221A6000231022694629
:105980002648FFF785FF2649B0FA80F04009FBF76B
:105990002FFC48B9214B1A68DB68934207D00020DE
:1059A0002049FBF725FC70B105B05DF804FB1B4BEB
:1059B0009B689A4201D00020F2E7184B1B69002B2C
:1059C000EED10120ECE7144B02221A6000231022D2
:1059D00015491248FFF794FF1149082814BF002009
:1059E0000120FBF705FC0028DED10C4B9A68DB6830
:1059F000934204D000200B49FBF7FAFBD4E7074B96
:105A00001B689A4201D00020F5E7044B1B69082B64
:105A1000F1D10120EFE700BF542400208C080020C2
:105A200054CC000860CC0008CCDD00080000000069
:105A300010B50446202383F3118805F061FA211A7A
:105A400003D1002383F3118810BD082005F0F0FA7C
:105A5000F7E700BF000000000000000000000000A9
:105A600008B50146202383F31188082005F0E0FAE9
:105A7000002383F3118808BD00000000000000002F
:105A800008B541F28830FFF7EBFF0D4D2846FDF7D2
:105A9000C7F80C4C0C492046FCF7C2FE41F2883096
:105AA000FFF7DEFF09492846FDF74AF90849204675
:105AB000FCF7B6FE4CF25031064805F011FAF9E752
:105AC00064190020E818002074CC0008BC100020E5
:105AD00088CC000800080240000000000000000020
